{
  "address": "0xAc77AA6D2f29D9ebb1e913fA4ae147Ea76035e7d",
  "abi": [
    {
      "anonymous": false,
      "inputs": [
        {
          "indexed": true,
          "internalType": "address",
          "name": "_oldAddress",
          "type": "address"
        },
        {
          "indexed": false,
          "internalType": "address",
          "name": "_newAddress",
          "type": "address"
        }
      ],
      "name": "CollectionAuthorizedSignerAddressUpdated",
      "type": "event"
    },
    {
      "anonymous": false,
      "inputs": [
        {
          "indexed": true,
          "internalType": "address",
          "name": "_oldAddress",
          "type": "address"
        },
        {
          "indexed": false,
          "internalType": "address",
          "name": "_newAddress",
          "type": "address"
        }
      ],
      "name": "CollectionManagerUpdated",
      "type": "event"
    },
    {
      "anonymous": false,
      "inputs": [
        {
          "indexed": true,
          "internalType": "address",
          "name": "_oldAddress",
          "type": "address"
        },
        {
          "indexed": false,
          "internalType": "address",
          "name": "_newAddress",
          "type": "address"
        }
      ],
      "name": "CollectionOwnerUpdated",
      "type": "event"
    },
    {
      "anonymous": false,
      "inputs": [
        {
          "indexed": false,
          "internalType": "uint96",
          "name": "oldRate",
          "type": "uint96"
        },
        {
          "indexed": false,
          "internalType": "uint96",
          "name": "newRate",
          "type": "uint96"
        }
      ],
      "name": "DefaultRoyaltyRatePercentageUpdated",
      "type": "event"
    },
    {
      "anonymous": false,
      "inputs": [
        {
          "indexed": false,
          "internalType": "uint8",
          "name": "version",
          "type": "uint8"
        }
      ],
      "name": "Initialized",
      "type": "event"
    },
    {
      "anonymous": false,
      "inputs": [
        {
          "indexed": false,
          "internalType": "address",
          "name": "oldFactory",
          "type": "address"
        },
        {
          "indexed": false,
          "internalType": "address",
          "name": "newFactory",
          "type": "address"
        }
      ],
      "name": "ModelFactoryUpdated",
      "type": "event"
    },
    {
      "anonymous": false,
      "inputs": [
        {
          "indexed": true,
          "internalType": "address",
          "name": "previousOwner",
          "type": "address"
        },
        {
          "indexed": true,
          "internalType": "address",
          "name": "newOwner",
          "type": "address"
        }
      ],
      "name": "OwnershipTransferred",
      "type": "event"
    },
    {
      "anonymous": false,
      "inputs": [
        {
          "indexed": false,
          "internalType": "address",
          "name": "oldReceiver",
          "type": "address"
        },
        {
          "indexed": false,
          "internalType": "address",
          "name": "newReceiver",
          "type": "address"
        }
      ],
      "name": "ReceiverUpdated",
      "type": "event"
    },
    {
      "anonymous": false,
      "inputs": [
        {
          "indexed": true,
          "internalType": "address",
          "name": "_token",
          "type": "address"
        },
        {
          "indexed": false,
          "internalType": "uint96",
          "name": "_royaltyRate",
          "type": "uint96"
        }
      ],
      "name": "RoyaltySetForCollection",
      "type": "event"
    },
    {
      "inputs": [],
      "name": "MAX_RATE_ROYALTY",
      "outputs": [
        {
          "internalType": "uint96",
          "name": "",
          "type": "uint96"
        }
      ],
      "stateMutability": "view",
      "type": "function"
    },
    {
      "inputs": [
        {
          "internalType": "address",
          "name": "_collectionSignerAddress",
          "type": "address"
        }
      ],
      "name": "changeCollectionAuthorizedSignerAddress",
      "outputs": [],
      "stateMutability": "nonpayable",
      "type": "function"
    },
    {
      "inputs": [
        {
          "internalType": "address",
          "name": "_collectionManager",
          "type": "address"
        }
      ],
      "name": "changeCollectionManager",
      "outputs": [],
      "stateMutability": "nonpayable",
      "type": "function"
    },
    {
      "inputs": [
        {
          "internalType": "address",
          "name": "_collectionOwner",
          "type": "address"
        }
      ],
      "name": "changeCollectionOwner",
      "outputs": [],
      "stateMutability": "nonpayable",
      "type": "function"
    },
    {
      "inputs": [
        {
          "internalType": "uint96",
          "name": "_newDefaultRate",
          "type": "uint96"
        }
      ],
      "name": "changeDefaultRoyaltyRatePercentage",
      "outputs": [],
      "stateMutability": "nonpayable",
      "type": "function"
    },
    {
      "inputs": [
        {
          "internalType": "address",
          "name": "_newModelFactory",
          "type": "address"
        }
      ],
      "name": "changeModelFactory",
      "outputs": [],
      "stateMutability": "nonpayable",
      "type": "function"
    },
    {
      "inputs": [
        {
          "internalType": "address",
          "name": "_newReceiver",
          "type": "address"
        }
      ],
      "name": "changeReceiver",
      "outputs": [],
      "stateMutability": "nonpayable",
      "type": "function"
    },
    {
      "inputs": [],
      "name": "collectionAuthorizedSignerAddress",
      "outputs": [
        {
          "internalType": "address",
          "name": "",
          "type": "address"
        }
      ],
      "stateMutability": "view",
      "type": "function"
    },
    {
      "inputs": [],
      "name": "collectionManager",
      "outputs": [
        {
          "internalType": "address",
          "name": "",
          "type": "address"
        }
      ],
      "stateMutability": "view",
      "type": "function"
    },
    {
      "inputs": [],
      "name": "collectionOwner",
      "outputs": [
        {
          "internalType": "address",
          "name": "",
          "type": "address"
        }
      ],
      "stateMutability": "view",
      "type": "function"
    },
    {
      "inputs": [],
      "name": "defaultRoyaltyRatePercentage",
      "outputs": [
        {
          "internalType": "uint96",
          "name": "",
          "type": "uint96"
        }
      ],
      "stateMutability": "view",
      "type": "function"
    },
    {
      "inputs": [
        {
          "internalType": "address",
          "name": "_token",
          "type": "address"
        }
      ],
      "name": "getRoyaltyInfo",
      "outputs": [
        {
          "internalType": "address",
          "name": "_receiver",
          "type": "address"
        },
        {
          "internalType": "uint96",
          "name": "_royaltyRatePercentage",
          "type": "uint96"
        }
      ],
      "stateMutability": "view",
      "type": "function"
    },
    {
      "inputs": [
        {
          "internalType": "address",
          "name": "_receiver",
          "type": "address"
        },
        {
          "internalType": "uint96",
          "name": "_defaultRateRoyaltyPercentage",
          "type": "uint96"
        },
        {
          "internalType": "address",
          "name": "_collectionOwner",
          "type": "address"
        },
        {
          "internalType": "address",
          "name": "_collectionManager",
          "type": "address"
        },
        {
          "internalType": "address",
          "name": "_collectionAuthorizedSignerAddress",
          "type": "address"
        }
      ],
      "name": "initialize",
      "outputs": [],
      "stateMutability": "nonpayable",
      "type": "function"
    },
    {
      "inputs": [],
      "name": "modelFactory",
      "outputs": [
        {
          "internalType": "address",
          "name": "",
          "type": "address"
        }
      ],
      "stateMutability": "view",
      "type": "function"
    },
    {
      "inputs": [],
      "name": "owner",
      "outputs": [
        {
          "internalType": "address",
          "name": "",
          "type": "address"
        }
      ],
      "stateMutability": "view",
      "type": "function"
    },
    {
      "inputs": [],
      "name": "receiver",
      "outputs": [
        {
          "internalType": "address",
          "name": "",
          "type": "address"
        }
      ],
      "stateMutability": "view",
      "type": "function"
    },
    {
      "inputs": [],
      "name": "renounceOwnership",
      "outputs": [],
      "stateMutability": "nonpayable",
      "type": "function"
    },
    {
      "inputs": [
        {
          "internalType": "address",
          "name": "",
          "type": "address"
        }
      ],
      "name": "royaltiesSet",
      "outputs": [
        {
          "internalType": "bool",
          "name": "isSet",
          "type": "bool"
        },
        {
          "internalType": "uint96",
          "name": "royaltyRateForCollection",
          "type": "uint96"
        },
        {
          "internalType": "address",
          "name": "royaltyReceiver",
          "type": "address"
        }
      ],
      "stateMutability": "view",
      "type": "function"
    },
    {
      "inputs": [
        {
          "internalType": "address",
          "name": "_token",
          "type": "address"
        },
        {
          "internalType": "uint96",
          "name": "_royaltyRate",
          "type": "uint96"
        },
        {
          "internalType": "address",
          "name": "_royaltyReceiver",
          "type": "address"
        }
      ],
      "name": "setRoyaltyRateForCollection",
      "outputs": [],
      "stateMutability": "nonpayable",
      "type": "function"
    },
    {
      "inputs": [
        {
          "internalType": "address[]",
          "name": "_tokens",
          "type": "address[]"
        },
        {
          "internalType": "uint96[]",
          "name": "_royaltyRates",
          "type": "uint96[]"
        },
        {
          "internalType": "address[]",
          "name": "_royaltyReceivers",
          "type": "address[]"
        }
      ],
      "name": "setRoyaltyRateForCollections",
      "outputs": [],
      "stateMutability": "nonpayable",
      "type": "function"
    },
    {
      "inputs": [
        {
          "internalType": "address",
          "name": "newOwner",
          "type": "address"
        }
      ],
      "name": "transferOwnership",
      "outputs": [],
      "stateMutability": "nonpayable",
      "type": "function"
    }
  ],
  "transactionHash": "0x862f78d0c9744f0192bf78df7a79bf19da93e975221fa78225aed20eeaef5530",
  "args": [],
  "numDeployments": 1,
  "solcInputHash": "daa2fa3bc4551c43de1052bdc1bef88a",
  "bytecode": "0x608060405234801561001057600080fd5b506111f2806100206000396000f3fe608060405234801561001057600080fd5b50600436106101375760003560e01c8063715018a6116100b8578063ad84eaca1161007c578063ad84eaca146102ff578063d06ab78814610312578063d7ef940914610325578063df727d3b14610338578063f2fde38b1461034b578063f7260d3e1461035e57600080fd5b8063715018a6146102b75780637b2e7008146102bf5780638ce6467d146102c85780638da5cb5b146102db5780639fdf8469146102ec57600080fd5b80634f53e226116100ff5780634f53e22614610258578063547e3f061461026b578063647a5c851461027e5780636b51fd01146102915780636c425127146102a457600080fd5b80630431c7ef1461013c5780631f08b6481461016c578063376a06f4146101de5780633e6425db146102185780634925536e14610243575b600080fd5b60675461014f906001600160a01b031681565b6040516001600160a01b0390911681526020015b60405180910390f35b6101b061017a366004610ff5565b6065602052600090815260409020805460019091015460ff82169161010090046001600160601b0316906001600160a01b031683565b6040805193151584526001600160601b0390921660208401526001600160a01b031690820152606001610163565b6101f16101ec366004610ff5565b610378565b604080516001600160a01b0390931683526001600160601b03909116602083015201610163565b60665461022b906001600160601b031681565b6040516001600160601b039091168152602001610163565b6102566102513660046110bc565b610416565b005b610256610266366004610ff5565b61058e565b610256610279366004610ff5565b610617565b61025661028c366004611016565b6106b5565b61025661029f366004610ff5565b610723565b6102566102b2366004611058565b6107a4565b610256610a64565b61022b6103e881565b6102566102d6366004611152565b610a78565b6033546001600160a01b031661014f565b60685461014f906001600160a01b031681565b60695461014f906001600160a01b031681565b610256610320366004610ff5565b610b29565b610256610333366004610ff5565b610baa565b606a5461014f906001600160a01b031681565b610256610359366004610ff5565b610c32565b60665461014f90600160601b90046001600160a01b031681565b6001600160a01b0381811660009081526065602090815260408083208151606081018352815460ff81161515825261010090046001600160601b0316938101939093526001015490931692810183905290918291906103e957606654600160601b90046001600160a01b03166103ef565b80604001515b8151610406576066546001600160601b031661040c565b81602001515b9250925050915091565b61041e610cab565b8483146104725760405162461bcd60e51b815260206004820152601c60248201527f4d69736d6174636820726f79616c74795261746573206c656e6774680000000060448201526064015b60405180910390fd5b8481146104c15760405162461bcd60e51b815260206004820181905260248201527f4d69736d6174636820726f79616c7479526563656976657273206c656e6774686044820152606401610469565b60005b85811015610585576105738787838181106104ef57634e487b7160e01b600052603260045260246000fd5b90506020020160208101906105049190610ff5565b86868481811061052457634e487b7160e01b600052603260045260246000fd5b90506020020160208101906105399190611152565b85858581811061055957634e487b7160e01b600052603260045260246000fd5b905060200201602081019061056e9190610ff5565b610d05565b8061057d81611195565b9150506104c4565b50505050505050565b610596610cab565b6001600160a01b0381166105bc5760405162461bcd60e51b81526004016104699061116c565b606a80546001600160a01b038381166001600160a01b031983168117909355604051928352169081907ff8ee87253d4d0a5a98583aa34e04b7aec86bf4d623d7a050e77c3736f02f6a57906020015b60405180910390a25050565b61061f610cab565b6001600160a01b0381166106455760405162461bcd60e51b81526004016104699061116c565b606680546001600160a01b03838116600160601b9081026001600160601b038416179384905560408051938290048316808552919094049091166020830152917fbda2bcccbfa5ae883ab7d9f03480ab68fe68e9200c9b52c0c47abc21d2c90ec991015b60405180910390a15050565b6033546001600160a01b03163314806106d857506067546001600160a01b031633145b6107135760405162461bcd60e51b815260206004820152600c60248201526b155b985d5d1a1bdc9a5e995960a21b6044820152606401610469565b61071e838383610d05565b505050565b61072b610cab565b6001600160a01b0381166107515760405162461bcd60e51b81526004016104699061116c565b606880546001600160a01b038381166001600160a01b031983168117909355604051928352169081907f5a3b004e7cb1dd9c21394cee4a9d3cd503918330fc953652a23ca1e5fa6e0d219060200161060b565b600054610100900460ff16158080156107c45750600054600160ff909116105b806107de5750303b1580156107de575060005460ff166001145b6108415760405162461bcd60e51b815260206004820152602e60248201527f496e697469616c697a61626c653a20636f6e747261637420697320616c72656160448201526d191e481a5b9a5d1a585b1a5e995960921b6064820152608401610469565b6000805460ff191660011790558015610864576000805461ff0019166101001790555b6001600160a01b0386166108b55760405162461bcd60e51b8152602060048201526018602482015277496e76616c6964207265636569766572206164647265737360401b6044820152606401610469565b6001600160a01b0384166109035760405162461bcd60e51b8152602060048201526015602482015274496e76616c6964206f776e6572206164647265737360581b6044820152606401610469565b6001600160a01b0383166109595760405162461bcd60e51b815260206004820152601760248201527f496e76616c6964206d616e6167657220616464726573730000000000000000006044820152606401610469565b6001600160a01b0382166109a85760405162461bcd60e51b8152602060048201526016602482015275496e76616c6964207369676e6572206164647265737360501b6044820152606401610469565b6001600160601b0385166001600160a01b03808816600160601b026bffffffffffffffffffffffff191691909117606655606a80548683166001600160a01b031991821617909155606880548684169083161790556069805492851692909116919091179055610a16610eb6565b8015610a5c576000805461ff0019169055604051600181527f7f26b83ff96e1f2b6a682f133852f6798a09c465da95921460cefb38474024989060200160405180910390a15b505050505050565b610a6c610cab565b610a766000610f26565b565b610a80610cab565b6103e86001600160601b0382161115610aca5760405162461bcd60e51b815260206004820152600c60248201526b496e76616c6964205261746560a01b6044820152606401610469565b606680546001600160601b038381166bffffffffffffffffffffffff1983168117909355604080519190921680825260208201939093527f7392c3db674e96a805158bdfac5363922c74a8241afb1eedc887ec13d02f521391016106a9565b610b31610cab565b6001600160a01b038116610b575760405162461bcd60e51b81526004016104699061116c565b606980546001600160a01b038381166001600160a01b031983168117909355604051928352169081907fa26f2fe3350d3c4c094a3f4310c3e89e82dd8e81b73ad253a8abfcae54c03d909060200161060b565b610bb2610cab565b6001600160a01b038116610bd85760405162461bcd60e51b81526004016104699061116c565b606780546001600160a01b038381166001600160a01b031983168117909355604080519190921680825260208201939093527f51ef4f53c3dd1a65db829ec538a7e8bc41f56ed6e583b5e24e43986223a11ed291016106a9565b610c3a610cab565b6001600160a01b038116610c9f5760405162461bcd60e51b815260206004820152602660248201527f4f776e61626c653a206e6577206f776e657220697320746865207a65726f206160448201526564647265737360d01b6064820152608401610469565b610ca881610f26565b50565b6033546001600160a01b03163314610a765760405162461bcd60e51b815260206004820181905260248201527f4f776e61626c653a2063616c6c6572206973206e6f7420746865206f776e65726044820152606401610469565b6001600160a01b038316610d4b5760405162461bcd60e51b815260206004820152600d60248201526c24b73b30b634b2103a37b5b2b760991b6044820152606401610469565b6001600160a01b038116610d9c5760405162461bcd60e51b8152602060048201526018602482015277496e76616c6964207265636569766572206164647265737360401b6044820152606401610469565b6103e86001600160601b0383161115610de65760405162461bcd60e51b815260206004820152600c60248201526b496e76616c6964205261746560a01b6044820152606401610469565b6040805160608101825260018082526001600160601b0385811660208085018281526001600160a01b038881168789019081528b82166000818152606586528a90208951815495516cffffffffffffffffffffffffff199096169015156cffffffffffffffffffffffff001916176101009590981694909402969096178355519190950180546001600160a01b0319169190951617909355935193845291927f25b3ff953c8d46ef87728ec49843598f7f7586628c5012d65cbd1c68c156a298910160405180910390a250505050565b600054610100900460ff16610f215760405162461bcd60e51b815260206004820152602b60248201527f496e697469616c697a61626c653a20636f6e7472616374206973206e6f74206960448201526a6e697469616c697a696e6760a81b6064820152608401610469565b610a76335b603380546001600160a01b038381166001600160a01b0319831681179093556040519116919082907f8be0079c531659141344cd1fd0a4f28419497f9722a3daafe3b4186f6b6457e090600090a35050565b80356001600160a01b0381168114610f8f57600080fd5b919050565b60008083601f840112610fa5578182fd5b50813567ffffffffffffffff811115610fbc578182fd5b6020830191508360208260051b8501011115610fd757600080fd5b9250929050565b80356001600160601b0381168114610f8f57600080fd5b600060208284031215611006578081fd5b61100f82610f78565b9392505050565b60008060006060848603121561102a578182fd5b61103384610f78565b925061104160208501610fde565b915061104f60408501610f78565b90509250925092565b600080600080600060a0868803121561106f578081fd5b61107886610f78565b945061108660208701610fde565b935061109460408701610f78565b92506110a260608701610f78565b91506110b060808701610f78565b90509295509295909350565b600080600080600080606087890312156110d4578081fd5b863567ffffffffffffffff808211156110eb578283fd5b6110f78a838b01610f94565b9098509650602089013591508082111561110f578283fd5b61111b8a838b01610f94565b90965094506040890135915080821115611133578283fd5b5061114089828a01610f94565b979a9699509497509295939492505050565b600060208284031215611163578081fd5b61100f82610fde565b6020808252600f908201526e496e76616c6964206164647265737360881b604082015260600190565b60006000198214156111b557634e487b7160e01b81526011600452602481fd5b506001019056fea2646970667358221220a0d7cc15d55c1d624fef145da794f2a5776f8608af23ac1628a05f823cab2d0164736f6c63430008040033",
  "devdoc": {
    "events": {
      "RoyaltySetForCollection(address,uint96)": {
        "details": "emitted when royalties set for token."
      }
    },
    "kind": "dev",
    "methods": {
      "changeCollectionAuthorizedSignerAddress(address)": {
        "details": "Update the authorized signer address.",
        "params": {
          "_collectionSignerAddress": "new authorized signer address."
        }
      },
      "changeCollectionManager(address)": {
        "details": "Can be called only by the current manager.",
        "params": {
          "_collectionManager": "new manager address."
        }
      },
      "changeCollectionOwner(address)": {
        "details": "Update the authorized signer address.",
        "params": {
          "_collectionOwner": "new authorized signer address."
        }
      },
      "changeDefaultRoyaltyRatePercentage(uint96)": {
        "details": "setter for defaultRoyaltyRatePercentage",
        "params": {
          "_newDefaultRate": "new default rate for royalty."
        }
      },
      "changeModelFactory(address)": {
        "details": "setter for model factory address.",
        "params": {
          "_newModelFactory": "new Receiver address"
        }
      },
      "changeReceiver(address)": {
        "details": "setter for receiver address.",
        "params": {
          "_newReceiver": "new Receiver address"
        }
      },
      "getRoyaltyInfo(address)": {
        "details": "royalty info for specific token / collection.It will return custom rate for the token, otherwise will return the default one.",
        "params": {
          "_token": "address of token / collection."
        },
        "returns": {
          "_receiver": "receiver address.",
          "_royaltyRatePercentage": "royalty rate percentage."
        }
      },
      "initialize(address,uint96,address,address,address)": {
        "params": {
          "_defaultRateRoyaltyPercentage": "default royalty percentage.",
          "_receiver": "receiver address."
        }
      },
      "owner()": {
        "details": "Returns the address of the current owner."
      },
      "renounceOwnership()": {
        "details": "Leaves the contract without owner. It will not be possible to call `onlyOwner` functions anymore. Can only be called by the current owner. NOTE: Renouncing ownership will leave the contract without an owner, thereby removing any functionality that is only available to the owner."
      },
      "setRoyaltyRateForCollection(address,uint96,address)": {
        "details": "set royalty rate for specific collection. Support multiple set. The length of array between tokens & rates must exactly the same.",
        "params": {
          "_royaltyRate": "royalty rate.",
          "_token": "token address."
        }
      },
      "setRoyaltyRateForCollections(address[],uint96[],address[])": {
        "details": "set royalty rate for specific collection. Support multiple set. The length of array between tokens & rates must exactly the same.",
        "params": {
          "_royaltyRates": "array of royalty rates.",
          "_tokens": "array of token address."
        }
      },
      "transferOwnership(address)": {
        "details": "Transfers ownership of the contract to a new account (`newOwner`). Can only be called by the current owner."
      }
    },
    "version": 1
  },
  "userdoc": {
    "kind": "user",
    "methods": {
      "changeCollectionManager(address)": {
        "notice": "Setter for manager address."
      },
      "changeDefaultRoyaltyRatePercentage(uint96)": {
        "notice": "the deafult royalty rate can be 0."
      },
      "collectionManager()": {
        "notice": "the authorized address who can change some configuration of collections."
      },
      "initialize(address,uint96,address,address,address)": {
        "notice": "Initialization for upgradeable contract."
      },
      "setRoyaltyRateForCollection(address,uint96,address)": {
        "notice": "the rate will be applied to all of token ids inside the collection.Owner or factory can perform this function call."
      },
      "setRoyaltyRateForCollections(address[],uint96[],address[])": {
        "notice": "the rate will be applied to all of token ids inside the collection.only owner can call the multiple set."
      }
    },
    "version": 1
  },
  "storageLayout": {
    "storage": [
      {
        "astId": 138,
        "contract": "contracts/royalty/RoyaltyRegistry.sol:RoyaltyRegistry",
        "label": "_initialized",
        "offset": 0,
        "slot": "0",
        "type": "t_uint8"
      },
      {
        "astId": 141,
        "contract": "contracts/royalty/RoyaltyRegistry.sol:RoyaltyRegistry",
        "label": "_initializing",
        "offset": 1,
        "slot": "0",
        "type": "t_bool"
      },
      {
        "astId": 566,
        "contract": "contracts/royalty/RoyaltyRegistry.sol:RoyaltyRegistry",
        "label": "__gap",
        "offset": 0,
        "slot": "1",
        "type": "t_array(t_uint256)50_storage"
      },
      {
        "astId": 10,
        "contract": "contracts/royalty/RoyaltyRegistry.sol:RoyaltyRegistry",
        "label": "_owner",
        "offset": 0,
        "slot": "51",
        "type": "t_address"
      },
      {
        "astId": 130,
        "contract": "contracts/royalty/RoyaltyRegistry.sol:RoyaltyRegistry",
        "label": "__gap",
        "offset": 0,
        "slot": "52",
        "type": "t_array(t_uint256)49_storage"
      },
      {
        "astId": 3961,
        "contract": "contracts/royalty/RoyaltyRegistry.sol:RoyaltyRegistry",
        "label": "royaltiesSet",
        "offset": 0,
        "slot": "101",
        "type": "t_mapping(t_address,t_struct(RoyaltySet)3955_storage)"
      },
      {
        "astId": 3964,
        "contract": "contracts/royalty/RoyaltyRegistry.sol:RoyaltyRegistry",
        "label": "defaultRoyaltyRatePercentage",
        "offset": 0,
        "slot": "102",
        "type": "t_uint96"
      },
      {
        "astId": 3967,
        "contract": "contracts/royalty/RoyaltyRegistry.sol:RoyaltyRegistry",
        "label": "receiver",
        "offset": 12,
        "slot": "102",
        "type": "t_address"
      },
      {
        "astId": 3970,
        "contract": "contracts/royalty/RoyaltyRegistry.sol:RoyaltyRegistry",
        "label": "modelFactory",
        "offset": 0,
        "slot": "103",
        "type": "t_address"
      },
      {
        "astId": 3976,
        "contract": "contracts/royalty/RoyaltyRegistry.sol:RoyaltyRegistry",
        "label": "collectionManager",
        "offset": 0,
        "slot": "104",
        "type": "t_address"
      },
      {
        "astId": 3979,
        "contract": "contracts/royalty/RoyaltyRegistry.sol:RoyaltyRegistry",
        "label": "collectionAuthorizedSignerAddress",
        "offset": 0,
        "slot": "105",
        "type": "t_address"
      },
      {
        "astId": 3982,
        "contract": "contracts/royalty/RoyaltyRegistry.sol:RoyaltyRegistry",
        "label": "collectionOwner",
        "offset": 0,
        "slot": "106",
        "type": "t_address"
      }
    ],
    "types": {
      "t_address": {
        "encoding": "inplace",
        "label": "address",
        "numberOfBytes": "20"
      },
      "t_array(t_uint256)49_storage": {
        "base": "t_uint256",
        "encoding": "inplace",
        "label": "uint256[49]",
        "numberOfBytes": "1568"
      },
      "t_array(t_uint256)50_storage": {
        "base": "t_uint256",
        "encoding": "inplace",
        "label": "uint256[50]",
        "numberOfBytes": "1600"
      },
      "t_bool": {
        "encoding": "inplace",
        "label": "bool",
        "numberOfBytes": "1"
      },
      "t_mapping(t_address,t_struct(RoyaltySet)3955_storage)": {
        "encoding": "mapping",
        "key": "t_address",
        "label": "mapping(address => struct RoyaltyStorage.RoyaltySet)",
        "numberOfBytes": "32",
        "value": "t_struct(RoyaltySet)3955_storage"
      },
      "t_struct(RoyaltySet)3955_storage": {
        "encoding": "inplace",
        "label": "struct RoyaltyStorage.RoyaltySet",
        "members": [
          {
            "astId": 3950,
            "contract": "contracts/royalty/RoyaltyRegistry.sol:RoyaltyRegistry",
            "label": "isSet",
            "offset": 0,
            "slot": "0",
            "type": "t_bool"
          },
          {
            "astId": 3952,
            "contract": "contracts/royalty/RoyaltyRegistry.sol:RoyaltyRegistry",
            "label": "royaltyRateForCollection",
            "offset": 1,
            "slot": "0",
            "type": "t_uint96"
          },
          {
            "astId": 3954,
            "contract": "contracts/royalty/RoyaltyRegistry.sol:RoyaltyRegistry",
            "label": "royaltyReceiver",
            "offset": 0,
            "slot": "1",
            "type": "t_address"
          }
        ],
        "numberOfBytes": "64"
      },
      "t_uint256": {
        "encoding": "inplace",
        "label": "uint256",
        "numberOfBytes": "32"
      },
      "t_uint8": {
        "encoding": "inplace",
        "label": "uint8",
        "numberOfBytes": "1"
      },
      "t_uint96": {
        "encoding": "inplace",
        "label": "uint96",
        "numberOfBytes": "12"
      }
    }
  }
}