{
  "address": "0x7F4cDF911Ab92778Bf2B043fE6459c8CC3d2c6A2",
  "abi": [
    {
      "anonymous": false,
      "inputs": [
        {
          "indexed": false,
          "internalType": "uint96",
          "name": "oldRate",
          "type": "uint96"
        },
        {
          "indexed": false,
          "internalType": "uint96",
          "name": "newRate",
          "type": "uint96"
        }
      ],
      "name": "DefaultRoyaltyRatePercentageUpdated",
      "type": "event"
    },
    {
      "anonymous": false,
      "inputs": [
        {
          "indexed": false,
          "internalType": "uint8",
          "name": "version",
          "type": "uint8"
        }
      ],
      "name": "Initialized",
      "type": "event"
    },
    {
      "anonymous": false,
      "inputs": [
        {
          "indexed": false,
          "internalType": "address",
          "name": "oldFactory",
          "type": "address"
        },
        {
          "indexed": false,
          "internalType": "address",
          "name": "newFactory",
          "type": "address"
        }
      ],
      "name": "ModelFactoryUpdated",
      "type": "event"
    },
    {
      "anonymous": false,
      "inputs": [
        {
          "indexed": true,
          "internalType": "address",
          "name": "previousOwner",
          "type": "address"
        },
        {
          "indexed": true,
          "internalType": "address",
          "name": "newOwner",
          "type": "address"
        }
      ],
      "name": "OwnershipTransferred",
      "type": "event"
    },
    {
      "anonymous": false,
      "inputs": [
        {
          "indexed": false,
          "internalType": "address",
          "name": "oldReceiver",
          "type": "address"
        },
        {
          "indexed": false,
          "internalType": "address",
          "name": "newReceiver",
          "type": "address"
        }
      ],
      "name": "ReceiverUpdated",
      "type": "event"
    },
    {
      "anonymous": false,
      "inputs": [
        {
          "indexed": true,
          "internalType": "address",
          "name": "_token",
          "type": "address"
        },
        {
          "indexed": false,
          "internalType": "uint96",
          "name": "_royaltyRate",
          "type": "uint96"
        }
      ],
      "name": "RoyaltySetForCollection",
      "type": "event"
    },
    {
      "inputs": [],
      "name": "MAX_RATE_ROYALTY",
      "outputs": [
        {
          "internalType": "uint96",
          "name": "",
          "type": "uint96"
        }
      ],
      "stateMutability": "view",
      "type": "function"
    },
    {
      "inputs": [
        {
          "internalType": "uint96",
          "name": "_newDefaultRate",
          "type": "uint96"
        }
      ],
      "name": "changeDefaultRoyaltyRatePercentage",
      "outputs": [],
      "stateMutability": "nonpayable",
      "type": "function"
    },
    {
      "inputs": [
        {
          "internalType": "address",
          "name": "_newModelFactory",
          "type": "address"
        }
      ],
      "name": "changeModelFactory",
      "outputs": [],
      "stateMutability": "nonpayable",
      "type": "function"
    },
    {
      "inputs": [
        {
          "internalType": "address",
          "name": "_newReceiver",
          "type": "address"
        }
      ],
      "name": "changeReceiver",
      "outputs": [],
      "stateMutability": "nonpayable",
      "type": "function"
    },
    {
      "inputs": [],
      "name": "defaultRoyaltyRatePercentage",
      "outputs": [
        {
          "internalType": "uint96",
          "name": "",
          "type": "uint96"
        }
      ],
      "stateMutability": "view",
      "type": "function"
    },
    {
      "inputs": [
        {
          "internalType": "address",
          "name": "_token",
          "type": "address"
        }
      ],
      "name": "getRoyaltyInfo",
      "outputs": [
        {
          "internalType": "address",
          "name": "_receiver",
          "type": "address"
        },
        {
          "internalType": "uint96",
          "name": "_royaltyRatePercentage",
          "type": "uint96"
        }
      ],
      "stateMutability": "view",
      "type": "function"
    },
    {
      "inputs": [
        {
          "internalType": "address",
          "name": "_receiver",
          "type": "address"
        },
        {
          "internalType": "uint96",
          "name": "_defaultRateRoyaltyPercentage",
          "type": "uint96"
        }
      ],
      "name": "initialize",
      "outputs": [],
      "stateMutability": "nonpayable",
      "type": "function"
    },
    {
      "inputs": [],
      "name": "modelFactory",
      "outputs": [
        {
          "internalType": "address",
          "name": "",
          "type": "address"
        }
      ],
      "stateMutability": "view",
      "type": "function"
    },
    {
      "inputs": [],
      "name": "owner",
      "outputs": [
        {
          "internalType": "address",
          "name": "",
          "type": "address"
        }
      ],
      "stateMutability": "view",
      "type": "function"
    },
    {
      "inputs": [],
      "name": "receiver",
      "outputs": [
        {
          "internalType": "address",
          "name": "",
          "type": "address"
        }
      ],
      "stateMutability": "view",
      "type": "function"
    },
    {
      "inputs": [],
      "name": "renounceOwnership",
      "outputs": [],
      "stateMutability": "nonpayable",
      "type": "function"
    },
    {
      "inputs": [
        {
          "internalType": "address",
          "name": "",
          "type": "address"
        }
      ],
      "name": "royaltiesSet",
      "outputs": [
        {
          "internalType": "bool",
          "name": "isSet",
          "type": "bool"
        },
        {
          "internalType": "uint96",
          "name": "royaltyRateForCollection",
          "type": "uint96"
        },
        {
          "internalType": "address",
          "name": "royaltyReceiver",
          "type": "address"
        }
      ],
      "stateMutability": "view",
      "type": "function"
    },
    {
      "inputs": [
        {
          "internalType": "address",
          "name": "_token",
          "type": "address"
        },
        {
          "internalType": "uint96",
          "name": "_royaltyRate",
          "type": "uint96"
        },
        {
          "internalType": "address",
          "name": "_royaltyReceiver",
          "type": "address"
        }
      ],
      "name": "setRoyaltyRateForCollection",
      "outputs": [],
      "stateMutability": "nonpayable",
      "type": "function"
    },
    {
      "inputs": [
        {
          "internalType": "address[]",
          "name": "_tokens",
          "type": "address[]"
        },
        {
          "internalType": "uint96[]",
          "name": "_royaltyRates",
          "type": "uint96[]"
        },
        {
          "internalType": "address[]",
          "name": "_royaltyReceivers",
          "type": "address[]"
        }
      ],
      "name": "setRoyaltyRateForCollections",
      "outputs": [],
      "stateMutability": "nonpayable",
      "type": "function"
    },
    {
      "inputs": [
        {
          "internalType": "address",
          "name": "newOwner",
          "type": "address"
        }
      ],
      "name": "transferOwnership",
      "outputs": [],
      "stateMutability": "nonpayable",
      "type": "function"
    }
  ],
  "transactionHash": "0x8086b8befa58a262f11553234c68b56821b6cd7a2d96379ff5e87c4c8c656fcc",
  "args": [],
  "numDeployments": 1,
  "solcInputHash": "9381aeaa2b69a43b40bf7fd95f43addc",
  "bytecode": "0x608060405234801561001057600080fd5b50610e2f806100206000396000f3fe608060405234801561001057600080fd5b50600436106100f55760003560e01c8063715018a611610097578063d7ef940911610066578063d7ef940914610271578063f2a4137414610284578063f2fde38b14610297578063f7260d3e146102aa57600080fd5b8063715018a61461023c5780637b2e7008146102445780638ce6467d1461024d5780638da5cb5b1461026057600080fd5b80633e6425db116100d35780633e6425db146101d65780634925536e14610201578063547e3f0614610216578063647a5c851461022957600080fd5b80630431c7ef146100fa5780631f08b6481461012a578063376a06f41461019c575b600080fd5b60675461010d906001600160a01b031681565b6040516001600160a01b0390911681526020015b60405180910390f35b61016e610138366004610c64565b6065602052600090815260409020805460019091015460ff82169161010090046001600160601b0316906001600160a01b031683565b6040805193151584526001600160601b0390921660208401526001600160a01b031690820152606001610121565b6101af6101aa366004610c64565b6102c4565b604080516001600160a01b0390931683526001600160601b03909116602083015201610121565b6066546101e9906001600160601b031681565b6040516001600160601b039091168152602001610121565b61021461020f366004610cf9565b610362565b005b610214610224366004610c64565b6104da565b610214610237366004610cb7565b610578565b6102146105e6565b6101e96103e881565b61021461025b366004610d8f565b6105fa565b6033546001600160a01b031661010d565b61021461027f366004610c64565b6106ab565b610214610292366004610c85565b610733565b6102146102a5366004610c64565b610898565b60665461010d90600160601b90046001600160a01b031681565b6001600160a01b0381811660009081526065602090815260408083208151606081018352815460ff81161515825261010090046001600160601b03169381019390935260010154909316928101839052909182919061033557606654600160601b90046001600160a01b031661033b565b80604001515b8151610352576066546001600160601b0316610358565b81602001515b9250925050915091565b61036a610911565b8483146103be5760405162461bcd60e51b815260206004820152601c60248201527f4d69736d6174636820726f79616c74795261746573206c656e6774680000000060448201526064015b60405180910390fd5b84811461040d5760405162461bcd60e51b815260206004820181905260248201527f4d69736d6174636820726f79616c7479526563656976657273206c656e67746860448201526064016103b5565b60005b858110156104d1576104bf87878381811061043b57634e487b7160e01b600052603260045260246000fd5b90506020020160208101906104509190610c64565b86868481811061047057634e487b7160e01b600052603260045260246000fd5b90506020020160208101906104859190610d8f565b8585858181106104a557634e487b7160e01b600052603260045260246000fd5b90506020020160208101906104ba9190610c64565b61096b565b806104c981610dd2565b915050610410565b50505050505050565b6104e2610911565b6001600160a01b0381166105085760405162461bcd60e51b81526004016103b590610da9565b606680546001600160a01b03838116600160601b9081026001600160601b038416179384905560408051938290048316808552919094049091166020830152917fbda2bcccbfa5ae883ab7d9f03480ab68fe68e9200c9b52c0c47abc21d2c90ec991015b60405180910390a15050565b6033546001600160a01b031633148061059b57506067546001600160a01b031633145b6105d65760405162461bcd60e51b815260206004820152600c60248201526b155b985d5d1a1bdc9a5e995960a21b60448201526064016103b5565b6105e183838361096b565b505050565b6105ee610911565b6105f86000610b21565b565b610602610911565b6103e86001600160601b038216111561064c5760405162461bcd60e51b815260206004820152600c60248201526b496e76616c6964205261746560a01b60448201526064016103b5565b606680546001600160601b038381166bffffffffffffffffffffffff1983168117909355604080519190921680825260208201939093527f7392c3db674e96a805158bdfac5363922c74a8241afb1eedc887ec13d02f5213910161056c565b6106b3610911565b6001600160a01b0381166106d95760405162461bcd60e51b81526004016103b590610da9565b606780546001600160a01b038381166001600160a01b031983168117909355604080519190921680825260208201939093527f51ef4f53c3dd1a65db829ec538a7e8bc41f56ed6e583b5e24e43986223a11ed2910161056c565b600054610100900460ff16158080156107535750600054600160ff909116105b8061076d5750303b15801561076d575060005460ff166001145b6107d05760405162461bcd60e51b815260206004820152602e60248201527f496e697469616c697a61626c653a20636f6e747261637420697320616c72656160448201526d191e481a5b9a5d1a585b1a5e995960921b60648201526084016103b5565b6000805460ff1916600117905580156107f3576000805461ff0019166101001790555b6001600160a01b0383166108195760405162461bcd60e51b81526004016103b590610da9565b6001600160601b0382166001600160a01b038416600160601b026bffffffffffffffffffffffff19161760665561084e610b73565b80156105e1576000805461ff0019169055604051600181527f7f26b83ff96e1f2b6a682f133852f6798a09c465da95921460cefb38474024989060200160405180910390a1505050565b6108a0610911565b6001600160a01b0381166109055760405162461bcd60e51b815260206004820152602660248201527f4f776e61626c653a206e6577206f776e657220697320746865207a65726f206160448201526564647265737360d01b60648201526084016103b5565b61090e81610b21565b50565b6033546001600160a01b031633146105f85760405162461bcd60e51b815260206004820181905260248201527f4f776e61626c653a2063616c6c6572206973206e6f7420746865206f776e657260448201526064016103b5565b6001600160a01b0383166109b15760405162461bcd60e51b815260206004820152600d60248201526c24b73b30b634b2103a37b5b2b760991b60448201526064016103b5565b6001600160a01b038116610a075760405162461bcd60e51b815260206004820152601860248201527f496e76616c69642072656365697665722061646472657373000000000000000060448201526064016103b5565b6103e86001600160601b0383161115610a515760405162461bcd60e51b815260206004820152600c60248201526b496e76616c6964205261746560a01b60448201526064016103b5565b6040805160608101825260018082526001600160601b0385811660208085018281526001600160a01b038881168789019081528b82166000818152606586528a90208951815495516cffffffffffffffffffffffffff199096169015156cffffffffffffffffffffffff001916176101009590981694909402969096178355519190950180546001600160a01b0319169190951617909355935193845291927f25b3ff953c8d46ef87728ec49843598f7f7586628c5012d65cbd1c68c156a298910160405180910390a250505050565b603380546001600160a01b038381166001600160a01b0319831681179093556040519116919082907f8be0079c531659141344cd1fd0a4f28419497f9722a3daafe3b4186f6b6457e090600090a35050565b600054610100900460ff16610bde5760405162461bcd60e51b815260206004820152602b60248201527f496e697469616c697a61626c653a20636f6e7472616374206973206e6f74206960448201526a6e697469616c697a696e6760a81b60648201526084016103b5565b6105f833610b21565b80356001600160a01b0381168114610bfe57600080fd5b919050565b60008083601f840112610c14578182fd5b50813567ffffffffffffffff811115610c2b578182fd5b6020830191508360208260051b8501011115610c4657600080fd5b9250929050565b80356001600160601b0381168114610bfe57600080fd5b600060208284031215610c75578081fd5b610c7e82610be7565b9392505050565b60008060408385031215610c97578081fd5b610ca083610be7565b9150610cae60208401610c4d565b90509250929050565b600080600060608486031215610ccb578081fd5b610cd484610be7565b9250610ce260208501610c4d565b9150610cf060408501610be7565b90509250925092565b60008060008060008060608789031215610d11578182fd5b863567ffffffffffffffff80821115610d28578384fd5b610d348a838b01610c03565b90985096506020890135915080821115610d4c578384fd5b610d588a838b01610c03565b90965094506040890135915080821115610d70578384fd5b50610d7d89828a01610c03565b979a9699509497509295939492505050565b600060208284031215610da0578081fd5b610c7e82610c4d565b6020808252600f908201526e496e76616c6964206164647265737360881b604082015260600190565b6000600019821415610df257634e487b7160e01b81526011600452602481fd5b506001019056fea264697066735822122000d738096c18ed2130de83e8166f1e5e5e842f950aaa4a3eaf85c7f0926189e964736f6c63430008040033",
  "devdoc": {
    "events": {
      "RoyaltySetForCollection(address,uint96)": {
        "details": "emitted when royalties set for token."
      }
    },
    "kind": "dev",
    "methods": {
      "changeDefaultRoyaltyRatePercentage(uint96)": {
        "details": "setter for defaultRoyaltyRatePercentage",
        "params": {
          "_newDefaultRate": "new default rate for royalty."
        }
      },
      "changeModelFactory(address)": {
        "details": "setter for model factory address.",
        "params": {
          "_newModelFactory": "new Receiver address"
        }
      },
      "changeReceiver(address)": {
        "details": "setter for receiver address.",
        "params": {
          "_newReceiver": "new Receiver address"
        }
      },
      "getRoyaltyInfo(address)": {
        "details": "royalty info for specific token / collection.It will return custom rate for the token, otherwise will return the default one.",
        "params": {
          "_token": "address of token / collection."
        },
        "returns": {
          "_receiver": "receiver address.",
          "_royaltyRatePercentage": "royalty rate percentage."
        }
      },
      "initialize(address,uint96)": {
        "params": {
          "_defaultRateRoyaltyPercentage": "default royalty percentage.",
          "_receiver": "receiver address."
        }
      },
      "owner()": {
        "details": "Returns the address of the current owner."
      },
      "renounceOwnership()": {
        "details": "Leaves the contract without owner. It will not be possible to call `onlyOwner` functions anymore. Can only be called by the current owner. NOTE: Renouncing ownership will leave the contract without an owner, thereby removing any functionality that is only available to the owner."
      },
      "setRoyaltyRateForCollection(address,uint96,address)": {
        "details": "set royalty rate for specific collection. Support multiple set. The length of array between tokens & rates must exactly the same.",
        "params": {
          "_royaltyRate": "royalty rate.",
          "_token": "token address."
        }
      },
      "setRoyaltyRateForCollections(address[],uint96[],address[])": {
        "details": "set royalty rate for specific collection. Support multiple set. The length of array between tokens & rates must exactly the same.",
        "params": {
          "_royaltyRates": "array of royalty rates.",
          "_tokens": "array of token address."
        }
      },
      "transferOwnership(address)": {
        "details": "Transfers ownership of the contract to a new account (`newOwner`). Can only be called by the current owner."
      }
    },
    "version": 1
  },
  "userdoc": {
    "kind": "user",
    "methods": {
      "changeDefaultRoyaltyRatePercentage(uint96)": {
        "notice": "the deafult royalty rate can be 0."
      },
      "initialize(address,uint96)": {
        "notice": "Initialization for upgradeable contract."
      },
      "setRoyaltyRateForCollection(address,uint96,address)": {
        "notice": "the rate will be applied to all of token ids inside the collection.Owner or factory can perform this function call."
      },
      "setRoyaltyRateForCollections(address[],uint96[],address[])": {
        "notice": "the rate will be applied to all of token ids inside the collection.only owner can call the multiple set."
      }
    },
    "version": 1
  },
  "storageLayout": {
    "storage": [
      {
        "astId": 138,
        "contract": "contracts/royalty/RoyaltyRegistry.sol:RoyaltyRegistry",
        "label": "_initialized",
        "offset": 0,
        "slot": "0",
        "type": "t_uint8"
      },
      {
        "astId": 141,
        "contract": "contracts/royalty/RoyaltyRegistry.sol:RoyaltyRegistry",
        "label": "_initializing",
        "offset": 1,
        "slot": "0",
        "type": "t_bool"
      },
      {
        "astId": 566,
        "contract": "contracts/royalty/RoyaltyRegistry.sol:RoyaltyRegistry",
        "label": "__gap",
        "offset": 0,
        "slot": "1",
        "type": "t_array(t_uint256)50_storage"
      },
      {
        "astId": 10,
        "contract": "contracts/royalty/RoyaltyRegistry.sol:RoyaltyRegistry",
        "label": "_owner",
        "offset": 0,
        "slot": "51",
        "type": "t_address"
      },
      {
        "astId": 130,
        "contract": "contracts/royalty/RoyaltyRegistry.sol:RoyaltyRegistry",
        "label": "__gap",
        "offset": 0,
        "slot": "52",
        "type": "t_array(t_uint256)49_storage"
      },
      {
        "astId": 3930,
        "contract": "contracts/royalty/RoyaltyRegistry.sol:RoyaltyRegistry",
        "label": "royaltiesSet",
        "offset": 0,
        "slot": "101",
        "type": "t_mapping(t_address,t_struct(RoyaltySet)3924_storage)"
      },
      {
        "astId": 3933,
        "contract": "contracts/royalty/RoyaltyRegistry.sol:RoyaltyRegistry",
        "label": "defaultRoyaltyRatePercentage",
        "offset": 0,
        "slot": "102",
        "type": "t_uint96"
      },
      {
        "astId": 3936,
        "contract": "contracts/royalty/RoyaltyRegistry.sol:RoyaltyRegistry",
        "label": "receiver",
        "offset": 12,
        "slot": "102",
        "type": "t_address"
      },
      {
        "astId": 3939,
        "contract": "contracts/royalty/RoyaltyRegistry.sol:RoyaltyRegistry",
        "label": "modelFactory",
        "offset": 0,
        "slot": "103",
        "type": "t_address"
      }
    ],
    "types": {
      "t_address": {
        "encoding": "inplace",
        "label": "address",
        "numberOfBytes": "20"
      },
      "t_array(t_uint256)49_storage": {
        "base": "t_uint256",
        "encoding": "inplace",
        "label": "uint256[49]",
        "numberOfBytes": "1568"
      },
      "t_array(t_uint256)50_storage": {
        "base": "t_uint256",
        "encoding": "inplace",
        "label": "uint256[50]",
        "numberOfBytes": "1600"
      },
      "t_bool": {
        "encoding": "inplace",
        "label": "bool",
        "numberOfBytes": "1"
      },
      "t_mapping(t_address,t_struct(RoyaltySet)3924_storage)": {
        "encoding": "mapping",
        "key": "t_address",
        "label": "mapping(address => struct RoyaltyStorage.RoyaltySet)",
        "numberOfBytes": "32",
        "value": "t_struct(RoyaltySet)3924_storage"
      },
      "t_struct(RoyaltySet)3924_storage": {
        "encoding": "inplace",
        "label": "struct RoyaltyStorage.RoyaltySet",
        "members": [
          {
            "astId": 3919,
            "contract": "contracts/royalty/RoyaltyRegistry.sol:RoyaltyRegistry",
            "label": "isSet",
            "offset": 0,
            "slot": "0",
            "type": "t_bool"
          },
          {
            "astId": 3921,
            "contract": "contracts/royalty/RoyaltyRegistry.sol:RoyaltyRegistry",
            "label": "royaltyRateForCollection",
            "offset": 1,
            "slot": "0",
            "type": "t_uint96"
          },
          {
            "astId": 3923,
            "contract": "contracts/royalty/RoyaltyRegistry.sol:RoyaltyRegistry",
            "label": "royaltyReceiver",
            "offset": 0,
            "slot": "1",
            "type": "t_address"
          }
        ],
        "numberOfBytes": "64"
      },
      "t_uint256": {
        "encoding": "inplace",
        "label": "uint256",
        "numberOfBytes": "32"
      },
      "t_uint8": {
        "encoding": "inplace",
        "label": "uint8",
        "numberOfBytes": "1"
      },
      "t_uint96": {
        "encoding": "inplace",
        "label": "uint96",
        "numberOfBytes": "12"
      }
    }
  }
}