{
  "address": "0xa28a6Aa0A1a310a678C134Dc54c4beE56B15532f",
  "abi": [
    {
      "inputs": [],
      "stateMutability": "nonpayable",
      "type": "constructor"
    },
    {
      "anonymous": false,
      "inputs": [
        {
          "indexed": false,
          "internalType": "uint256",
          "name": "_formulaType",
          "type": "uint256"
        },
        {
          "indexed": false,
          "internalType": "uint256",
          "name": "_price",
          "type": "uint256"
        }
      ],
      "name": "FormulaPriceUpdated",
      "type": "event"
    },
    {
      "anonymous": false,
      "inputs": [
        {
          "indexed": false,
          "internalType": "uint8",
          "name": "version",
          "type": "uint8"
        }
      ],
      "name": "Initialized",
      "type": "event"
    },
    {
      "anonymous": false,
      "inputs": [
        {
          "indexed": true,
          "internalType": "address",
          "name": "previousOwner",
          "type": "address"
        },
        {
          "indexed": true,
          "internalType": "address",
          "name": "newOwner",
          "type": "address"
        }
      ],
      "name": "OwnershipTransferred",
      "type": "event"
    },
    {
      "stateMutability": "nonpayable",
      "type": "fallback"
    },
    {
      "inputs": [],
      "name": "FORMULA_TYPE_1",
      "outputs": [
        {
          "internalType": "uint256",
          "name": "",
          "type": "uint256"
        }
      ],
      "stateMutability": "view",
      "type": "function"
    },
    {
      "inputs": [
        {
          "internalType": "uint256",
          "name": "",
          "type": "uint256"
        }
      ],
      "name": "formulaPrices",
      "outputs": [
        {
          "internalType": "uint256",
          "name": "",
          "type": "uint256"
        }
      ],
      "stateMutability": "view",
      "type": "function"
    },
    {
      "inputs": [
        {
          "internalType": "uint256",
          "name": "_formulaType",
          "type": "uint256"
        },
        {
          "internalType": "address",
          "name": "_collectionAddress",
          "type": "address"
        }
      ],
      "name": "getTokenPrice",
      "outputs": [
        {
          "internalType": "uint256",
          "name": "",
          "type": "uint256"
        }
      ],
      "stateMutability": "view",
      "type": "function"
    },
    {
      "inputs": [],
      "name": "initialize",
      "outputs": [],
      "stateMutability": "nonpayable",
      "type": "function"
    },
    {
      "inputs": [],
      "name": "owner",
      "outputs": [
        {
          "internalType": "address",
          "name": "",
          "type": "address"
        }
      ],
      "stateMutability": "view",
      "type": "function"
    },
    {
      "inputs": [],
      "name": "renounceOwnership",
      "outputs": [],
      "stateMutability": "nonpayable",
      "type": "function"
    },
    {
      "inputs": [
        {
          "internalType": "uint256",
          "name": "_formulaType",
          "type": "uint256"
        },
        {
          "internalType": "uint256",
          "name": "_price",
          "type": "uint256"
        }
      ],
      "name": "setFormulaPrices",
      "outputs": [],
      "stateMutability": "nonpayable",
      "type": "function"
    },
    {
      "inputs": [
        {
          "internalType": "address",
          "name": "newOwner",
          "type": "address"
        }
      ],
      "name": "transferOwnership",
      "outputs": [],
      "stateMutability": "nonpayable",
      "type": "function"
    }
  ],
  "transactionHash": "0x75527bfb54e972162b9b09dfa9d256c759ebec8f0f2de4723c572359b19a7e90",
  "args": [],
  "numDeployments": 1,
  "solcInputHash": "bf248a819f0c7f719e8885b85dfe9aca",
  "bytecode": "0x608060405234801561001057600080fd5b5061064c806100206000396000f3fe608060405234801561001057600080fd5b50600436106100855760003560e01c806387e320e41161005857806387e320e4146100dd5780638da5cb5b146100f0578063cdef2ea21461010b578063f2fde38b1461011357005b806369b1f967146100875780636e1761b41461009a578063715018a6146100cd5780638129fc1c146100d5575b005b6100856100953660046105f5565b610126565b6100ba6100a83660046105b2565b60656020526000908152604090205481565b6040519081526020015b60405180910390f35b6100856101cf565b6100856101e3565b6100ba6100eb3660046105ca565b6102f4565b6033546040516001600160a01b0390911681526020016100c4565b6100ba600181565b610085610121366004610591565b6103df565b61012e610455565b816101805760405162461bcd60e51b815260206004820152601a60248201527f666f726d756c613a207a65726f20666f726d756c61207479706500000000000060448201526064015b60405180910390fd5b60008281526065602090815260409182902083905581518481529081018390527f75d0e5ad3e2a5997057d9708ea309f9d36d318dac0cd4b5887066a5c4bd1cc49910160405180910390a15050565b6101d7610455565b6101e160006104af565b565b600054610100900460ff16158080156102035750600054600160ff909116105b8061021d5750303b15801561021d575060005460ff166001145b6102805760405162461bcd60e51b815260206004820152602e60248201527f496e697469616c697a61626c653a20636f6e747261637420697320616c72656160448201526d191e481a5b9a5d1a585b1a5e995960921b6064820152608401610177565b6000805460ff1916600117905580156102a3576000805461ff0019166101001790555b6102ab610501565b80156102f1576000805461ff0019169055604051600181527f7f26b83ff96e1f2b6a682f133852f6798a09c465da95921460cefb38474024989060200160405180910390a15b50565b60006001600160a01b03821661034c5760405162461bcd60e51b815260206004820181905260248201527f666f726d756c613a207a65726f20636f6c6c656374696f6e20616464726573736044820152606401610177565b60018314156103875750600160005260656020527f4d5a9bd2e41301728d41c8e705190becb4e74abe869f75bdb405b63716a35f9e546103d9565b60405162461bcd60e51b815260206004820152602160248201527f666f726d756c613a20756e737570706f7274656420666f726d756c61207479706044820152606560f81b6064820152608401610177565b92915050565b6103e7610455565b6001600160a01b03811661044c5760405162461bcd60e51b815260206004820152602660248201527f4f776e61626c653a206e6577206f776e657220697320746865207a65726f206160448201526564647265737360d01b6064820152608401610177565b6102f1816104af565b6033546001600160a01b031633146101e15760405162461bcd60e51b815260206004820181905260248201527f4f776e61626c653a2063616c6c6572206973206e6f7420746865206f776e65726044820152606401610177565b603380546001600160a01b038381166001600160a01b0319831681179093556040519116919082907f8be0079c531659141344cd1fd0a4f28419497f9722a3daafe3b4186f6b6457e090600090a35050565b600054610100900460ff1661056c5760405162461bcd60e51b815260206004820152602b60248201527f496e697469616c697a61626c653a20636f6e7472616374206973206e6f74206960448201526a6e697469616c697a696e6760a81b6064820152608401610177565b6101e1336104af565b80356001600160a01b038116811461058c57600080fd5b919050565b6000602082840312156105a2578081fd5b6105ab82610575565b9392505050565b6000602082840312156105c3578081fd5b5035919050565b600080604083850312156105dc578081fd5b823591506105ec60208401610575565b90509250929050565b60008060408385031215610607578182fd5b5050803592602090910135915056fea26469706673582212208840c35ea7b8a4f1f41539fe86ebcc780984b10b6dd02f605d852d24ddafbb5164736f6c63430008040033",
  "devdoc": {
    "kind": "dev",
    "methods": {
      "owner()": {
        "details": "Returns the address of the current owner."
      },
      "renounceOwnership()": {
        "details": "Leaves the contract without owner. It will not be possible to call `onlyOwner` functions anymore. Can only be called by the current owner. NOTE: Renouncing ownership will leave the contract without an owner, thereby removing any functionality that is only available to the owner."
      },
      "transferOwnership(address)": {
        "details": "Transfers ownership of the contract to a new account (`newOwner`). Can only be called by the current owner."
      }
    },
    "version": 1
  },
  "userdoc": {
    "events": {
      "FormulaPriceUpdated(uint256,uint256)": {
        "notice": "EVENTS "
      }
    },
    "kind": "user",
    "methods": {
      "FORMULA_TYPE_1()": {
        "notice": "DON\"T ADD ADDITIONAL STORAGE HERE EXCEPT CONSTANT "
      },
      "formulaPrices(uint256)": {
        "notice": "mapping formula type with price (constant number) "
      }
    },
    "version": 1
  },
  "storageLayout": {
    "storage": [
      {
        "astId": 138,
        "contract": "contracts/price/NFTPriceFormula.sol:NFTPriceFormula",
        "label": "_initialized",
        "offset": 0,
        "slot": "0",
        "type": "t_uint8"
      },
      {
        "astId": 141,
        "contract": "contracts/price/NFTPriceFormula.sol:NFTPriceFormula",
        "label": "_initializing",
        "offset": 1,
        "slot": "0",
        "type": "t_bool"
      },
      {
        "astId": 566,
        "contract": "contracts/price/NFTPriceFormula.sol:NFTPriceFormula",
        "label": "__gap",
        "offset": 0,
        "slot": "1",
        "type": "t_array(t_uint256)50_storage"
      },
      {
        "astId": 10,
        "contract": "contracts/price/NFTPriceFormula.sol:NFTPriceFormula",
        "label": "_owner",
        "offset": 0,
        "slot": "51",
        "type": "t_address"
      },
      {
        "astId": 130,
        "contract": "contracts/price/NFTPriceFormula.sol:NFTPriceFormula",
        "label": "__gap",
        "offset": 0,
        "slot": "52",
        "type": "t_array(t_uint256)49_storage"
      },
      {
        "astId": 4801,
        "contract": "contracts/price/NFTPriceFormula.sol:NFTPriceFormula",
        "label": "formulaPrices",
        "offset": 0,
        "slot": "101",
        "type": "t_mapping(t_uint256,t_uint256)"
      }
    ],
    "types": {
      "t_address": {
        "encoding": "inplace",
        "label": "address",
        "numberOfBytes": "20"
      },
      "t_array(t_uint256)49_storage": {
        "base": "t_uint256",
        "encoding": "inplace",
        "label": "uint256[49]",
        "numberOfBytes": "1568"
      },
      "t_array(t_uint256)50_storage": {
        "base": "t_uint256",
        "encoding": "inplace",
        "label": "uint256[50]",
        "numberOfBytes": "1600"
      },
      "t_bool": {
        "encoding": "inplace",
        "label": "bool",
        "numberOfBytes": "1"
      },
      "t_mapping(t_uint256,t_uint256)": {
        "encoding": "mapping",
        "key": "t_uint256",
        "label": "mapping(uint256 => uint256)",
        "numberOfBytes": "32",
        "value": "t_uint256"
      },
      "t_uint256": {
        "encoding": "inplace",
        "label": "uint256",
        "numberOfBytes": "32"
      },
      "t_uint8": {
        "encoding": "inplace",
        "label": "uint8",
        "numberOfBytes": "1"
      }
    }
  }
}