{
  "address": "0xd4a831c0d31027d198dc3d93650c03a5fff00b6f",
  "abi": [
    {
      "anonymous": false,
      "inputs": [
        {
          "indexed": false,
          "internalType": "uint8",
          "name": "version",
          "type": "uint8"
        }
      ],
      "name": "Initialized",
      "type": "event"
    },
    {
      "anonymous": false,
      "inputs": [
        {
          "indexed": true,
          "internalType": "string",
          "name": "modelID",
          "type": "string"
        },
        {
          "indexed": false,
          "internalType": "address",
          "name": "modelNFTAddress",
          "type": "address"
        }
      ],
      "name": "NFTCreated",
      "type": "event"
    },
    {
      "anonymous": false,
      "inputs": [
        {
          "indexed": true,
          "internalType": "address",
          "name": "previousOwner",
          "type": "address"
        },
        {
          "indexed": true,
          "internalType": "address",
          "name": "newOwner",
          "type": "address"
        }
      ],
      "name": "OwnershipTransferred",
      "type": "event"
    },
    {
      "inputs": [
        {
          "internalType": "string",
          "name": "_modelName",
          "type": "string"
        },
        {
          "internalType": "string",
          "name": "_modelID",
          "type": "string"
        },
        {
          "internalType": "address",
          "name": "_designer",
          "type": "address"
        },
        {
          "internalType": "address",
          "name": "_manager",
          "type": "address"
        },
        {
          "internalType": "address",
          "name": "_signer",
          "type": "address"
        },
        {
          "internalType": "address",
          "name": "_royaltyRegistry",
          "type": "address"
        },
        {
          "internalType": "uint256",
          "name": "_mintLimit",
          "type": "uint256"
        }
      ],
      "name": "createModelNFT",
      "outputs": [],
      "stateMutability": "nonpayable",
      "type": "function"
    },
    {
      "inputs": [],
      "name": "initialize",
      "outputs": [],
      "stateMutability": "nonpayable",
      "type": "function"
    },
    {
      "inputs": [
        {
          "internalType": "string",
          "name": "",
          "type": "string"
        }
      ],
      "name": "modelNFTs",
      "outputs": [
        {
          "internalType": "address",
          "name": "",
          "type": "address"
        }
      ],
      "stateMutability": "view",
      "type": "function"
    },
    {
      "inputs": [],
      "name": "owner",
      "outputs": [
        {
          "internalType": "address",
          "name": "",
          "type": "address"
        }
      ],
      "stateMutability": "view",
      "type": "function"
    },
    {
      "inputs": [],
      "name": "renounceOwnership",
      "outputs": [],
      "stateMutability": "nonpayable",
      "type": "function"
    },
    {
      "inputs": [
        {
          "internalType": "address",
          "name": "newOwner",
          "type": "address"
        }
      ],
      "name": "transferOwnership",
      "outputs": [],
      "stateMutability": "nonpayable",
      "type": "function"
    }
  ],
  "transactionHash": "0x7fea1e92140ff306ed2407eb1ce4c27649463580082eadb85cff28a746a73d34",
  "args": [],
  "numDeployments": 1,
  "solcInputHash": "f420c5192ba7b774d56868d053171d7d",
  "bytecode": "0x608060405234801561001057600080fd5b50615856806100206000396000f3fe60806040523480156200001157600080fd5b50600436106200006a5760003560e01c8063715018a6146200006f5780638129fc1c146200007b5780638da5cb5b1462000087578063df9ce00214620000a9578063f2fde38b14620000df578063f46cf81d14620000ff575b600080fd5b620000796200011f565b005b6200008562000137565b005b6200009162000283565b604051620000a0919062000b85565b60405180910390f35b620000c76004803603810190620000c19190620008b3565b620002ad565b604051620000d6919062000b85565b60405180910390f35b620000fd6004803603810190620000f7919062000887565b620002f6565b005b6200011d6004803603810190620001179190620008f8565b62000381565b005b62000129620005fb565b62000135600062000680565b565b60008060019054906101000a900460ff16159050808015620001695750600160008054906101000a900460ff1660ff16105b806200019a57506200017b3062000746565b158015620001995750600160008054906101000a900460ff1660ff16145b5b620001dc576040517f08c379a0000000000000000000000000000000000000000000000000000000008152600401620001d39062000c8e565b60405180910390fd5b60016000806101000a81548160ff021916908360ff16021790555080156200021a576001600060016101000a81548160ff0219169083151502179055505b6200022462000769565b8015620002805760008060016101000a81548160ff0219169083151502179055507f7f26b83ff96e1f2b6a682f133852f6798a09c465da95921460cefb3847402498600160405162000277919062000ba2565b60405180910390a15b50565b6000603360009054906101000a900473ffffffffffffffffffffffffffffffffffffffff16905090565b6066818051602081018201805184825260208301602085012081835280955050505050506000915054906101000a900473ffffffffffffffffffffffffffffffffffffffff1681565b62000300620005fb565b600073ffffffffffffffffffffffffffffffffffffffff168173ffffffffffffffffffffffffffffffffffffffff16141562000373576040517f08c379a00000000000000000000000000000000000000000000000000000000081526004016200036a9062000c4a565b60405180910390fd5b6200037e8162000680565b50565b60008111620003c7576040517f08c379a0000000000000000000000000000000000000000000000000000000008152600401620003be9062000c6c565b60405180910390fd5b600073ffffffffffffffffffffffffffffffffffffffff16606687604051620003f1919062000b6c565b908152602001604051809103902060009054906101000a900473ffffffffffffffffffffffffffffffffffffffff1673ffffffffffffffffffffffffffffffffffffffff161462000479576040517f08c379a0000000000000000000000000000000000000000000000000000000008152600401620004709062000cf4565b60405180910390fd5b868682878787876040516200048e90620007d9565b620004a0979695949392919062000bbf565b604051809103906000f080158015620004bd573d6000803e3d6000fd5b50606560006101000a81548173ffffffffffffffffffffffffffffffffffffffff021916908373ffffffffffffffffffffffffffffffffffffffff160217905550606560009054906101000a900473ffffffffffffffffffffffffffffffffffffffff1660668760405162000533919062000b6c565b908152602001604051809103902060006101000a81548173ffffffffffffffffffffffffffffffffffffffff021916908373ffffffffffffffffffffffffffffffffffffffff160217905550856040516200058f919062000b6c565b60405180910390207fe6248a7d8f06d4dc9c3d4c896b3462838d9c7422ecf0b07df2de587aca9ebab2606560009054906101000a900473ffffffffffffffffffffffffffffffffffffffff16604051620005ea919062000b85565b60405180910390a250505050505050565b62000605620007d1565b73ffffffffffffffffffffffffffffffffffffffff166200062562000283565b73ffffffffffffffffffffffffffffffffffffffff16146200067e576040517f08c379a0000000000000000000000000000000000000000000000000000000008152600401620006759062000cb0565b60405180910390fd5b565b6000603360009054906101000a900473ffffffffffffffffffffffffffffffffffffffff16905081603360006101000a81548173ffffffffffffffffffffffffffffffffffffffff021916908373ffffffffffffffffffffffffffffffffffffffff1602179055508173ffffffffffffffffffffffffffffffffffffffff168173ffffffffffffffffffffffffffffffffffffffff167f8be0079c531659141344cd1fd0a4f28419497f9722a3daafe3b4186f6b6457e060405160405180910390a35050565b6000808273ffffffffffffffffffffffffffffffffffffffff163b119050919050565b600060019054906101000a900460ff16620007bb576040517f08c379a0000000000000000000000000000000000000000000000000000000008152600401620007b29062000cd2565b60405180910390fd5b620007cf620007c9620007d1565b62000680565b565b600033905090565b6147ce806200105383390190565b6000620007fe620007f88462000d3f565b62000d16565b9050828152602081018484840111156200081757600080fd5b6200082484828562000dfb565b509392505050565b6000813590506200083d816200101e565b92915050565b600082601f8301126200085557600080fd5b813562000867848260208601620007e7565b91505092915050565b600081359050620008818162001038565b92915050565b6000602082840312156200089a57600080fd5b6000620008aa848285016200082c565b91505092915050565b600060208284031215620008c657600080fd5b600082013567ffffffffffffffff811115620008e157600080fd5b620008ef8482850162000843565b91505092915050565b600080600080600080600060e0888a0312156200091457600080fd5b600088013567ffffffffffffffff8111156200092f57600080fd5b6200093d8a828b0162000843565b975050602088013567ffffffffffffffff8111156200095b57600080fd5b620009698a828b0162000843565b96505060406200097c8a828b016200082c565b95505060606200098f8a828b016200082c565b9450506080620009a28a828b016200082c565b93505060a0620009b58a828b016200082c565b92505060c0620009c88a828b0162000870565b91505092959891949750929550565b620009e28162000d9c565b82525050565b620009f38162000de7565b82525050565b600062000a068262000d75565b62000a12818562000d80565b935062000a2481856020860162000e0a565b62000a2f8162000ea5565b840191505092915050565b600062000a478262000d75565b62000a53818562000d91565b935062000a6581856020860162000e0a565b80840191505092915050565b600062000a8060268362000d80565b915062000a8d8262000eb6565b604082019050919050565b600062000aa760128362000d80565b915062000ab48262000f05565b602082019050919050565b600062000ace602e8362000d80565b915062000adb8262000f2e565b604082019050919050565b600062000af560208362000d80565b915062000b028262000f7d565b602082019050919050565b600062000b1c602b8362000d80565b915062000b298262000fa6565b604082019050919050565b600062000b4360168362000d80565b915062000b508262000ff5565b602082019050919050565b62000b668162000dd0565b82525050565b600062000b7a828462000a3a565b915081905092915050565b600060208201905062000b9c6000830184620009d7565b92915050565b600060208201905062000bb96000830184620009e8565b92915050565b600060e082019050818103600083015262000bdb818a620009f9565b9050818103602083015262000bf18189620009f9565b905062000c02604083018862000b5b565b62000c116060830187620009d7565b62000c206080830186620009d7565b62000c2f60a0830185620009d7565b62000c3e60c0830184620009d7565b98975050505050505050565b6000602082019050818103600083015262000c658162000a71565b9050919050565b6000602082019050818103600083015262000c878162000a98565b9050919050565b6000602082019050818103600083015262000ca98162000abf565b9050919050565b6000602082019050818103600083015262000ccb8162000ae6565b9050919050565b6000602082019050818103600083015262000ced8162000b0d565b9050919050565b6000602082019050818103600083015262000d0f8162000b34565b9050919050565b600062000d2262000d35565b905062000d30828262000e40565b919050565b6000604051905090565b600067ffffffffffffffff82111562000d5d5762000d5c62000e76565b5b62000d688262000ea5565b9050602081019050919050565b600081519050919050565b600082825260208201905092915050565b600081905092915050565b600062000da98262000db0565b9050919050565b600073ffffffffffffffffffffffffffffffffffffffff82169050919050565b6000819050919050565b600060ff82169050919050565b600062000df48262000dda565b9050919050565b82818337600083830152505050565b60005b8381101562000e2a57808201518184015260208101905062000e0d565b8381111562000e3a576000848401525b50505050565b62000e4b8262000ea5565b810181811067ffffffffffffffff8211171562000e6d5762000e6c62000e76565b5b80604052505050565b7f4e487b7100000000000000000000000000000000000000000000000000000000600052604160045260246000fd5b6000601f19601f8301169050919050565b7f4f776e61626c653a206e6577206f776e657220697320746865207a65726f206160008201527f6464726573730000000000000000000000000000000000000000000000000000602082015250565b7f496e76616c6964206d696e74206c696d69740000000000000000000000000000600082015250565b7f496e697469616c697a61626c653a20636f6e747261637420697320616c72656160008201527f647920696e697469616c697a6564000000000000000000000000000000000000602082015250565b7f4f776e61626c653a2063616c6c6572206973206e6f7420746865206f776e6572600082015250565b7f496e697469616c697a61626c653a20636f6e7472616374206973206e6f74206960008201527f6e697469616c697a696e67000000000000000000000000000000000000000000602082015250565b7f4d6f64656c20494420686173206265656e207573656400000000000000000000600082015250565b620010298162000d9c565b81146200103557600080fd5b50565b620010438162000dd0565b81146200104f57600080fd5b5056fe60806040523480156200001157600080fd5b50604051620047ce380380620047ce8339818101604052810190620000379190620003de565b86868160049080519060200190620000519291906200028e565b5080600590805190602001906200006a9291906200028e565b506200007b6200026660201b60201c565b600281905550505062000099816200026b60201b62001e681760201c565b620000db576040517f08c379a0000000000000000000000000000000000000000000000000000000008152600401620000d2906200052d565b60405180910390fd5b600073ffffffffffffffffffffffffffffffffffffffff168273ffffffffffffffffffffffffffffffffffffffff1614156200014e576040517f08c379a000000000000000000000000000000000000000000000000000000000815260040162000145906200050b565b60405180910390fd5b84600a8190555083600c60006101000a81548173ffffffffffffffffffffffffffffffffffffffff021916908373ffffffffffffffffffffffffffffffffffffffff16021790555082600d60006101000a81548173ffffffffffffffffffffffffffffffffffffffff021916908373ffffffffffffffffffffffffffffffffffffffff16021790555081600e60006101000a81548173ffffffffffffffffffffffffffffffffffffffff021916908373ffffffffffffffffffffffffffffffffffffffff16021790555080600f60006101000a81548173ffffffffffffffffffffffffffffffffffffffff021916908373ffffffffffffffffffffffffffffffffffffffff1602179055505050505050505062000794565b600090565b6000808273ffffffffffffffffffffffffffffffffffffffff163b119050919050565b8280546200029c9062000633565b90600052602060002090601f016020900481019282620002c057600085556200030c565b82601f10620002db57805160ff19168380011785556200030c565b828001600101855582156200030c579182015b828111156200030b578251825591602001919060010190620002ee565b5b5090506200031b91906200031f565b5090565b5b808211156200033a57600081600090555060010162000320565b5090565b6000620003556200034f8462000578565b6200054f565b9050828152602081018484840111156200036e57600080fd5b6200037b848285620005fd565b509392505050565b600081519050620003948162000760565b92915050565b600082601f830112620003ac57600080fd5b8151620003be8482602086016200033e565b91505092915050565b600081519050620003d8816200077a565b92915050565b600080600080600080600060e0888a031215620003fa57600080fd5b600088015167ffffffffffffffff8111156200041557600080fd5b620004238a828b016200039a565b975050602088015167ffffffffffffffff8111156200044157600080fd5b6200044f8a828b016200039a565b9650506040620004628a828b01620003c7565b9550506060620004758a828b0162000383565b9450506080620004888a828b0162000383565b93505060a06200049b8a828b0162000383565b92505060c0620004ae8a828b0162000383565b91505092959891949750929550565b6000620004cc601683620005ae565b9150620004d9826200070e565b602082019050919050565b6000620004f3602083620005ae565b9150620005008262000737565b602082019050919050565b600060208201905081810360008301526200052681620004bd565b9050919050565b600060208201905081810360008301526200054881620004e4565b9050919050565b60006200055b6200056e565b905062000569828262000669565b919050565b6000604051905090565b600067ffffffffffffffff821115620005965762000595620006ce565b5b620005a182620006fd565b9050602081019050919050565b600082825260208201905092915050565b6000620005cc82620005d3565b9050919050565b600073ffffffffffffffffffffffffffffffffffffffff82169050919050565b6000819050919050565b60005b838110156200061d57808201518184015260208101905062000600565b838111156200062d576000848401525b50505050565b600060028204905060018216806200064c57607f821691505b602082108114156200066357620006626200069f565b5b50919050565b6200067482620006fd565b810181811067ffffffffffffffff82111715620006965762000695620006ce565b5b80604052505050565b7f4e487b7100000000000000000000000000000000000000000000000000000000600052602260045260246000fd5b7f4e487b7100000000000000000000000000000000000000000000000000000000600052604160045260246000fd5b6000601f19601f8301169050919050565b7f496e76616c6964207369676e6572206164647265737300000000000000000000600082015250565b7f496e76616c696420726f79616c74792072656769737472792061646472657373600082015250565b6200076b81620005bf565b81146200077757600080fd5b50565b6200078581620005f3565b81146200079157600080fd5b50565b61402a80620007a46000396000f3fe608060405234801561001057600080fd5b50600436106101cf5760003560e01c806370a0823111610104578063a2bde876116100a2578063c87b56dd11610071578063c87b56dd1461052f578063ce9c751c1461055f578063d0ebdbe71461057b578063e985e9c514610597576101cf565b8063a2bde876146104a9578063afc6ef60146104c7578063b88d4fde146104f7578063c1b0e91f14610513576101cf565b806395d89b41116100de57806395d89b4114610433578063996517cf14610451578063a11b07121461046f578063a22cb4651461048d576101cf565b806370a08231146103cb578063717949ab146103fb5780638d75533f14610417576101cf565b806342842e0e116101715780636352211e1161014b5780636352211e1461032f578063699bff801461035f5780636c0360eb1461037d5780636c8b703f1461039b576101cf565b806342842e0e146102d9578063481c6a75146102f557806355f804b314610313576101cf565b8063095ea7b3116101ad578063095ea7b31461025257806318160ddd1461026e57806323b872dd1461028c5780632a55205a146102a8576101cf565b806301ffc9a7146101d457806306fdde0314610204578063081812fc14610222575b600080fd5b6101ee60048036038101906101e991906131af565b6105c7565b6040516101fb919061370f565b60405180910390f35b61020c610641565b604051610219919061378a565b60405180910390f35b61023c60048036038101906102379190613242565b6106d3565b6040516102499190613656565b60405180910390f35b61026c60048036038101906102679190613137565b61074f565b005b610276610890565b6040516102839190613923565b60405180910390f35b6102a660048036038101906102a19190612fad565b6108a7565b005b6102c260048036038101906102bd919061326b565b610bcc565b6040516102d09291906136e6565b60405180910390f35b6102f360048036038101906102ee9190612fad565b610cce565b005b6102fd610cee565b60405161030a9190613656565b60405180910390f35b61032d60048036038101906103289190613201565b610d14565b005b61034960048036038101906103449190613242565b610e9f565b6040516103569190613656565b60405180910390f35b610367610eb1565b6040516103749190613656565b60405180910390f35b610385610ed7565b604051610392919061378a565b60405180910390f35b6103b560048036038101906103b09190613242565b610ee6565b6040516103c2919061378a565b60405180910390f35b6103e560048036038101906103e09190612f48565b610f86565b6040516103f29190613923565b60405180910390f35b61041560048036038101906104109190612f48565b61103f565b005b610431600480360381019061042c91906130b3565b61121d565b005b61043b611425565b604051610448919061378a565b60405180910390f35b6104596114b7565b6040516104669190613923565b60405180910390f35b6104776114bd565b604051610484919061376f565b60405180910390f35b6104a760048036038101906104a29190613077565b6114e3565b005b6104b161165b565b6040516104be9190613656565b60405180910390f35b6104e160048036038101906104dc9190612f48565b611681565b6040516104ee919061370f565b60405180910390f35b610511600480360381019061050c9190612ffc565b6116a1565b005b61052d60048036038101906105289190612f48565b611714565b005b61054960048036038101906105449190613242565b6118f0565b604051610556919061378a565b60405180910390f35b61057960048036038101906105749190612f48565b611a42565b005b61059560048036038101906105909190612f48565b611bf8565b005b6105b160048036038101906105ac9190612f71565b611dd4565b6040516105be919061370f565b60405180910390f35b60007f2a55205a000000000000000000000000000000000000000000000000000000007bffffffffffffffffffffffffffffffffffffffffffffffffffffffff1916827bffffffffffffffffffffffffffffffffffffffffffffffffffffffff1916148061063a575061063982611e8b565b5b9050919050565b60606004805461065090613c07565b80601f016020809104026020016040519081016040528092919081815260200182805461067c90613c07565b80156106c95780601f1061069e576101008083540402835291602001916106c9565b820191906000526020600020905b8154815290600101906020018083116106ac57829003601f168201915b5050505050905090565b60006106de82611f1d565b610714576040517fcf4700e400000000000000000000000000000000000000000000000000000000815260040160405180910390fd5b6008600083815260200190815260200160002060009054906101000a900473ffffffffffffffffffffffffffffffffffffffff169050919050565b600061075a82610e9f565b90508073ffffffffffffffffffffffffffffffffffffffff1661077b611f7c565b73ffffffffffffffffffffffffffffffffffffffff16146107de576107a7816107a2611f7c565b611dd4565b6107dd576040517fcfb3b94200000000000000000000000000000000000000000000000000000000815260040160405180910390fd5b5b826008600084815260200190815260200160002060006101000a81548173ffffffffffffffffffffffffffffffffffffffff021916908373ffffffffffffffffffffffffffffffffffffffff160217905550818373ffffffffffffffffffffffffffffffffffffffff168273ffffffffffffffffffffffffffffffffffffffff167f8c5be1e5ebec7d5bd14f71427d1e84f3dd0314c0f7b2291e5b200ac8c7c3b92560405160405180910390a4505050565b600061089a611f84565b6003546002540303905090565b60006108b282611f89565b90508373ffffffffffffffffffffffffffffffffffffffff168173ffffffffffffffffffffffffffffffffffffffff1614610919576040517fa114810000000000000000000000000000000000000000000000000000000000815260040160405180910390fd5b60008061092584612057565b9150915061093b8187610936611f7c565b612079565b610987576109508661094b611f7c565b611dd4565b610986576040517f59c896be00000000000000000000000000000000000000000000000000000000815260040160405180910390fd5b5b600073ffffffffffffffffffffffffffffffffffffffff168573ffffffffffffffffffffffffffffffffffffffff1614156109ee576040517fea553b3400000000000000000000000000000000000000000000000000000000815260040160405180910390fd5b6109fb86868660016120bd565b8015610a0657600082555b600760008773ffffffffffffffffffffffffffffffffffffffff1673ffffffffffffffffffffffffffffffffffffffff168152602001908152602001600020600081546001900391905081905550600760008673ffffffffffffffffffffffffffffffffffffffff1673ffffffffffffffffffffffffffffffffffffffff1681526020019081526020016000206000815460010191905081905550610ad485610ab08888876120c3565b7c0200000000000000000000000000000000000000000000000000000000176120eb565b600660008681526020019081526020016000208190555060007c020000000000000000000000000000000000000000000000000000000084161415610b5c576000600185019050600060066000838152602001908152602001600020541415610b5a576002548114610b59578360066000838152602001908152602001600020819055505b5b505b838573ffffffffffffffffffffffffffffffffffffffff168773ffffffffffffffffffffffffffffffffffffffff167fddf252ad1be2c89b69c2b068fc378daa952ba7f163c4a11628f55a4df523b3ef60405160405180910390a4610bc48686866001612116565b505050505050565b600080600080600f60009054906101000a900473ffffffffffffffffffffffffffffffffffffffff1673ffffffffffffffffffffffffffffffffffffffff1663376a06f4306040518263ffffffff1660e01b8152600401610c2d9190613656565b604080518083038186803b158015610c4457600080fd5b505afa158015610c58573d6000803e3d6000fd5b505050506040513d601f19601f82011682018060405250810190610c7c9190613173565b915091506000610c8a61211c565b6bffffffffffffffffffffffff16826bffffffffffffffffffffffff1687610cb29190613aa4565b610cbc9190613a73565b90508281945094505050509250929050565b610ce9838383604051806020016040528060008152506116a1565b505050565b600d60009054906101000a900473ffffffffffffffffffffffffffffffffffffffff1681565b600d60009054906101000a900473ffffffffffffffffffffffffffffffffffffffff1673ffffffffffffffffffffffffffffffffffffffff163373ffffffffffffffffffffffffffffffffffffffff1614610da4576040517f08c379a0000000000000000000000000000000000000000000000000000000008152600401610d9b90613843565b60405180910390fd5b6000600b8054610db390613c07565b80601f0160208091040260200160405190810160405280929190818152602001828054610ddf90613c07565b8015610e2c5780601f10610e0157610100808354040283529160200191610e2c565b820191906000526020600020905b815481529060010190602001808311610e0f57829003601f168201915b5050505050905081600b9080519060200190610e49929190612cf8565b503373ffffffffffffffffffffffffffffffffffffffff167f8e35157d9201b105014f0dd31c15c7476a6e82fab53da589eeb184e4927a5d4282600b604051610e939291906137ac565b60405180910390a25050565b6000610eaa82611f89565b9050919050565b600e60009054906101000a900473ffffffffffffffffffffffffffffffffffffffff1681565b6060610ee1612126565b905090565b60116020528060005260406000206000915090508054610f0590613c07565b80601f0160208091040260200160405190810160405280929190818152602001828054610f3190613c07565b8015610f7e5780601f10610f5357610100808354040283529160200191610f7e565b820191906000526020600020905b815481529060010190602001808311610f6157829003601f168201915b505050505081565b60008073ffffffffffffffffffffffffffffffffffffffff168273ffffffffffffffffffffffffffffffffffffffff161415610fee576040517f8f4eb60400000000000000000000000000000000000000000000000000000000815260040160405180910390fd5b67ffffffffffffffff600760008473ffffffffffffffffffffffffffffffffffffffff1673ffffffffffffffffffffffffffffffffffffffff16815260200190815260200160002054169050919050565b600d60009054906101000a900473ffffffffffffffffffffffffffffffffffffffff1673ffffffffffffffffffffffffffffffffffffffff163373ffffffffffffffffffffffffffffffffffffffff16146110cf576040517f08c379a00000000000000000000000000000000000000000000000000000000081526004016110c690613843565b60405180910390fd5b600073ffffffffffffffffffffffffffffffffffffffff168173ffffffffffffffffffffffffffffffffffffffff16141561113f576040517f08c379a000000000000000000000000000000000000000000000000000000000815260040161113690613803565b60405180910390fd5b6000600e60009054906101000a900473ffffffffffffffffffffffffffffffffffffffff16905081600e60006101000a81548173ffffffffffffffffffffffffffffffffffffffff021916908373ffffffffffffffffffffffffffffffffffffffff1602179055503373ffffffffffffffffffffffffffffffffffffffff167f09fed44a27001612e1515e750c250d52e17f4804c475518fbd10bc108c71e8d982600e60009054906101000a900473ffffffffffffffffffffffffffffffffffffffff16604051611211929190613671565b60405180910390a25050565b601060003373ffffffffffffffffffffffffffffffffffffffff1673ffffffffffffffffffffffffffffffffffffffff16815260200190815260200160002060009054906101000a900460ff16156112aa576040517f08c379a00000000000000000000000000000000000000000000000000000000081526004016112a190613903565b60405180910390fd5b6113223384306040516020016112c2939291906135d3565b6040516020818303038152906040528051906020012083838080601f016020809104026020016040519081016040528093929190818152602001838380828437600081840152601f19601f820116905080830192505050505050506121b8565b611361576040517f08c379a000000000000000000000000000000000000000000000000000000000815260040161135890613863565b60405180910390fd5b600061136b610890565b9050600a5481106113b1576040517f08c379a00000000000000000000000000000000000000000000000000000000081526004016113a8906138e3565b60405180910390fd5b6001601060003373ffffffffffffffffffffffffffffffffffffffff1673ffffffffffffffffffffffffffffffffffffffff16815260200190815260200160002060006101000a81548160ff021916908315150217905550611414856001612232565b61141e8185612250565b5050505050565b60606005805461143490613c07565b80601f016020809104026020016040519081016040528092919081815260200182805461146090613c07565b80156114ad5780601f10611482576101008083540402835291602001916114ad565b820191906000526020600020905b81548152906001019060200180831161149057829003601f168201915b5050505050905090565b600a5481565b600f60009054906101000a900473ffffffffffffffffffffffffffffffffffffffff1681565b6114eb611f7c565b73ffffffffffffffffffffffffffffffffffffffff168273ffffffffffffffffffffffffffffffffffffffff161415611550576040517fb06307db00000000000000000000000000000000000000000000000000000000815260040160405180910390fd5b806009600061155d611f7c565b73ffffffffffffffffffffffffffffffffffffffff1673ffffffffffffffffffffffffffffffffffffffff16815260200190815260200160002060008473ffffffffffffffffffffffffffffffffffffffff1673ffffffffffffffffffffffffffffffffffffffff16815260200190815260200160002060006101000a81548160ff0219169083151502179055508173ffffffffffffffffffffffffffffffffffffffff1661160a611f7c565b73ffffffffffffffffffffffffffffffffffffffff167f17307eab39ab6107e8899845ad3d59bd9653f200f220920489ca2b5937696c318360405161164f919061370f565b60405180910390a35050565b600c60009054906101000a900473ffffffffffffffffffffffffffffffffffffffff1681565b60106020528060005260406000206000915054906101000a900460ff1681565b6116ac8484846108a7565b60008373ffffffffffffffffffffffffffffffffffffffff163b1461170e576116d78484848461227c565b61170d576040517fd1a57ed600000000000000000000000000000000000000000000000000000000815260040160405180910390fd5b5b50505050565b600c60009054906101000a900473ffffffffffffffffffffffffffffffffffffffff1673ffffffffffffffffffffffffffffffffffffffff163373ffffffffffffffffffffffffffffffffffffffff16146117a4576040517f08c379a000000000000000000000000000000000000000000000000000000000815260040161179b90613843565b60405180910390fd5b600073ffffffffffffffffffffffffffffffffffffffff168173ffffffffffffffffffffffffffffffffffffffff161415611814576040517f08c379a000000000000000000000000000000000000000000000000000000000815260040161180b90613803565b60405180910390fd5b6000600c60009054906101000a900473ffffffffffffffffffffffffffffffffffffffff16905081600c60006101000a81548173ffffffffffffffffffffffffffffffffffffffff021916908373ffffffffffffffffffffffffffffffffffffffff1602179055508073ffffffffffffffffffffffffffffffffffffffff167fe4a71635009c69af0c606c5d16f7ccaaf06ff0d5d072216bd8f030383dde9e61600c60009054906101000a900473ffffffffffffffffffffffffffffffffffffffff166040516118e49190613656565b60405180910390a25050565b60606118fb82611f1d565b61193a576040517f08c379a0000000000000000000000000000000000000000000000000000000008152600401611931906138a3565b60405180910390fd5b600060116000848152602001908152602001600020805461195a90613c07565b80601f016020809104026020016040519081016040528092919081815260200182805461198690613c07565b80156119d35780601f106119a8576101008083540402835291602001916119d3565b820191906000526020600020905b8154815290600101906020018083116119b657829003601f168201915b5050505050905060006119e4612126565b90506000815114156119fa578192505050611a3d565b600082511115611a2f578082604051602001611a1792919061360c565b60405160208183030381529060405292505050611a3d565b611a38846123dc565b925050505b919050565b600d60009054906101000a900473ffffffffffffffffffffffffffffffffffffffff1673ffffffffffffffffffffffffffffffffffffffff163373ffffffffffffffffffffffffffffffffffffffff1614611ad2576040517f08c379a0000000000000000000000000000000000000000000000000000000008152600401611ac990613843565b60405180910390fd5b611adb81611e68565b611b1a576040517f08c379a0000000000000000000000000000000000000000000000000000000008152600401611b1190613803565b60405180910390fd5b6000600f60009054906101000a900473ffffffffffffffffffffffffffffffffffffffff16905081600f60006101000a81548173ffffffffffffffffffffffffffffffffffffffff021916908373ffffffffffffffffffffffffffffffffffffffff1602179055503373ffffffffffffffffffffffffffffffffffffffff167f59f321e63e0bdeefb4c7efac954b9e53e8f069d9b1f6b8ac3ad03c7178b5efa582600f60009054906101000a900473ffffffffffffffffffffffffffffffffffffffff16604051611bec929190613671565b60405180910390a25050565b600d60009054906101000a900473ffffffffffffffffffffffffffffffffffffffff1673ffffffffffffffffffffffffffffffffffffffff163373ffffffffffffffffffffffffffffffffffffffff1614611c88576040517f08c379a0000000000000000000000000000000000000000000000000000000008152600401611c7f90613843565b60405180910390fd5b600073ffffffffffffffffffffffffffffffffffffffff168173ffffffffffffffffffffffffffffffffffffffff161415611cf8576040517f08c379a0000000000000000000000000000000000000000000000000000000008152600401611cef90613803565b60405180910390fd5b6000600d60009054906101000a900473ffffffffffffffffffffffffffffffffffffffff16905081600d60006101000a81548173ffffffffffffffffffffffffffffffffffffffff021916908373ffffffffffffffffffffffffffffffffffffffff1602179055508073ffffffffffffffffffffffffffffffffffffffff167fdac3632743b879638fd2d51c4d3c1dd796615b4758a55b50b0c19b971ba9fbc7600d60009054906101000a900473ffffffffffffffffffffffffffffffffffffffff16604051611dc89190613656565b60405180910390a25050565b6000600960008473ffffffffffffffffffffffffffffffffffffffff1673ffffffffffffffffffffffffffffffffffffffff16815260200190815260200160002060008373ffffffffffffffffffffffffffffffffffffffff1673ffffffffffffffffffffffffffffffffffffffff16815260200190815260200160002060009054906101000a900460ff16905092915050565b6000808273ffffffffffffffffffffffffffffffffffffffff163b119050919050565b60006301ffc9a760e01b827bffffffffffffffffffffffffffffffffffffffffffffffffffffffff19161480611ee657506380ac58cd60e01b827bffffffffffffffffffffffffffffffffffffffffffffffffffffffff1916145b80611f165750635b5e139f60e01b827bffffffffffffffffffffffffffffffffffffffffffffffffffffffff1916145b9050919050565b600081611f28611f84565b11158015611f37575060025482105b8015611f75575060007c0100000000000000000000000000000000000000000000000000000000600660008581526020019081526020016000205416145b9050919050565b600033905090565b600090565b60008082905080611f98611f84565b116120205760025481101561201f5760006006600083815260200190815260200160002054905060007c01000000000000000000000000000000000000000000000000000000008216141561201d575b6000811415612013576006600083600190039350838152602001908152602001600020549050611fe8565b8092505050612052565b505b5b6040517fdf2d9b4200000000000000000000000000000000000000000000000000000000815260040160405180910390fd5b919050565b6000806000600890508360005280602052604060002092508254915050915091565b600073ffffffffffffffffffffffffffffffffffffffff8316925073ffffffffffffffffffffffffffffffffffffffff821691508382148383141790509392505050565b50505050565b60008060e883901c905060e86120da86868461247b565b62ffffff16901b9150509392505050565b600073ffffffffffffffffffffffffffffffffffffffff83169250814260a01b178317905092915050565b50505050565b6000612710905090565b6060600b805461213590613c07565b80601f016020809104026020016040519081016040528092919081815260200182805461216190613c07565b80156121ae5780601f10612183576101008083540402835291602001916121ae565b820191906000526020600020905b81548152906001019060200180831161219157829003601f168201915b5050505050905090565b6000806121c484612484565b9050600e60009054906101000a900473ffffffffffffffffffffffffffffffffffffffff1673ffffffffffffffffffffffffffffffffffffffff1661221284836124b490919063ffffffff16565b73ffffffffffffffffffffffffffffffffffffffff161491505092915050565b61224c8282604051806020016040528060008152506124db565b5050565b80601160008481526020019081526020016000209080519060200190612277929190612cf8565b505050565b60008373ffffffffffffffffffffffffffffffffffffffff1663150b7a026122a2611f7c565b8786866040518563ffffffff1660e01b81526004016122c4949392919061369a565b602060405180830381600087803b1580156122de57600080fd5b505af192505050801561230f57506040513d601f19601f8201168201806040525081019061230c91906131d8565b60015b612389573d806000811461233f576040519150601f19603f3d011682016040523d82523d6000602084013e612344565b606091505b50600081511415612381576040517fd1a57ed600000000000000000000000000000000000000000000000000000000815260040160405180910390fd5b805181602001fd5b63150b7a0260e01b7bffffffffffffffffffffffffffffffffffffffffffffffffffffffff1916817bffffffffffffffffffffffffffffffffffffffffffffffffffffffff191614915050949350505050565b60606123e782611f1d565b61241d576040517fa14c4b5000000000000000000000000000000000000000000000000000000000815260040160405180910390fd5b6000612427612126565b90506000815114156124485760405180602001604052806000815250612473565b8061245284612579565b60405160200161246392919061360c565b6040516020818303038152906040525b915050919050565b60009392505050565b6000816040516020016124979190613630565b604051602081830303815290604052805190602001209050919050565b60008060006124c385856125d3565b915091506124d081612656565b819250505092915050565b6124e583836129a7565b60008373ffffffffffffffffffffffffffffffffffffffff163b146125745760006002549050600083820390505b612526600086838060010194508661227c565b61255c576040517fd1a57ed600000000000000000000000000000000000000000000000000000000815260040160405180910390fd5b81811061251357816002541461257157600080fd5b50505b505050565b60606080604051019050806040528082600183039250600a81066030018353600a810490505b80156125bf57600183039250600a81066030018353600a8104905061259f565b508181036020830392508083525050919050565b6000806041835114156126155760008060006020860151925060408601519150606086015160001a905061260987828585612b7c565b9450945050505061264f565b60408351141561264657600080602085015191506040850151905061263b868383612c89565b93509350505061264f565b60006002915091505b9250929050565b60006004811115612690577f4e487b7100000000000000000000000000000000000000000000000000000000600052602160045260246000fd5b8160048111156126c9577f4e487b7100000000000000000000000000000000000000000000000000000000600052602160045260246000fd5b14156126d4576129a4565b6001600481111561270e577f4e487b7100000000000000000000000000000000000000000000000000000000600052602160045260246000fd5b816004811115612747577f4e487b7100000000000000000000000000000000000000000000000000000000600052602160045260246000fd5b1415612788576040517f08c379a000000000000000000000000000000000000000000000000000000000815260040161277f906137e3565b60405180910390fd5b600260048111156127c2577f4e487b7100000000000000000000000000000000000000000000000000000000600052602160045260246000fd5b8160048111156127fb577f4e487b7100000000000000000000000000000000000000000000000000000000600052602160045260246000fd5b141561283c576040517f08c379a000000000000000000000000000000000000000000000000000000000815260040161283390613823565b60405180910390fd5b60036004811115612876577f4e487b7100000000000000000000000000000000000000000000000000000000600052602160045260246000fd5b8160048111156128af577f4e487b7100000000000000000000000000000000000000000000000000000000600052602160045260246000fd5b14156128f0576040517f08c379a00000000000000000000000000000000000000000000000000000000081526004016128e790613883565b60405180910390fd5b600480811115612929577f4e487b7100000000000000000000000000000000000000000000000000000000600052602160045260246000fd5b816004811115612962577f4e487b7100000000000000000000000000000000000000000000000000000000600052602160045260246000fd5b14156129a3576040517f08c379a000000000000000000000000000000000000000000000000000000000815260040161299a906138c3565b60405180910390fd5b5b50565b60006002549050600073ffffffffffffffffffffffffffffffffffffffff168373ffffffffffffffffffffffffffffffffffffffff161415612a15576040517f2e07630000000000000000000000000000000000000000000000000000000000815260040160405180910390fd5b6000821415612a50576040517fb562e8dd00000000000000000000000000000000000000000000000000000000815260040160405180910390fd5b612a5d60008483856120bd565b600160406001901b178202600760008573ffffffffffffffffffffffffffffffffffffffff1673ffffffffffffffffffffffffffffffffffffffff16815260200190815260200160002060008282540192505081905550612ad483612ac560008660006120c3565b612ace85612ce8565b176120eb565b60066000838152602001908152602001600020819055506000819050600083830190505b818060010192508573ffffffffffffffffffffffffffffffffffffffff16600073ffffffffffffffffffffffffffffffffffffffff167fddf252ad1be2c89b69c2b068fc378daa952ba7f163c4a11628f55a4df523b3ef60405160405180910390a4808210612af857806002819055505050612b776000848385612116565b505050565b6000807f7fffffffffffffffffffffffffffffff5d576e7357a4501ddfe92f46681b20a08360001c1115612bb7576000600391509150612c80565b601b8560ff1614158015612bcf5750601c8560ff1614155b15612be1576000600491509150612c80565b600060018787878760405160008152602001604052604051612c06949392919061372a565b6020604051602081039080840390855afa158015612c28573d6000803e3d6000fd5b505050602060405103519050600073ffffffffffffffffffffffffffffffffffffffff168173ffffffffffffffffffffffffffffffffffffffff161415612c7757600060019250925050612c80565b80600092509250505b94509492505050565b60008060007f7fffffffffffffffffffffffffffffffffffffffffffffffffffffffffffffff60001b841690506000601b60ff8660001c901c612ccc9190613a1d565b9050612cda87828885612b7c565b935093505050935093915050565b60006001821460e11b9050919050565b828054612d0490613c07565b90600052602060002090601f016020900481019282612d265760008555612d6d565b82601f10612d3f57805160ff1916838001178555612d6d565b82800160010185558215612d6d579182015b82811115612d6c578251825591602001919060010190612d51565b5b509050612d7a9190612d7e565b5090565b5b80821115612d97576000816000905550600101612d7f565b5090565b6000612dae612da984613963565b61393e565b905082815260208101848484011115612dc657600080fd5b612dd1848285613bc5565b509392505050565b6000612dec612de784613994565b61393e565b905082815260208101848484011115612e0457600080fd5b612e0f848285613bc5565b509392505050565b600081359050612e2681613f81565b92915050565b600081519050612e3b81613f81565b92915050565b600081359050612e5081613f98565b92915050565b600081359050612e6581613faf565b92915050565b600081519050612e7a81613faf565b92915050565b60008083601f840112612e9257600080fd5b8235905067ffffffffffffffff811115612eab57600080fd5b602083019150836001820283011115612ec357600080fd5b9250929050565b600082601f830112612edb57600080fd5b8135612eeb848260208601612d9b565b91505092915050565b600082601f830112612f0557600080fd5b8135612f15848260208601612dd9565b91505092915050565b600081359050612f2d81613fc6565b92915050565b600081519050612f4281613fdd565b92915050565b600060208284031215612f5a57600080fd5b6000612f6884828501612e17565b91505092915050565b60008060408385031215612f8457600080fd5b6000612f9285828601612e17565b9250506020612fa385828601612e17565b9150509250929050565b600080600060608486031215612fc257600080fd5b6000612fd086828701612e17565b9350506020612fe186828701612e17565b9250506040612ff286828701612f1e565b9150509250925092565b6000806000806080858703121561301257600080fd5b600061302087828801612e17565b945050602061303187828801612e17565b935050604061304287828801612f1e565b925050606085013567ffffffffffffffff81111561305f57600080fd5b61306b87828801612eca565b91505092959194509250565b6000806040838503121561308a57600080fd5b600061309885828601612e17565b92505060206130a985828601612e41565b9150509250929050565b600080600080606085870312156130c957600080fd5b60006130d787828801612e17565b945050602085013567ffffffffffffffff8111156130f457600080fd5b61310087828801612ef4565b935050604085013567ffffffffffffffff81111561311d57600080fd5b61312987828801612e80565b925092505092959194509250565b6000806040838503121561314a57600080fd5b600061315885828601612e17565b925050602061316985828601612f1e565b9150509250929050565b6000806040838503121561318657600080fd5b600061319485828601612e2c565b92505060206131a585828601612f33565b9150509250929050565b6000602082840312156131c157600080fd5b60006131cf84828501612e56565b91505092915050565b6000602082840312156131ea57600080fd5b60006131f884828501612e6b565b91505092915050565b60006020828403121561321357600080fd5b600082013567ffffffffffffffff81111561322d57600080fd5b61323984828501612ef4565b91505092915050565b60006020828403121561325457600080fd5b600061326284828501612f1e565b91505092915050565b6000806040838503121561327e57600080fd5b600061328c85828601612f1e565b925050602061329d85828601612f1e565b9150509250929050565b6132b081613afe565b82525050565b6132c76132c282613afe565b613c6a565b82525050565b6132d681613b10565b82525050565b6132e581613b1c565b82525050565b6132fc6132f782613b1c565b613c7c565b82525050565b600061330d826139da565b61331781856139f0565b9350613327818560208601613bd4565b61333081613d54565b840191505092915050565b61334481613ba1565b82525050565b6000613355826139e5565b61335f8185613a01565b935061336f818560208601613bd4565b61337881613d54565b840191505092915050565b600061338e826139e5565b6133988185613a12565b93506133a8818560208601613bd4565b80840191505092915050565b600081546133c181613c07565b6133cb8186613a01565b945060018216600081146133e657600181146133f85761342b565b60ff198316865260208601935061342b565b613401856139c5565b60005b8381101561342357815481890152600182019150602081019050613404565b808801955050505b50505092915050565b6000613441601883613a01565b915061344c82613d72565b602082019050919050565b6000613464600f83613a01565b915061346f82613d9b565b602082019050919050565b6000613487601f83613a01565b915061349282613dc4565b602082019050919050565b60006134aa601c83613a12565b91506134b582613ded565b601c82019050919050565b60006134cd600c83613a01565b91506134d882613e16565b602082019050919050565b60006134f0601183613a01565b91506134fb82613e3f565b602082019050919050565b6000613513602283613a01565b915061351e82613e68565b604082019050919050565b6000613536601483613a01565b915061354182613eb7565b602082019050919050565b6000613559602283613a01565b915061356482613ee0565b604082019050919050565b600061357c601e83613a01565b915061358782613f2f565b602082019050919050565b600061359f601583613a01565b91506135aa82613f58565b602082019050919050565b6135be81613b72565b82525050565b6135cd81613b7c565b82525050565b60006135df82866132b6565b6014820191506135ef8285613383565b91506135fb82846132b6565b601482019150819050949350505050565b60006136188285613383565b91506136248284613383565b91508190509392505050565b600061363b8261349d565b915061364782846132eb565b60208201915081905092915050565b600060208201905061366b60008301846132a7565b92915050565b600060408201905061368660008301856132a7565b61369360208301846132a7565b9392505050565b60006080820190506136af60008301876132a7565b6136bc60208301866132a7565b6136c960408301856135b5565b81810360608301526136db8184613302565b905095945050505050565b60006040820190506136fb60008301856132a7565b61370860208301846135b5565b9392505050565b600060208201905061372460008301846132cd565b92915050565b600060808201905061373f60008301876132dc565b61374c60208301866135c4565b61375960408301856132dc565b61376660608301846132dc565b95945050505050565b6000602082019050613784600083018461333b565b92915050565b600060208201905081810360008301526137a4818461334a565b905092915050565b600060408201905081810360008301526137c6818561334a565b905081810360208301526137da81846133b4565b90509392505050565b600060208201905081810360008301526137fc81613434565b9050919050565b6000602082019050818103600083015261381c81613457565b9050919050565b6000602082019050818103600083015261383c8161347a565b9050919050565b6000602082019050818103600083015261385c816134c0565b9050919050565b6000602082019050818103600083015261387c816134e3565b9050919050565b6000602082019050818103600083015261389c81613506565b9050919050565b600060208201905081810360008301526138bc81613529565b9050919050565b600060208201905081810360008301526138dc8161354c565b9050919050565b600060208201905081810360008301526138fc8161356f565b9050919050565b6000602082019050818103600083015261391c81613592565b9050919050565b600060208201905061393860008301846135b5565b92915050565b6000613948613959565b90506139548282613c39565b919050565b6000604051905090565b600067ffffffffffffffff82111561397e5761397d613d25565b5b61398782613d54565b9050602081019050919050565b600067ffffffffffffffff8211156139af576139ae613d25565b5b6139b882613d54565b9050602081019050919050565b60008190508160005260206000209050919050565b600081519050919050565b600081519050919050565b600082825260208201905092915050565b600082825260208201905092915050565b600081905092915050565b6000613a2882613b72565b9150613a3383613b72565b9250827fffffffffffffffffffffffffffffffffffffffffffffffffffffffffffffffff03821115613a6857613a67613c98565b5b828201905092915050565b6000613a7e82613b72565b9150613a8983613b72565b925082613a9957613a98613cc7565b5b828204905092915050565b6000613aaf82613b72565b9150613aba83613b72565b9250817fffffffffffffffffffffffffffffffffffffffffffffffffffffffffffffffff0483118215151615613af357613af2613c98565b5b828202905092915050565b6000613b0982613b52565b9050919050565b60008115159050919050565b6000819050919050565b60007fffffffff0000000000000000000000000000000000000000000000000000000082169050919050565b600073ffffffffffffffffffffffffffffffffffffffff82169050919050565b6000819050919050565b600060ff82169050919050565b60006bffffffffffffffffffffffff82169050919050565b6000613bac82613bb3565b9050919050565b6000613bbe82613b52565b9050919050565b82818337600083830152505050565b60005b83811015613bf2578082015181840152602081019050613bd7565b83811115613c01576000848401525b50505050565b60006002820490506001821680613c1f57607f821691505b60208210811415613c3357613c32613cf6565b5b50919050565b613c4282613d54565b810181811067ffffffffffffffff82111715613c6157613c60613d25565b5b80604052505050565b6000613c7582613c86565b9050919050565b6000819050919050565b6000613c9182613d65565b9050919050565b7f4e487b7100000000000000000000000000000000000000000000000000000000600052601160045260246000fd5b7f4e487b7100000000000000000000000000000000000000000000000000000000600052601260045260246000fd5b7f4e487b7100000000000000000000000000000000000000000000000000000000600052602260045260246000fd5b7f4e487b7100000000000000000000000000000000000000000000000000000000600052604160045260246000fd5b6000601f19601f8301169050919050565b60008160601b9050919050565b7f45434453413a20696e76616c6964207369676e61747572650000000000000000600082015250565b7f496e76616c696420616464726573730000000000000000000000000000000000600082015250565b7f45434453413a20696e76616c6964207369676e6174757265206c656e67746800600082015250565b7f19457468657265756d205369676e6564204d6573736167653a0a333200000000600082015250565b7f556e617574686f72697a65640000000000000000000000000000000000000000600082015250565b7f496e76616c6964207369676e6174757265000000000000000000000000000000600082015250565b7f45434453413a20696e76616c6964207369676e6174757265202773272076616c60008201527f7565000000000000000000000000000000000000000000000000000000000000602082015250565b7f546f6b656e20646f6573206e6f74206578697374000000000000000000000000600082015250565b7f45434453413a20696e76616c6964207369676e6174757265202776272076616c60008201527f7565000000000000000000000000000000000000000000000000000000000000602082015250565b7f4d6178696d756d206c696d697420686173206265656e20726561636865640000600082015250565b7f4164647265737320686173206265656e20757365640000000000000000000000600082015250565b613f8a81613afe565b8114613f9557600080fd5b50565b613fa181613b10565b8114613fac57600080fd5b50565b613fb881613b26565b8114613fc357600080fd5b50565b613fcf81613b72565b8114613fda57600080fd5b50565b613fe681613b89565b8114613ff157600080fd5b5056fea2646970667358221220f525e5c49595813d0e2e61fdb6feaf5358c726a9e891d481f78e6b788d26132964736f6c63430008040033a2646970667358221220f95529988d3909360e800e9452449757d0e3a47cabd71b0db9a0a09425a6e18264736f6c63430008040033",
  "devdoc": {
    "kind": "dev",
    "methods": {
      "createModelNFT(string,string,address,address,address,address,uint256)": {
        "details": "Create new model NFT smart contract with parameters.",
        "params": {
          "_designer": "Address of designer.",
          "_manager": "Address of manager.",
          "_mintLimit": "upper limit of minting.",
          "_modelID": "ID of model.",
          "_modelName": "name of model.",
          "_signer": "Address of signer for minting."
        }
      },
      "owner()": {
        "details": "Returns the address of the current owner."
      },
      "renounceOwnership()": {
        "details": "Leaves the contract without owner. It will not be possible to call `onlyOwner` functions anymore. Can only be called by the current owner. NOTE: Renouncing ownership will leave the contract without an owner, thereby removing any functionality that is only available to the owner."
      },
      "transferOwnership(address)": {
        "details": "Transfers ownership of the contract to a new account (`newOwner`). Can only be called by the current owner."
      }
    },
    "version": 1
  },
  "userdoc": {
    "kind": "user",
    "methods": {},
    "version": 1
  },
  "storageLayout": {
    "storage": [
      {
        "astId": 138,
        "contract": "contracts/ModelNFTFactory.sol:ModelNFTFactory",
        "label": "_initialized",
        "offset": 0,
        "slot": "0",
        "type": "t_uint8"
      },
      {
        "astId": 141,
        "contract": "contracts/ModelNFTFactory.sol:ModelNFTFactory",
        "label": "_initializing",
        "offset": 1,
        "slot": "0",
        "type": "t_bool"
      },
      {
        "astId": 566,
        "contract": "contracts/ModelNFTFactory.sol:ModelNFTFactory",
        "label": "__gap",
        "offset": 0,
        "slot": "1",
        "type": "t_array(t_uint256)50_storage"
      },
      {
        "astId": 10,
        "contract": "contracts/ModelNFTFactory.sol:ModelNFTFactory",
        "label": "_owner",
        "offset": 0,
        "slot": "51",
        "type": "t_address"
      },
      {
        "astId": 130,
        "contract": "contracts/ModelNFTFactory.sol:ModelNFTFactory",
        "label": "__gap",
        "offset": 0,
        "slot": "52",
        "type": "t_array(t_uint256)49_storage"
      },
      {
        "astId": 3243,
        "contract": "contracts/ModelNFTFactory.sol:ModelNFTFactory",
        "label": "_modelNFT",
        "offset": 0,
        "slot": "101",
        "type": "t_contract(ModelNFT)3234"
      },
      {
        "astId": 3247,
        "contract": "contracts/ModelNFTFactory.sol:ModelNFTFactory",
        "label": "modelNFTs",
        "offset": 0,
        "slot": "102",
        "type": "t_mapping(t_string_memory_ptr,t_address)"
      }
    ],
    "types": {
      "t_address": {
        "encoding": "inplace",
        "label": "address",
        "numberOfBytes": "20"
      },
      "t_array(t_uint256)49_storage": {
        "base": "t_uint256",
        "encoding": "inplace",
        "label": "uint256[49]",
        "numberOfBytes": "1568"
      },
      "t_array(t_uint256)50_storage": {
        "base": "t_uint256",
        "encoding": "inplace",
        "label": "uint256[50]",
        "numberOfBytes": "1600"
      },
      "t_bool": {
        "encoding": "inplace",
        "label": "bool",
        "numberOfBytes": "1"
      },
      "t_contract(ModelNFT)3234": {
        "encoding": "inplace",
        "label": "contract ModelNFT",
        "numberOfBytes": "20"
      },
      "t_mapping(t_string_memory_ptr,t_address)": {
        "encoding": "mapping",
        "key": "t_string_memory_ptr",
        "label": "mapping(string => address)",
        "numberOfBytes": "32",
        "value": "t_address"
      },
      "t_string_memory_ptr": {
        "encoding": "bytes",
        "label": "string",
        "numberOfBytes": "32"
      },
      "t_uint256": {
        "encoding": "inplace",
        "label": "uint256",
        "numberOfBytes": "32"
      },
      "t_uint8": {
        "encoding": "inplace",
        "label": "uint8",
        "numberOfBytes": "1"
      }
    }
  }
}