{
  "address": "0x0BEB7C525703560F2238eF7C3e3116fc4A1411De",
  "abi": [
    {
      "anonymous": false,
      "inputs": [
        {
          "indexed": false,
          "internalType": "uint8",
          "name": "version",
          "type": "uint8"
        }
      ],
      "name": "Initialized",
      "type": "event"
    },
    {
      "anonymous": false,
      "inputs": [
        {
          "indexed": true,
          "internalType": "string",
          "name": "modelID",
          "type": "string"
        },
        {
          "indexed": false,
          "internalType": "address",
          "name": "modelNFTAddress",
          "type": "address"
        }
      ],
      "name": "NFTCreated",
      "type": "event"
    },
    {
      "anonymous": false,
      "inputs": [
        {
          "indexed": true,
          "internalType": "address",
          "name": "previousOwner",
          "type": "address"
        },
        {
          "indexed": true,
          "internalType": "address",
          "name": "newOwner",
          "type": "address"
        }
      ],
      "name": "OwnershipTransferred",
      "type": "event"
    },
    {
      "anonymous": false,
      "inputs": [
        {
          "indexed": true,
          "internalType": "address",
          "name": "_sender",
          "type": "address"
        },
        {
          "indexed": false,
          "internalType": "address",
          "name": "_oldAddress",
          "type": "address"
        },
        {
          "indexed": false,
          "internalType": "address",
          "name": "_newAddress",
          "type": "address"
        }
      ],
      "name": "RoyaltyRegistryUpdated",
      "type": "event"
    },
    {
      "inputs": [
        {
          "internalType": "address",
          "name": "_royaltyRegistry",
          "type": "address"
        }
      ],
      "name": "changeFactoryRoyaltyRegistry",
      "outputs": [],
      "stateMutability": "nonpayable",
      "type": "function"
    },
    {
      "inputs": [
        {
          "internalType": "string",
          "name": "_modelName",
          "type": "string"
        },
        {
          "internalType": "string",
          "name": "_modelID",
          "type": "string"
        },
        {
          "internalType": "address",
          "name": "_designer",
          "type": "address"
        },
        {
          "internalType": "address",
          "name": "_royaltyReceiver",
          "type": "address"
        },
        {
          "internalType": "uint96",
          "name": "_royaltyRate",
          "type": "uint96"
        },
        {
          "internalType": "uint256",
          "name": "_mintLimit",
          "type": "uint256"
        }
      ],
      "name": "createModelNFT",
      "outputs": [],
      "stateMutability": "nonpayable",
      "type": "function"
    },
    {
      "inputs": [],
      "name": "factoryRoyaltyRegistry",
      "outputs": [
        {
          "internalType": "contract IRoyaltyRegistry",
          "name": "",
          "type": "address"
        }
      ],
      "stateMutability": "view",
      "type": "function"
    },
    {
      "inputs": [
        {
          "internalType": "address",
          "name": "_royaltyRegistry",
          "type": "address"
        }
      ],
      "name": "initialize",
      "outputs": [],
      "stateMutability": "nonpayable",
      "type": "function"
    },
    {
      "inputs": [
        {
          "internalType": "string",
          "name": "",
          "type": "string"
        }
      ],
      "name": "modelNFTs",
      "outputs": [
        {
          "internalType": "address",
          "name": "",
          "type": "address"
        }
      ],
      "stateMutability": "view",
      "type": "function"
    },
    {
      "inputs": [],
      "name": "owner",
      "outputs": [
        {
          "internalType": "address",
          "name": "",
          "type": "address"
        }
      ],
      "stateMutability": "view",
      "type": "function"
    },
    {
      "inputs": [],
      "name": "renounceOwnership",
      "outputs": [],
      "stateMutability": "nonpayable",
      "type": "function"
    },
    {
      "inputs": [
        {
          "internalType": "address",
          "name": "newOwner",
          "type": "address"
        }
      ],
      "name": "transferOwnership",
      "outputs": [],
      "stateMutability": "nonpayable",
      "type": "function"
    }
  ],
  "transactionHash": "0xcc6f650a86ab3ef18850d4047f85992e570adb6d61670bede9508113bcb7ca68",
  "args": [],
  "numDeployments": 1,
  "solcInputHash": "ed8e4a737919103b7b7620f508adeefe",
  "bytecode": "0x608060405234801561001057600080fd5b506130ea806100206000396000f3fe60806040523480156200001157600080fd5b5060043610620000935760003560e01c80638da5cb5b11620000625780638da5cb5b1462000102578063c4d66de81462000114578063df9ce002146200012b578063f2fde38b146200016257600080fd5b806333eaa20c14620000985780634356bd9e14620000c857806344ae70d814620000e1578063715018a614620000f8575b600080fd5b606754620000ac906001600160a01b031681565b6040516001600160a01b03909116815260200160405180910390f35b620000df620000d936600462000932565b62000179565b005b620000df620000f236600462000995565b62000234565b620000df6200052d565b6033546001600160a01b0316620000ac565b620000df6200012536600462000932565b62000545565b620000ac6200013c36600462000956565b80516020818301810180516066825292820191909301209152546001600160a01b031681565b620000df6200017336600462000932565b620006d3565b6200018362000752565b6001600160a01b038116620001d15760405162461bcd60e51b815260206004820152600f60248201526e496e76616c6964206164647265737360881b60448201526064015b60405180910390fd5b606780546001600160a01b038381166001600160a01b0319831681179093556040805191909216808252602082019390935233917f59f321e63e0bdeefb4c7efac954b9e53e8f069d9b1f6b8ac3ad03c7178b5efa5910160405180910390a25050565b600081116200027b5760405162461bcd60e51b8152602060048201526012602482015271125b9d985b1a59081b5a5b9d081b1a5b5a5d60721b6044820152606401620001c8565b60006001600160a01b031660668660405162000298919062000a7e565b908152604051908190036020019020546001600160a01b031614620002f95760405162461bcd60e51b8152602060048201526016602482015275135bd9195b081251081a185cc81899595b881d5cd95960521b6044820152606401620001c8565b6001600160a01b038416620003515760405162461bcd60e51b815260206004820152601860248201527f496e76616c69642064657369676e6572206164647265737300000000000000006044820152606401620001c8565b6001600160a01b038316620003a95760405162461bcd60e51b815260206004820181905260248201527f496e76616c696420726f79616c747920726563656976657220616464726573736044820152606401620001c8565b85858286606760009054906101000a90046001600160a01b0316604051620003d19062000878565b620003e195949392919062000a9c565b604051809103906000f080158015620003fe573d6000803e3d6000fd5b50606580546001600160a01b0319166001600160a01b039290921691821790556040516066906200043190889062000a7e565b90815260405190819003602001812080546001600160a01b039384166001600160a01b031990911617905560675460655463647a5c8560e01b8352831660048301526bffffffffffffffffffffffff8516602483015285831660448301529091169063647a5c8590606401600060405180830381600087803b158015620004b757600080fd5b505af1158015620004cc573d6000803e3d6000fd5b5050505084604051620004e0919062000a7e565b6040519081900381206065546001600160a01b03168252907fe6248a7d8f06d4dc9c3d4c896b3462838d9c7422ecf0b07df2de587aca9ebab29060200160405180910390a2505050505050565b6200053762000752565b620005436000620007ae565b565b600054610100900460ff1615808015620005665750600054600160ff909116105b80620005825750303b15801562000582575060005460ff166001145b620005e75760405162461bcd60e51b815260206004820152602e60248201527f496e697469616c697a61626c653a20636f6e747261637420697320616c72656160448201526d191e481a5b9a5d1a585b1a5e995960921b6064820152608401620001c8565b6000805460ff1916600117905580156200060b576000805461ff0019166101001790555b6001600160a01b038216620006635760405162461bcd60e51b815260206004820152601760248201527f496e76616c696420726f79616c747920616464726573730000000000000000006044820152606401620001c8565b606780546001600160a01b0319166001600160a01b0384161790556200068862000800565b8015620006cf576000805461ff0019169055604051600181527f7f26b83ff96e1f2b6a682f133852f6798a09c465da95921460cefb38474024989060200160405180910390a15b5050565b620006dd62000752565b6001600160a01b038116620007445760405162461bcd60e51b815260206004820152602660248201527f4f776e61626c653a206e6577206f776e657220697320746865207a65726f206160448201526564647265737360d01b6064820152608401620001c8565b6200074f81620007ae565b50565b6033546001600160a01b03163314620005435760405162461bcd60e51b815260206004820181905260248201527f4f776e61626c653a2063616c6c6572206973206e6f7420746865206f776e65726044820152606401620001c8565b603380546001600160a01b038381166001600160a01b0319831681179093556040519116919082907f8be0079c531659141344cd1fd0a4f28419497f9722a3daafe3b4186f6b6457e090600090a35050565b600054610100900460ff166200086d5760405162461bcd60e51b815260206004820152602b60248201527f496e697469616c697a61626c653a20636f6e7472616374206973206e6f74206960448201526a6e697469616c697a696e6760a81b6064820152608401620001c8565b6200054333620007ae565b61257e8062000b3783390190565b80356001600160a01b03811681146200089e57600080fd5b919050565b600082601f830112620008b4578081fd5b813567ffffffffffffffff80821115620008d257620008d262000b20565b604051601f8301601f19908116603f01168101908282118183101715620008fd57620008fd62000b20565b8160405283815286602085880101111562000916578485fd5b8360208701602083013792830160200193909352509392505050565b60006020828403121562000944578081fd5b6200094f8262000886565b9392505050565b60006020828403121562000968578081fd5b813567ffffffffffffffff8111156200097f578182fd5b6200098d84828501620008a3565b949350505050565b60008060008060008060c08789031215620009ae578182fd5b863567ffffffffffffffff80821115620009c6578384fd5b620009d48a838b01620008a3565b97506020890135915080821115620009ea578384fd5b50620009f989828a01620008a3565b95505062000a0a6040880162000886565b935062000a1a6060880162000886565b925060808701356bffffffffffffffffffffffff8116811462000a3b578283fd5b8092505060a087013590509295509295509295565b6000815180845262000a6a81602086016020860162000aed565b601f01601f19169290920160200192915050565b6000825162000a9281846020870162000aed565b9190910192915050565b60a08152600062000ab160a083018862000a50565b828103602084015262000ac5818862000a50565b604084019690965250506001600160a01b039283166060820152911660809091015292915050565b60005b8381101562000b0a57818101518382015260200162000af0565b8381111562000b1a576000848401525b50505050565b634e487b7160e01b600052604160045260246000fdfe60806040523480156200001157600080fd5b506040516200257e3803806200257e833981016040819052620000349162000295565b8451859085906200004d9060049060208501906200011f565b508051620000639060059060208401906200011f565b506000600281905550505062000084816200011060201b620011851760201c565b620000d55760405162461bcd60e51b815260206004820181905260248201527f496e76616c696420726f79616c74792072656769737472792061646472657373604482015260640160405180910390fd5b600a92909255600c80546001600160a01b039283166001600160a01b031991821617909155600d8054929093169116179055506200037e9050565b6001600160a01b03163b151590565b8280546200012d906200032b565b90600052602060002090601f0160209004810192826200015157600085556200019c565b82601f106200016c57805160ff19168380011785556200019c565b828001600101855582156200019c579182015b828111156200019c5782518255916020019190600101906200017f565b50620001aa929150620001ae565b5090565b5b80821115620001aa5760008155600101620001af565b80516001600160a01b0381168114620001dd57600080fd5b919050565b600082601f830112620001f3578081fd5b81516001600160401b038082111562000210576200021062000368565b604051601f8301601f19908116603f011681019082821181831017156200023b576200023b62000368565b8160405283815260209250868385880101111562000257578485fd5b8491505b838210156200027a57858201830151818301840152908201906200025b565b838211156200028b57848385830101525b9695505050505050565b600080600080600060a08688031215620002ad578081fd5b85516001600160401b0380821115620002c4578283fd5b620002d289838a01620001e2565b96506020880151915080821115620002e8578283fd5b50620002f788828901620001e2565b945050604086015192506200030f60608701620001c5565b91506200031f60808701620001c5565b90509295509295909350565b600181811c908216806200034057607f821691505b602082108114156200036257634e487b7160e01b600052602260045260246000fd5b50919050565b634e487b7160e01b600052604160045260246000fd5b6121f0806200038e6000396000f3fe608060405234801561001057600080fd5b50600436106101cf5760003560e01c806370a0823111610104578063a2bde876116100a2578063c87b56dd11610071578063c87b56dd146103d1578063ce9c751c146103e4578063e8a3d485146103f7578063e985e9c5146103ff57600080fd5b8063a2bde87614610375578063afc6ef6014610388578063b88d4fde146103ab578063c1b0e91f146103be57600080fd5b806395d89b41116100de57806395d89b411461033e578063996517cf14610346578063a11b07121461034f578063a22cb4651461036257600080fd5b806370a08231146103105780638d75533f146103235780638da5cb5b1461033657600080fd5b806342842e0e116101715780636352211e1161014b5780636352211e146102da578063699bff80146102ed5780636c0360eb146102f55780636c8b703f146102fd57600080fd5b806342842e0e146102ac578063481c6a75146102bf57806355f804b3146102c757600080fd5b8063095ea7b3116101ad578063095ea7b31461023c57806318160ddd1461025157806323b872dd146102675780632a55205a1461027a57600080fd5b806301ffc9a7146101d457806306fdde03146101fc578063081812fc14610211575b600080fd5b6101e76101e2366004611d65565b61043b565b60405190151581526020015b60405180910390f35b610204610466565b6040516101f39190611f57565b61022461021f366004611e43565b6104f8565b6040516001600160a01b0390911681526020016101f3565b61024f61024a366004611d01565b61053c565b005b600354600254035b6040519081526020016101f3565b61024f610275366004611b75565b6105dc565b61028d610288366004611e5b565b61076d565b604080516001600160a01b0390931683526020830191909152016101f3565b61024f6102ba366004611b75565b610837565b610224610857565b61024f6102d5366004611d9d565b6108d9565b6102246102e8366004611e43565b610a07565b610224610a12565b610204610a57565b61020461030b366004611e43565b610a61565b61025961031e366004611b05565b610afb565b61024f610331366004611c63565b610b4a565b610224610ce7565b610204610d2c565b610259600a5481565b600d54610224906001600160a01b031681565b61024f610370366004611c32565b610d3b565b600c54610224906001600160a01b031681565b6101e7610396366004611b05565b600e6020526000908152604090205460ff1681565b61024f6103b9366004611bb5565b610dd1565b61024f6103cc366004611b05565b610e1b565b6102046103df366004611e43565b610ee0565b61024f6103f2366004611b05565b611027565b610204611104565b6101e761040d366004611b3d565b6001600160a01b03918216600090815260096020908152604080832093909416825291909152205460ff1690565b60006001600160e01b0319821663152a902d60e11b1480610460575061046082611194565b92915050565b60606004805461047590612128565b80601f01602080910402602001604051908101604052809291908181526020018280546104a190612128565b80156104ee5780601f106104c3576101008083540402835291602001916104ee565b820191906000526020600020905b8154815290600101906020018083116104d157829003601f168201915b5050505050905090565b6000610503826111e2565b610520576040516333d1c03960e21b815260040160405180910390fd5b506000908152600860205260409020546001600160a01b031690565b600061054782610a07565b9050336001600160a01b0382161461058057610563813361040d565b610580576040516367d9dca160e11b815260040160405180910390fd5b60008281526008602052604080822080546001600160a01b0319166001600160a01b0387811691821790925591518593918516917f8c5be1e5ebec7d5bd14f71427d1e84f3dd0314c0f7b2291e5b200ac8c7c3b92591a4505050565b60006105e78261120a565b9050836001600160a01b0316816001600160a01b03161461061a5760405162a1148160e81b815260040160405180910390fd5b60008281526008602052604090208054338082146001600160a01b038816909114176106675761064a863361040d565b61066757604051632ce44b5f60e11b815260040160405180910390fd5b6001600160a01b03851661068e57604051633a954ecd60e21b815260040160405180910390fd5b801561069957600082555b6001600160a01b038681166000908152600760205260408082208054600019019055918716808252919020805460010190554260a01b17600160e11b17600085815260066020526040902055600160e11b831661072457600184016000818152600660205260409020546107225760025481146107225760008181526006602052604090208490555b505b83856001600160a01b0316876001600160a01b03167fddf252ad1be2c89b69c2b068fc378daa952ba7f163c4a11628f55a4df523b3ef60405160405180910390a4505050505050565b600d54604051630dda81bd60e21b81523060048201526000918291829182916001600160a01b039091169063376a06f490602401604080518083038186803b1580156107b857600080fd5b505afa1580156107cc573d6000803e3d6000fd5b505050506040513d601f19601f820116820180604052508101906107f09190611d2c565b9150915060006107ff61271090565b6001600160601b0316826001600160601b03168761081d91906120dd565b61082791906120bd565b92945091925050505b9250929050565b61085283838360405180602001604052806000815250610dd1565b505050565b600d5460408051639fdf846960e01b815290516000926001600160a01b031691639fdf8469916004808301926020929190829003018186803b15801561089c57600080fd5b505afa1580156108b0573d6000803e3d6000fd5b505050506040513d601f19601f820116820180604052508101906108d49190611b21565b905090565b6108e1610857565b6001600160a01b0316336001600160a01b03161461091a5760405162461bcd60e51b815260040161091190612026565b60405180910390fd5b6000600b805461092990612128565b80601f016020809104026020016040519081016040528092919081815260200182805461095590612128565b80156109a25780601f10610977576101008083540402835291602001916109a2565b820191906000526020600020905b81548152906001019060200180831161098557829003601f168201915b505085519394506109be93600b93506020870192509050611a0f565b50336001600160a01b03167f8e35157d9201b105014f0dd31c15c7476a6e82fab53da589eeb184e4927a5d4282600b6040516109fb929190611f6a565b60405180910390a25050565b60006104608261120a565b600d54604080516356c2756560e11b815290516000926001600160a01b03169163ad84eaca916004808301926020929190829003018186803b15801561089c57600080fd5b60606108d4611272565b600f6020526000908152604090208054610a7a90612128565b80601f0160208091040260200160405190810160405280929190818152602001828054610aa690612128565b8015610af35780601f10610ac857610100808354040283529160200191610af3565b820191906000526020600020905b815481529060010190602001808311610ad657829003601f168201915b505050505081565b60006001600160a01b038216610b24576040516323d3ad8160e21b815260040160405180910390fd5b506001600160a01b031660009081526007602052604090205467ffffffffffffffff1690565b336000908152600e602052604090205460ff1615610ba25760405162461bcd60e51b81526020600482015260156024820152741059191c995cdcc81a185cc81899595b881d5cd959605a1b6044820152606401610911565b610c0c338430604051602001610bba93929190611ea8565b6040516020818303038152906040528051906020012083838080601f01602080910402602001604051908101604052809392919081815260200183838082843760009201919091525061128192505050565b610c4c5760405162461bcd60e51b8152602060048201526011602482015270496e76616c6964207369676e617475726560781b6044820152606401610911565b6000610c5b6003546002540390565b9050600a548110610cae5760405162461bcd60e51b815260206004820152601e60248201527f4d6178696d756d206c696d697420686173206265656e207265616368656400006044820152606401610911565b336000908152600e60205260409020805460ff19166001908117909155610cd690869061130a565b610ce08185611328565b5050505050565b600d546040805163df727d3b60e01b815290516000926001600160a01b03169163df727d3b916004808301926020929190829003018186803b15801561089c57600080fd5b60606005805461047590612128565b6001600160a01b038216331415610d655760405163b06307db60e01b815260040160405180910390fd5b3360008181526009602090815260408083206001600160a01b03871680855290835292819020805460ff191686151590811790915590519081529192917f17307eab39ab6107e8899845ad3d59bd9653f200f220920489ca2b5937696c31910160405180910390a35050565b610ddc8484846105dc565b6001600160a01b0383163b15610e1557610df884848484611347565b610e15576040516368d2bf6b60e11b815260040160405180910390fd5b50505050565b600c546001600160a01b03163314610e455760405162461bcd60e51b815260040161091190612026565b6001600160a01b038116610e8d5760405162461bcd60e51b815260206004820152600f60248201526e496e76616c6964206164647265737360881b6044820152606401610911565b600c80546001600160a01b038381166001600160a01b031983168117909355604051928352169081907fe4a71635009c69af0c606c5d16f7ccaaf06ff0d5d072216bd8f030383dde9e61906020016109fb565b6060610eeb826111e2565b610f2e5760405162461bcd60e51b8152602060048201526014602482015273151bdad95b88191bd95cc81b9bdd08195e1a5cdd60621b6044820152606401610911565b6000828152600f602052604081208054610f4790612128565b80601f0160208091040260200160405190810160405280929190818152602001828054610f7390612128565b8015610fc05780601f10610f9557610100808354040283529160200191610fc0565b820191906000526020600020905b815481529060010190602001808311610fa357829003601f168201915b505050505090506000610fd1611272565b9050805160001415610fe4575092915050565b815115611016578082604051602001610ffe929190611eeb565b60405160208183030381529060405292505050919050565b61101f8461143e565b949350505050565b61102f610857565b6001600160a01b0316336001600160a01b03161461105f5760405162461bcd60e51b815260040161091190612026565b6001600160a01b0381163b6110a85760405162461bcd60e51b815260206004820152600f60248201526e496e76616c6964206164647265737360881b6044820152606401610911565b600d80546001600160a01b038381166001600160a01b0319831681179093556040805191909216808252602082019390935233917f59f321e63e0bdeefb4c7efac954b9e53e8f069d9b1f6b8ac3ad03c7178b5efa591016109fb565b600d5460408051635af72f4760e01b815290516060926001600160a01b031691635af72f47916004808301926000929190829003018186803b15801561114957600080fd5b505afa15801561115d573d6000803e3d6000fd5b505050506040513d6000823e601f3d908101601f191682016040526108d49190810190611dd0565b6001600160a01b03163b151590565b60006301ffc9a760e01b6001600160e01b0319831614806111c557506380ac58cd60e01b6001600160e01b03198316145b806104605750506001600160e01b031916635b5e139f60e01b1490565b600060025482108015610460575050600090815260066020526040902054600160e01b161590565b60008160025481101561125957600081815260066020526040902054600160e01b8116611257575b80611250575060001901600081815260066020526040902054611232565b9392505050565b505b604051636f96cda160e11b815260040160405180910390fd5b6060600b805461047590612128565b6000806112db846040517f19457468657265756d205369676e6564204d6573736167653a0a3332000000006020820152603c8101829052600090605c01604051602081830303815290604052805190602001209050919050565b90506112e5610a12565b6001600160a01b03166112f882856114c2565b6001600160a01b031614949350505050565b6113248282604051806020016040528060008152506114e6565b5050565b6000828152600f60209081526040909120825161085292840190611a0f565b604051630a85bd0160e11b81526000906001600160a01b0385169063150b7a029061137c903390899088908890600401611f1a565b602060405180830381600087803b15801561139657600080fd5b505af19250505080156113c6575060408051601f3d908101601f191682019092526113c391810190611d81565b60015b611421573d8080156113f4576040519150601f19603f3d011682016040523d82523d6000602084013e6113f9565b606091505b508051611419576040516368d2bf6b60e11b815260040160405180910390fd5b805181602001fd5b6001600160e01b031916630a85bd0160e11b149050949350505050565b6060611449826111e2565b61146657604051630a14c4b560e41b815260040160405180910390fd5b6000611470611272565b90508051600014156114915760405180602001604052806000815250611250565b8061149b8461154c565b6040516020016114ac929190611eeb565b6040516020818303038152906040529392505050565b60008060006114d1858561159b565b915091506114de81611608565b509392505050565b6114f0838361180c565b6001600160a01b0383163b15610852576002548281035b61151a6000868380600101945086611347565b611537576040516368d2bf6b60e11b815260040160405180910390fd5b818110611507578160025414610ce057600080fd5b604080516080810191829052607f0190826030600a8206018353600a90045b801561158957600183039250600a81066030018353600a900461156b565b50819003601f19909101908152919050565b6000808251604114156115d25760208301516040840151606085015160001a6115c6878285856118e9565b94509450505050610830565b8251604014156115fc57602083015160408401516115f18683836119d6565b935093505050610830565b50600090506002610830565b600081600481111561162a57634e487b7160e01b600052602160045260246000fd5b14156116335750565b600181600481111561165557634e487b7160e01b600052602160045260246000fd5b14156116a35760405162461bcd60e51b815260206004820152601860248201527f45434453413a20696e76616c6964207369676e617475726500000000000000006044820152606401610911565b60028160048111156116c557634e487b7160e01b600052602160045260246000fd5b14156117135760405162461bcd60e51b815260206004820152601f60248201527f45434453413a20696e76616c6964207369676e6174757265206c656e677468006044820152606401610911565b600381600481111561173557634e487b7160e01b600052602160045260246000fd5b141561178e5760405162461bcd60e51b815260206004820152602260248201527f45434453413a20696e76616c6964207369676e6174757265202773272076616c604482015261756560f01b6064820152608401610911565b60048160048111156117b057634e487b7160e01b600052602160045260246000fd5b14156118095760405162461bcd60e51b815260206004820152602260248201527f45434453413a20696e76616c6964207369676e6174757265202776272076616c604482015261756560f01b6064820152608401610911565b50565b6002546001600160a01b03831661183557604051622e076360e81b815260040160405180910390fd5b816118535760405163b562e8dd60e01b815260040160405180910390fd5b6001600160a01b038316600081815260076020526040902080546801000000000000000185020190554260a01b6001841460e11b1717600082815260066020526040902055808281015b6040516001830192906001600160a01b038716906000907fddf252ad1be2c89b69c2b068fc378daa952ba7f163c4a11628f55a4df523b3ef908290a480821061189d5760025550505050565b6000807f7fffffffffffffffffffffffffffffff5d576e7357a4501ddfe92f46681b20a083111561192057506000905060036119cd565b8460ff16601b1415801561193857508460ff16601c14155b1561194957506000905060046119cd565b6040805160008082526020820180845289905260ff881692820192909252606081018690526080810185905260019060a0016020604051602081039080840390855afa15801561199d573d6000803e3d6000fd5b5050604051601f1901519150506001600160a01b0381166119c6576000600192509250506119cd565b9150600090505b94509492505050565b6000806001600160ff1b038316816119f360ff86901c601b6120a5565b9050611a01878288856118e9565b935093505050935093915050565b828054611a1b90612128565b90600052602060002090601f016020900481019282611a3d5760008555611a83565b82601f10611a5657805160ff1916838001178555611a83565b82800160010185558215611a83579182015b82811115611a83578251825591602001919060010190611a68565b50611a8f929150611a93565b5090565b5b80821115611a8f5760008155600101611a94565b6000611abb611ab68461207d565b61204c565b9050828152838383011115611acf57600080fd5b828260208301376000602084830101529392505050565b600082601f830112611af6578081fd5b61125083833560208501611aa8565b600060208284031215611b16578081fd5b81356112508161218f565b600060208284031215611b32578081fd5b81516112508161218f565b60008060408385031215611b4f578081fd5b8235611b5a8161218f565b91506020830135611b6a8161218f565b809150509250929050565b600080600060608486031215611b89578081fd5b8335611b948161218f565b92506020840135611ba48161218f565b929592945050506040919091013590565b60008060008060808587031215611bca578081fd5b8435611bd58161218f565b93506020850135611be58161218f565b925060408501359150606085013567ffffffffffffffff811115611c07578182fd5b8501601f81018713611c17578182fd5b611c2687823560208401611aa8565b91505092959194509250565b60008060408385031215611c44578182fd5b8235611c4f8161218f565b915060208301358015158114611b6a578182fd5b60008060008060608587031215611c78578384fd5b8435611c838161218f565b9350602085013567ffffffffffffffff80821115611c9f578485fd5b611cab88838901611ae6565b94506040870135915080821115611cc0578384fd5b818701915087601f830112611cd3578384fd5b813581811115611ce1578485fd5b886020828501011115611cf2578485fd5b95989497505060200194505050565b60008060408385031215611d13578182fd5b8235611d1e8161218f565b946020939093013593505050565b60008060408385031215611d3e578182fd5b8251611d498161218f565b60208401519092506001600160601b0381168114611b6a578182fd5b600060208284031215611d76578081fd5b8135611250816121a4565b600060208284031215611d92578081fd5b8151611250816121a4565b600060208284031215611dae578081fd5b813567ffffffffffffffff811115611dc4578182fd5b61101f84828501611ae6565b600060208284031215611de1578081fd5b815167ffffffffffffffff811115611df7578182fd5b8201601f81018413611e07578182fd5b8051611e15611ab68261207d565b818152856020838501011115611e29578384fd5b611e3a8260208301602086016120fc565b95945050505050565b600060208284031215611e54578081fd5b5035919050565b60008060408385031215611e6d578182fd5b50508035926020909101359150565b60008151808452611e948160208601602086016120fc565b601f01601f19169290920160200192915050565b60006001600160601b0319808660601b1683528451611ece8160148601602089016120fc565b60609490941b169190920160148101919091526028019392505050565b60008351611efd8184602088016120fc565b835190830190611f118183602088016120fc565b01949350505050565b6001600160a01b0385811682528416602082015260408101839052608060608201819052600090611f4d90830184611e7c565b9695505050505050565b6020815260006112506020830184611e7c565b604081526000611f7d6040830185611e7c565b60208382038185015282855484600182811c915080831680611fa057607f831692505b858310811415611fbe57634e487b7160e01b88526022600452602488fd5b828752602087019650808015611fdb5760018114611fec57612016565b60ff19851688528688019550612016565b60008b815260209020895b858110156120105781548a820152908401908801611ff7565b89019650505b50939a9950505050505050505050565b6020808252600c908201526b155b985d5d1a1bdc9a5e995960a21b604082015260600190565b604051601f8201601f1916810167ffffffffffffffff8111828210171561207557612075612179565b604052919050565b600067ffffffffffffffff82111561209757612097612179565b50601f01601f191660200190565b600082198211156120b8576120b8612163565b500190565b6000826120d857634e487b7160e01b81526012600452602481fd5b500490565b60008160001904831182151516156120f7576120f7612163565b500290565b60005b838110156121175781810151838201526020016120ff565b83811115610e155750506000910152565b600181811c9082168061213c57607f821691505b6020821081141561215d57634e487b7160e01b600052602260045260246000fd5b50919050565b634e487b7160e01b600052601160045260246000fd5b634e487b7160e01b600052604160045260246000fd5b6001600160a01b038116811461180957600080fd5b6001600160e01b03198116811461180957600080fdfea2646970667358221220cbd76351345d2e9894895028339f07626e1f4afa8d041d90b62dfec175d73a5b64736f6c63430008040033a26469706673582212209227a5cc9d6a7e8d0c94a5aec7212dbbe9396b7be87af6710cae02362ef5b17a64736f6c63430008040033",
  "devdoc": {
    "kind": "dev",
    "methods": {
      "changeFactoryRoyaltyRegistry(address)": {
        "details": "Update the royalty registry address.",
        "params": {
          "_royaltyRegistry": "new royalty registry address."
        }
      },
      "createModelNFT(string,string,address,address,uint96,uint256)": {
        "details": "Create new model NFT smart contract with parameters.",
        "params": {
          "_designer": "Address of designer.",
          "_mintLimit": "upper limit of minting.",
          "_modelID": "ID of model.",
          "_modelName": "name of model.",
          "_royaltyRate": "royalty Rate",
          "_royaltyReceiver": "Address of royalty receiver."
        }
      },
      "initialize(address)": {
        "details": "initialization function for proxy.",
        "params": {
          "_royaltyRegistry": "royalty registry address."
        }
      },
      "owner()": {
        "details": "Returns the address of the current owner."
      },
      "renounceOwnership()": {
        "details": "Leaves the contract without owner. It will not be possible to call `onlyOwner` functions anymore. Can only be called by the current owner. NOTE: Renouncing ownership will leave the contract without an owner, thereby removing any functionality that is only available to the owner."
      },
      "transferOwnership(address)": {
        "details": "Transfers ownership of the contract to a new account (`newOwner`). Can only be called by the current owner."
      }
    },
    "stateVariables": {
      "factoryRoyaltyRegistry": {
        "details": "royalty registry address that store the royalty info."
      }
    },
    "version": 1
  },
  "userdoc": {
    "kind": "user",
    "methods": {},
    "version": 1
  },
  "storageLayout": {
    "storage": [
      {
        "astId": 138,
        "contract": "contracts/ModelNFTFactory.sol:ModelNFTFactory",
        "label": "_initialized",
        "offset": 0,
        "slot": "0",
        "type": "t_uint8"
      },
      {
        "astId": 141,
        "contract": "contracts/ModelNFTFactory.sol:ModelNFTFactory",
        "label": "_initializing",
        "offset": 1,
        "slot": "0",
        "type": "t_bool"
      },
      {
        "astId": 566,
        "contract": "contracts/ModelNFTFactory.sol:ModelNFTFactory",
        "label": "__gap",
        "offset": 0,
        "slot": "1",
        "type": "t_array(t_uint256)50_storage"
      },
      {
        "astId": 10,
        "contract": "contracts/ModelNFTFactory.sol:ModelNFTFactory",
        "label": "_owner",
        "offset": 0,
        "slot": "51",
        "type": "t_address"
      },
      {
        "astId": 130,
        "contract": "contracts/ModelNFTFactory.sol:ModelNFTFactory",
        "label": "__gap",
        "offset": 0,
        "slot": "52",
        "type": "t_array(t_uint256)49_storage"
      },
      {
        "astId": 3180,
        "contract": "contracts/ModelNFTFactory.sol:ModelNFTFactory",
        "label": "_modelNFT",
        "offset": 0,
        "slot": "101",
        "type": "t_contract(ModelNFT)3170"
      },
      {
        "astId": 3184,
        "contract": "contracts/ModelNFTFactory.sol:ModelNFTFactory",
        "label": "modelNFTs",
        "offset": 0,
        "slot": "102",
        "type": "t_mapping(t_string_memory_ptr,t_address)"
      },
      {
        "astId": 3188,
        "contract": "contracts/ModelNFTFactory.sol:ModelNFTFactory",
        "label": "factoryRoyaltyRegistry",
        "offset": 0,
        "slot": "103",
        "type": "t_contract(IRoyaltyRegistry)3419"
      }
    ],
    "types": {
      "t_address": {
        "encoding": "inplace",
        "label": "address",
        "numberOfBytes": "20"
      },
      "t_array(t_uint256)49_storage": {
        "base": "t_uint256",
        "encoding": "inplace",
        "label": "uint256[49]",
        "numberOfBytes": "1568"
      },
      "t_array(t_uint256)50_storage": {
        "base": "t_uint256",
        "encoding": "inplace",
        "label": "uint256[50]",
        "numberOfBytes": "1600"
      },
      "t_bool": {
        "encoding": "inplace",
        "label": "bool",
        "numberOfBytes": "1"
      },
      "t_contract(IRoyaltyRegistry)3419": {
        "encoding": "inplace",
        "label": "contract IRoyaltyRegistry",
        "numberOfBytes": "20"
      },
      "t_contract(ModelNFT)3170": {
        "encoding": "inplace",
        "label": "contract ModelNFT",
        "numberOfBytes": "20"
      },
      "t_mapping(t_string_memory_ptr,t_address)": {
        "encoding": "mapping",
        "key": "t_string_memory_ptr",
        "label": "mapping(string => address)",
        "numberOfBytes": "32",
        "value": "t_address"
      },
      "t_string_memory_ptr": {
        "encoding": "bytes",
        "label": "string",
        "numberOfBytes": "32"
      },
      "t_uint256": {
        "encoding": "inplace",
        "label": "uint256",
        "numberOfBytes": "32"
      },
      "t_uint8": {
        "encoding": "inplace",
        "label": "uint8",
        "numberOfBytes": "1"
      }
    }
  }
}