{
  "address": "0x7f08649C24846D79FB46402C6f0eD85066917C09",
  "abi": [
    {
      "anonymous": false,
      "inputs": [
        {
          "indexed": false,
          "internalType": "uint8",
          "name": "version",
          "type": "uint8"
        }
      ],
      "name": "Initialized",
      "type": "event"
    },
    {
      "anonymous": false,
      "inputs": [
        {
          "indexed": true,
          "internalType": "string",
          "name": "modelID",
          "type": "string"
        },
        {
          "indexed": false,
          "internalType": "address",
          "name": "modelNFTAddress",
          "type": "address"
        }
      ],
      "name": "NFTCreated",
      "type": "event"
    },
    {
      "anonymous": false,
      "inputs": [
        {
          "indexed": true,
          "internalType": "address",
          "name": "previousOwner",
          "type": "address"
        },
        {
          "indexed": true,
          "internalType": "address",
          "name": "newOwner",
          "type": "address"
        }
      ],
      "name": "OwnershipTransferred",
      "type": "event"
    },
    {
      "anonymous": false,
      "inputs": [
        {
          "indexed": true,
          "internalType": "address",
          "name": "_sender",
          "type": "address"
        },
        {
          "indexed": false,
          "internalType": "address",
          "name": "_oldAddress",
          "type": "address"
        },
        {
          "indexed": false,
          "internalType": "address",
          "name": "_newAddress",
          "type": "address"
        }
      ],
      "name": "RoyaltyRegistryUpdated",
      "type": "event"
    },
    {
      "inputs": [
        {
          "internalType": "address",
          "name": "_royaltyRegistry",
          "type": "address"
        }
      ],
      "name": "changeFactoryRoyaltyRegistry",
      "outputs": [],
      "stateMutability": "nonpayable",
      "type": "function"
    },
    {
      "inputs": [
        {
          "internalType": "string",
          "name": "_modelName",
          "type": "string"
        },
        {
          "internalType": "string",
          "name": "_modelID",
          "type": "string"
        },
        {
          "internalType": "address",
          "name": "_tokenPayment",
          "type": "address"
        },
        {
          "internalType": "address",
          "name": "_designer",
          "type": "address"
        },
        {
          "internalType": "address",
          "name": "_royaltyReceiver",
          "type": "address"
        },
        {
          "internalType": "uint96",
          "name": "_royaltyRate",
          "type": "uint96"
        },
        {
          "internalType": "uint256",
          "name": "_mintLimit",
          "type": "uint256"
        }
      ],
      "name": "createModelNFT",
      "outputs": [],
      "stateMutability": "nonpayable",
      "type": "function"
    },
    {
      "inputs": [],
      "name": "factoryRoyaltyRegistry",
      "outputs": [
        {
          "internalType": "contract IRoyaltyRegistry",
          "name": "",
          "type": "address"
        }
      ],
      "stateMutability": "view",
      "type": "function"
    },
    {
      "inputs": [
        {
          "internalType": "address",
          "name": "_royaltyRegistry",
          "type": "address"
        }
      ],
      "name": "initialize",
      "outputs": [],
      "stateMutability": "nonpayable",
      "type": "function"
    },
    {
      "inputs": [
        {
          "internalType": "string",
          "name": "",
          "type": "string"
        }
      ],
      "name": "modelNFTs",
      "outputs": [
        {
          "internalType": "address",
          "name": "",
          "type": "address"
        }
      ],
      "stateMutability": "view",
      "type": "function"
    },
    {
      "inputs": [],
      "name": "owner",
      "outputs": [
        {
          "internalType": "address",
          "name": "",
          "type": "address"
        }
      ],
      "stateMutability": "view",
      "type": "function"
    },
    {
      "inputs": [],
      "name": "renounceOwnership",
      "outputs": [],
      "stateMutability": "nonpayable",
      "type": "function"
    },
    {
      "inputs": [
        {
          "internalType": "address",
          "name": "newOwner",
          "type": "address"
        }
      ],
      "name": "transferOwnership",
      "outputs": [],
      "stateMutability": "nonpayable",
      "type": "function"
    }
  ],
  "transactionHash": "0xe17c3f075fa7adc1218525d48b91ac9fdba24269b3848905bb4eaf23a7d42536",
  "args": [],
  "numDeployments": 1,
  "solcInputHash": "53b5bea929318b59c5c3d2003c4e6710",
  "bytecode": "0x608060405234801561001057600080fd5b5061385d806100206000396000f3fe60806040523480156200001157600080fd5b5060043610620000935760003560e01c80638da5cb5b11620000625780638da5cb5b1462000102578063c4d66de81462000114578063df9ce002146200012b578063f2fde38b146200016257600080fd5b806333eaa20c14620000985780634356bd9e14620000c857806345bef8ca14620000e1578063715018a614620000f8575b600080fd5b606754620000ac906001600160a01b031681565b6040516001600160a01b03909116815260200160405180910390f35b620000df620000d936600462000931565b62000179565b005b620000df620000f236600462000994565b62000234565b620000df6200052c565b6033546001600160a01b0316620000ac565b620000df6200012536600462000931565b62000544565b620000ac6200013c36600462000955565b80516020818301810180516066825292820191909301209152546001600160a01b031681565b620000df6200017336600462000931565b620006d2565b6200018362000751565b6001600160a01b038116620001d15760405162461bcd60e51b815260206004820152600f60248201526e496e76616c6964206164647265737360881b60448201526064015b60405180910390fd5b606780546001600160a01b038381166001600160a01b0319831681179093556040805191909216808252602082019390935233917f59f321e63e0bdeefb4c7efac954b9e53e8f069d9b1f6b8ac3ad03c7178b5efa5910160405180910390a25050565b600081116200027b5760405162461bcd60e51b8152602060048201526012602482015271125b9d985b1a59081b5a5b9d081b1a5b5a5d60721b6044820152606401620001c8565b60006001600160a01b031660668760405162000298919062000a91565b908152604051908190036020019020546001600160a01b031614620002f95760405162461bcd60e51b8152602060048201526016602482015275135bd9195b081251081a185cc81899595b881d5cd95960521b6044820152606401620001c8565b6001600160a01b038416620003515760405162461bcd60e51b815260206004820152601860248201527f496e76616c69642064657369676e6572206164647265737300000000000000006044820152606401620001c8565b6001600160a01b038316620003a95760405162461bcd60e51b815260206004820181905260248201527f496e76616c696420726f79616c747920726563656976657220616464726573736044820152606401620001c8565b606754604051889188918491899189916001600160a01b031690620003ce9062000877565b620003df9695949392919062000aaf565b604051809103906000f080158015620003fc573d6000803e3d6000fd5b50606580546001600160a01b0319166001600160a01b039290921691821790556040516066906200042f90899062000a91565b90815260405190819003602001812080546001600160a01b039384166001600160a01b031990911617905560675460655463647a5c8560e01b8352831660048301526bffffffffffffffffffffffff8516602483015285831660448301529091169063647a5c8590606401600060405180830381600087803b158015620004b557600080fd5b505af1158015620004ca573d6000803e3d6000fd5b5050505085604051620004de919062000a91565b6040519081900381206065546001600160a01b03168252907fe6248a7d8f06d4dc9c3d4c896b3462838d9c7422ecf0b07df2de587aca9ebab29060200160405180910390a250505050505050565b6200053662000751565b620005426000620007ad565b565b600054610100900460ff1615808015620005655750600054600160ff909116105b80620005815750303b15801562000581575060005460ff166001145b620005e65760405162461bcd60e51b815260206004820152602e60248201527f496e697469616c697a61626c653a20636f6e747261637420697320616c72656160448201526d191e481a5b9a5d1a585b1a5e995960921b6064820152608401620001c8565b6000805460ff1916600117905580156200060a576000805461ff0019166101001790555b6001600160a01b038216620006625760405162461bcd60e51b815260206004820152601760248201527f496e76616c696420726f79616c747920616464726573730000000000000000006044820152606401620001c8565b606780546001600160a01b0319166001600160a01b03841617905562000687620007ff565b8015620006ce576000805461ff0019169055604051600181527f7f26b83ff96e1f2b6a682f133852f6798a09c465da95921460cefb38474024989060200160405180910390a15b5050565b620006dc62000751565b6001600160a01b038116620007435760405162461bcd60e51b815260206004820152602660248201527f4f776e61626c653a206e6577206f776e657220697320746865207a65726f206160448201526564647265737360d01b6064820152608401620001c8565b6200074e81620007ad565b50565b6033546001600160a01b03163314620005425760405162461bcd60e51b815260206004820181905260248201527f4f776e61626c653a2063616c6c6572206973206e6f7420746865206f776e65726044820152606401620001c8565b603380546001600160a01b038381166001600160a01b0319831681179093556040519116919082907f8be0079c531659141344cd1fd0a4f28419497f9722a3daafe3b4186f6b6457e090600090a35050565b600054610100900460ff166200086c5760405162461bcd60e51b815260206004820152602b60248201527f496e697469616c697a61626c653a20636f6e7472616374206973206e6f74206960448201526a6e697469616c697a696e6760a81b6064820152608401620001c8565b6200054233620007ad565b612cd58062000b5383390190565b80356001600160a01b03811681146200089d57600080fd5b919050565b600082601f830112620008b3578081fd5b813567ffffffffffffffff80821115620008d157620008d162000b3c565b604051601f8301601f19908116603f01168101908282118183101715620008fc57620008fc62000b3c565b8160405283815286602085880101111562000915578485fd5b8360208701602083013792830160200193909352509392505050565b60006020828403121562000943578081fd5b6200094e8262000885565b9392505050565b60006020828403121562000967578081fd5b813567ffffffffffffffff8111156200097e578182fd5b6200098c84828501620008a2565b949350505050565b600080600080600080600060e0888a031215620009af578283fd5b873567ffffffffffffffff80821115620009c7578485fd5b620009d58b838c01620008a2565b985060208a0135915080821115620009eb578485fd5b50620009fa8a828b01620008a2565b96505062000a0b6040890162000885565b945062000a1b6060890162000885565b935062000a2b6080890162000885565b925060a08801356bffffffffffffffffffffffff8116811462000a4c578283fd5b8092505060c0880135905092959891949750929550565b6000815180845262000a7d81602086016020860162000b09565b601f01601f19169290920160200192915050565b6000825162000aa581846020870162000b09565b9190910192915050565b60c08152600062000ac460c083018962000a63565b828103602084015262000ad8818962000a63565b604084019790975250506001600160a01b039384166060820152918316608083015290911660a09091015292915050565b60005b8381101562000b2657818101518382015260200162000b0c565b8381111562000b36576000848401525b50505050565b634e487b7160e01b600052604160045260246000fdfe60806040523480156200001157600080fd5b5060405162002cd538038062002cd58339810160408190526200003491620002a4565b8551869086906200004d9060049060208501906200012e565b508051620000639060059060208401906200012e565b506000600281905550505062000084816200011f60201b620015a51760201c565b620000d55760405162461bcd60e51b815260206004820181905260248201527f496e76616c696420726f79616c74792072656769737472792061646472657373604482015260640160405180910390fd5b601080546001600160a01b03199081166001600160a01b0395861617909155600a94909455600c8054851692841692909217909155600d80549093169116179055506200039e9050565b6001600160a01b03163b151590565b8280546200013c906200034b565b90600052602060002090601f016020900481019282620001605760008555620001ab565b82601f106200017b57805160ff1916838001178555620001ab565b82800160010185558215620001ab579182015b82811115620001ab5782518255916020019190600101906200018e565b50620001b9929150620001bd565b5090565b5b80821115620001b95760008155600101620001be565b80516001600160a01b0381168114620001ec57600080fd5b919050565b600082601f83011262000202578081fd5b81516001600160401b03808211156200021f576200021f62000388565b604051601f8301601f19908116603f011681019082821181831017156200024a576200024a62000388565b8160405283815260209250868385880101111562000266578485fd5b8491505b838210156200028957858201830151818301840152908201906200026a565b838211156200029a57848385830101525b9695505050505050565b60008060008060008060c08789031215620002bd578182fd5b86516001600160401b0380821115620002d4578384fd5b620002e28a838b01620001f1565b97506020890151915080821115620002f8578384fd5b506200030789828a01620001f1565b955050604087015193506200031f60608801620001d4565b92506200032f60808801620001d4565b91506200033f60a08801620001d4565b90509295509295509295565b600181811c908216806200036057607f821691505b602082108114156200038257634e487b7160e01b600052602260045260246000fd5b50919050565b634e487b7160e01b600052604160045260246000fd5b61292780620003ae6000396000f3fe6080604052600436106101d85760003560e01c806370a0823111610102578063afc6ef6011610095578063ce9c751c11610064578063ce9c751c14610552578063d4ddce8a14610572578063e8a3d48514610592578063e985e9c5146105a757600080fd5b8063afc6ef60146104c2578063b88d4fde146104f2578063c1b0e91f14610512578063c87b56dd1461053257600080fd5b8063a11b0712116100d1578063a11b071214610442578063a22cb46514610462578063a2bde87614610482578063a4f3a7c7146104a257600080fd5b806370a08231146103e25780638da5cb5b1461040257806395d89b4114610417578063996517cf1461042c57600080fd5b806342842e0e1161017a5780636352211e116101495780636352211e14610378578063699bff80146103985780636c0360eb146103ad5780636c8b703f146103c257600080fd5b806342842e0e14610310578063481c6a75146103305780635523c2501461034557806355f804b31461035857600080fd5b8063095ea7b3116101b6578063095ea7b31461026c57806318160ddd1461028e57806323b872dd146102b15780632a55205a146102d157600080fd5b806301ffc9a7146101dd57806306fdde0314610212578063081812fc14610234575b600080fd5b3480156101e957600080fd5b506101fd6101f8366004612456565b6105f0565b60405190151581526020015b60405180910390f35b34801561021e57600080fd5b5061022761061b565b6040516102099190612680565b34801561024057600080fd5b5061025461024f366004612534565b6106ad565b6040516001600160a01b039091168152602001610209565b34801561027857600080fd5b5061028c6102873660046123d6565b6106f1565b005b34801561029a57600080fd5b50600354600254035b604051908152602001610209565b3480156102bd57600080fd5b5061028c6102cc366004612241565b610791565b3480156102dd57600080fd5b506102f16102ec366004612564565b610922565b604080516001600160a01b039093168352602083019190915201610209565b34801561031c57600080fd5b5061028c61032b366004612241565b6109ec565b34801561033c57600080fd5b50610254610a0c565b61028c61035336600461232b565b610a8e565b34801561036457600080fd5b5061028c61037336600461248e565b610e22565b34801561038457600080fd5b50610254610393366004612534565b610f47565b3480156103a457600080fd5b50610254610f52565b3480156103b957600080fd5b50610227610f97565b3480156103ce57600080fd5b506102276103dd366004612534565b610fa1565b3480156103ee57600080fd5b506102a36103fd3660046121d1565b61103b565b34801561040e57600080fd5b5061025461108a565b34801561042357600080fd5b506102276110cf565b34801561043857600080fd5b506102a3600a5481565b34801561044e57600080fd5b50600d54610254906001600160a01b031681565b34801561046e57600080fd5b5061028c61047d3660046122fe565b6110de565b34801561048e57600080fd5b50600c54610254906001600160a01b031681565b3480156104ae57600080fd5b50601054610254906001600160a01b031681565b3480156104ce57600080fd5b506101fd6104dd3660046121d1565b600e6020526000908152604090205460ff1681565b3480156104fe57600080fd5b5061028c61050d366004612281565b611174565b34801561051e57600080fd5b5061028c61052d3660046121d1565b6111be565b34801561053e57600080fd5b5061022761054d366004612534565b611283565b34801561055e57600080fd5b5061028c61056d3660046121d1565b6113ca565b34801561057e57600080fd5b506102a361058d366004612534565b6114a7565b34801561059e57600080fd5b50610227611524565b3480156105b357600080fd5b506101fd6105c2366004612209565b6001600160a01b03918216600090815260096020908152604080832093909416825291909152205460ff1690565b60006001600160e01b0319821663152a902d60e11b14806106155750610615826115b4565b92915050565b60606004805461062a90612851565b80601f016020809104026020016040519081016040528092919081815260200182805461065690612851565b80156106a35780601f10610678576101008083540402835291602001916106a3565b820191906000526020600020905b81548152906001019060200180831161068657829003601f168201915b5050505050905090565b60006106b882611602565b6106d5576040516333d1c03960e21b815260040160405180910390fd5b506000908152600860205260409020546001600160a01b031690565b60006106fc82610f47565b9050336001600160a01b038216146107355761071881336105c2565b610735576040516367d9dca160e11b815260040160405180910390fd5b60008281526008602052604080822080546001600160a01b0319166001600160a01b0387811691821790925591518593918516917f8c5be1e5ebec7d5bd14f71427d1e84f3dd0314c0f7b2291e5b200ac8c7c3b92591a4505050565b600061079c8261162a565b9050836001600160a01b0316816001600160a01b0316146107cf5760405162a1148160e81b815260040160405180910390fd5b60008281526008602052604090208054338082146001600160a01b0388169091141761081c576107ff86336105c2565b61081c57604051632ce44b5f60e11b815260040160405180910390fd5b6001600160a01b03851661084357604051633a954ecd60e21b815260040160405180910390fd5b801561084e57600082555b6001600160a01b038681166000908152600760205260408082208054600019019055918716808252919020805460010190554260a01b17600160e11b17600085815260066020526040902055600160e11b83166108d957600184016000818152600660205260409020546108d75760025481146108d75760008181526006602052604090208490555b505b83856001600160a01b0316876001600160a01b03167fddf252ad1be2c89b69c2b068fc378daa952ba7f163c4a11628f55a4df523b3ef60405160405180910390a4505050505050565b600d54604051630dda81bd60e21b81523060048201526000918291829182916001600160a01b039091169063376a06f490602401604080518083038186803b15801561096d57600080fd5b505afa158015610981573d6000803e3d6000fd5b505050506040513d601f19601f820116820180604052508101906109a59190612401565b9150915060006109b461271090565b6001600160601b0316826001600160601b0316876109d29190612806565b6109dc91906127e6565b92945091925050505b9250929050565b610a0783838360405180602001604052806000815250611174565b505050565b600d5460408051639fdf846960e01b815290516000926001600160a01b031691639fdf8469916004808301926020929190829003018186803b158015610a5157600080fd5b505afa158015610a65573d6000803e3d6000fd5b505050506040513d601f19601f82011682018060405250810190610a8991906121ed565b905090565b336000908152600e602052604090205460ff1615610aeb5760405162461bcd60e51b81526020600482015260156024820152741059191c995cdcc81a185cc81899595b881d5cd959605a1b60448201526064015b60405180910390fd5b610b5733858530604051602001610b0594939291906125b1565b6040516020818303038152906040528051906020012083838080601f01602080910402602001604051908101604052809392919081815260200183838082843760009201919091525061169292505050565b610b975760405162461bcd60e51b8152602060048201526011602482015270496e76616c6964207369676e617475726560781b6044820152606401610ae2565b600d5460408051639fdf846960e01b815290516000926001600160a01b031691639fdf8469916004808301926020929190829003018186803b158015610bdc57600080fd5b505afa158015610bf0573d6000803e3d6000fd5b505050506040513d601f19601f82011682018060405250810190610c1491906121ed565b90506000610c21856114a7565b6010549091506001600160a01b0316610d2c57803414610c835760405162461bcd60e51b815260206004820152601a60248201527f496e76616c69642065746820666f722070757263686173696e670000000000006044820152606401610ae2565b6000826001600160a01b03163460405160006040518083038185875af1925050503d8060008114610cd0576040519150601f19603f3d011682016040523d82523d6000602084013e610cd5565b606091505b5050905080610d265760405162461bcd60e51b815260206004820152601760248201527f4661696c656420746f20666f72776172642045746865720000000000000000006044820152606401610ae2565b50610d84565b3415610d6c5760405162461bcd60e51b815260206004820152600f60248201526e11551217d393d517d0531313d5d151608a1b6044820152606401610ae2565b601054610d84906001600160a01b031633848461171b565b6000610d936003546002540390565b9050600a548110610de65760405162461bcd60e51b815260206004820152601e60248201527f4d6178696d756d206c696d697420686173206265656e207265616368656400006044820152606401610ae2565b336000908152600e60205260409020805460ff19166001908117909155610e0e908990611775565b610e188188611793565b5050505050505050565b610e2a610a0c565b6001600160a01b0316336001600160a01b031614610e5a5760405162461bcd60e51b8152600401610ae29061274f565b6000600b8054610e6990612851565b80601f0160208091040260200160405190810160405280929190818152602001828054610e9590612851565b8015610ee25780601f10610eb757610100808354040283529160200191610ee2565b820191906000526020600020905b815481529060010190602001808311610ec557829003601f168201915b50508551939450610efe93600b935060208701925090506120db565b50336001600160a01b03167f8e35157d9201b105014f0dd31c15c7476a6e82fab53da589eeb184e4927a5d4282600b604051610f3b929190612693565b60405180910390a25050565b60006106158261162a565b600d54604080516356c2756560e11b815290516000926001600160a01b03169163ad84eaca916004808301926020929190829003018186803b158015610a5157600080fd5b6060610a896117b2565b600f6020526000908152604090208054610fba90612851565b80601f0160208091040260200160405190810160405280929190818152602001828054610fe690612851565b80156110335780601f1061100857610100808354040283529160200191611033565b820191906000526020600020905b81548152906001019060200180831161101657829003601f168201915b505050505081565b60006001600160a01b038216611064576040516323d3ad8160e21b815260040160405180910390fd5b506001600160a01b031660009081526007602052604090205467ffffffffffffffff1690565b600d546040805163df727d3b60e01b815290516000926001600160a01b03169163df727d3b916004808301926020929190829003018186803b158015610a5157600080fd5b60606005805461062a90612851565b6001600160a01b0382163314156111085760405163b06307db60e01b815260040160405180910390fd5b3360008181526009602090815260408083206001600160a01b03871680855290835292819020805460ff191686151590811790915590519081529192917f17307eab39ab6107e8899845ad3d59bd9653f200f220920489ca2b5937696c31910160405180910390a35050565b61117f848484610791565b6001600160a01b0383163b156111b85761119b848484846117c1565b6111b8576040516368d2bf6b60e11b815260040160405180910390fd5b50505050565b600c546001600160a01b031633146111e85760405162461bcd60e51b8152600401610ae29061274f565b6001600160a01b0381166112305760405162461bcd60e51b815260206004820152600f60248201526e496e76616c6964206164647265737360881b6044820152606401610ae2565b600c80546001600160a01b038381166001600160a01b031983168117909355604051928352169081907fe4a71635009c69af0c606c5d16f7ccaaf06ff0d5d072216bd8f030383dde9e6190602001610f3b565b606061128e82611602565b6112d15760405162461bcd60e51b8152602060048201526014602482015273151bdad95b88191bd95cc81b9bdd08195e1a5cdd60621b6044820152606401610ae2565b6000828152600f6020526040812080546112ea90612851565b80601f016020809104026020016040519081016040528092919081815260200182805461131690612851565b80156113635780601f1061133857610100808354040283529160200191611363565b820191906000526020600020905b81548152906001019060200180831161134657829003601f168201915b5050505050905060006113746117b2565b9050805160001415611387575092915050565b8151156113b95780826040516020016113a1929190612614565b60405160208183030381529060405292505050919050565b6113c2846118b8565b949350505050565b6113d2610a0c565b6001600160a01b0316336001600160a01b0316146114025760405162461bcd60e51b8152600401610ae29061274f565b6001600160a01b0381163b61144b5760405162461bcd60e51b815260206004820152600f60248201526e496e76616c6964206164647265737360881b6044820152606401610ae2565b600d80546001600160a01b038381166001600160a01b0319831681179093556040805191909216808252602082019390935233917f59f321e63e0bdeefb4c7efac954b9e53e8f069d9b1f6b8ac3ad03c7178b5efa59101610f3b565b600d5460405163c457fb3760e01b8152600481018390526000916001600160a01b03169063c457fb379060240160206040518083038186803b1580156114ec57600080fd5b505afa158015611500573d6000803e3d6000fd5b505050506040513d601f19601f82011682018060405250810190610615919061254c565b600d5460408051635af72f4760e01b815290516060926001600160a01b031691635af72f47916004808301926000929190829003018186803b15801561156957600080fd5b505afa15801561157d573d6000803e3d6000fd5b505050506040513d6000823e601f3d908101601f19168201604052610a8991908101906124c1565b6001600160a01b03163b151590565b60006301ffc9a760e01b6001600160e01b0319831614806115e557506380ac58cd60e01b6001600160e01b03198316145b806106155750506001600160e01b031916635b5e139f60e01b1490565b600060025482108015610615575050600090815260066020526040902054600160e01b161590565b60008160025481101561167957600081815260066020526040902054600160e01b8116611677575b80611670575060001901600081815260066020526040902054611652565b9392505050565b505b604051636f96cda160e11b815260040160405180910390fd5b6000806116ec846040517f19457468657265756d205369676e6564204d6573736167653a0a3332000000006020820152603c8101829052600090605c01604051602081830303815290604052805190602001209050919050565b90506116f6610f52565b6001600160a01b0316611709828561193c565b6001600160a01b031614949350505050565b604080516001600160a01b0385811660248301528416604482015260648082018490528251808303909101815260849091019091526020810180516001600160e01b03166323b872dd60e01b1790526111b8908590611960565b61178f828260405180602001604052806000815250611a32565b5050565b6000828152600f602090815260409091208251610a07928401906120db565b6060600b805461062a90612851565b604051630a85bd0160e11b81526000906001600160a01b0385169063150b7a02906117f6903390899088908890600401612643565b602060405180830381600087803b15801561181057600080fd5b505af1925050508015611840575060408051601f3d908101601f1916820190925261183d91810190612472565b60015b61189b573d80801561186e576040519150601f19603f3d011682016040523d82523d6000602084013e611873565b606091505b508051611893576040516368d2bf6b60e11b815260040160405180910390fd5b805181602001fd5b6001600160e01b031916630a85bd0160e11b149050949350505050565b60606118c382611602565b6118e057604051630a14c4b560e41b815260040160405180910390fd5b60006118ea6117b2565b905080516000141561190b5760405180602001604052806000815250611670565b8061191584611a9f565b604051602001611926929190612614565b6040516020818303038152906040529392505050565b600080600061194b8585611aee565b9150915061195881611b5b565b509392505050565b60006119b5826040518060400160405280602081526020017f5361666545524332303a206c6f772d6c6576656c2063616c6c206661696c6564815250856001600160a01b0316611d5f9092919063ffffffff16565b805190915015610a0757808060200190518101906119d3919061243a565b610a075760405162461bcd60e51b815260206004820152602a60248201527f5361666545524332303a204552433230206f7065726174696f6e20646964206e6044820152691bdd081cdd58d8d9595960b21b6064820152608401610ae2565b611a3c8383611d6e565b6001600160a01b0383163b15610a07576002548281035b611a6660008683806001019450866117c1565b611a83576040516368d2bf6b60e11b815260040160405180910390fd5b818110611a53578160025414611a9857600080fd5b5050505050565b604080516080810191829052607f0190826030600a8206018353600a90045b8015611adc57600183039250600a81066030018353600a9004611abe565b50819003601f19909101908152919050565b600080825160411415611b255760208301516040840151606085015160001a611b1987828585611e4b565b945094505050506109e5565b825160401415611b4f5760208301516040840151611b44868383611f38565b9350935050506109e5565b506000905060026109e5565b6000816004811115611b7d57634e487b7160e01b600052602160045260246000fd5b1415611b865750565b6001816004811115611ba857634e487b7160e01b600052602160045260246000fd5b1415611bf65760405162461bcd60e51b815260206004820152601860248201527f45434453413a20696e76616c6964207369676e617475726500000000000000006044820152606401610ae2565b6002816004811115611c1857634e487b7160e01b600052602160045260246000fd5b1415611c665760405162461bcd60e51b815260206004820152601f60248201527f45434453413a20696e76616c6964207369676e6174757265206c656e677468006044820152606401610ae2565b6003816004811115611c8857634e487b7160e01b600052602160045260246000fd5b1415611ce15760405162461bcd60e51b815260206004820152602260248201527f45434453413a20696e76616c6964207369676e6174757265202773272076616c604482015261756560f01b6064820152608401610ae2565b6004816004811115611d0357634e487b7160e01b600052602160045260246000fd5b1415611d5c5760405162461bcd60e51b815260206004820152602260248201527f45434453413a20696e76616c6964207369676e6174757265202776272076616c604482015261756560f01b6064820152608401610ae2565b50565b60606113c28484600085611f71565b6002546001600160a01b038316611d9757604051622e076360e81b815260040160405180910390fd5b81611db55760405163b562e8dd60e01b815260040160405180910390fd5b6001600160a01b038316600081815260076020526040902080546801000000000000000185020190554260a01b6001841460e11b1717600082815260066020526040902055808281015b6040516001830192906001600160a01b038716906000907fddf252ad1be2c89b69c2b068fc378daa952ba7f163c4a11628f55a4df523b3ef908290a4808210611dff5760025550505050565b6000807f7fffffffffffffffffffffffffffffff5d576e7357a4501ddfe92f46681b20a0831115611e825750600090506003611f2f565b8460ff16601b14158015611e9a57508460ff16601c14155b15611eab5750600090506004611f2f565b6040805160008082526020820180845289905260ff881692820192909252606081018690526080810185905260019060a0016020604051602081039080840390855afa158015611eff573d6000803e3d6000fd5b5050604051601f1901519150506001600160a01b038116611f2857600060019250925050611f2f565b9150600090505b94509492505050565b6000806001600160ff1b03831681611f5560ff86901c601b6127ce565b9050611f6387828885611e4b565b935093505050935093915050565b606082471015611fd25760405162461bcd60e51b815260206004820152602660248201527f416464726573733a20696e73756666696369656e742062616c616e636520666f6044820152651c8818d85b1b60d21b6064820152608401610ae2565b6001600160a01b0385163b6120295760405162461bcd60e51b815260206004820152601d60248201527f416464726573733a2063616c6c20746f206e6f6e2d636f6e74726163740000006044820152606401610ae2565b600080866001600160a01b0316858760405161204591906125f8565b60006040518083038185875af1925050503d8060008114612082576040519150601f19603f3d011682016040523d82523d6000602084013e612087565b606091505b50915091506120978282866120a2565b979650505050505050565b606083156120b1575081611670565b8251156120c15782518084602001fd5b8160405162461bcd60e51b8152600401610ae29190612680565b8280546120e790612851565b90600052602060002090601f016020900481019282612109576000855561214f565b82601f1061212257805160ff191683800117855561214f565b8280016001018555821561214f579182015b8281111561214f578251825591602001919060010190612134565b5061215b92915061215f565b5090565b5b8082111561215b5760008155600101612160565b6000612187612182846127a6565b612775565b905082815283838301111561219b57600080fd5b828260208301376000602084830101529392505050565b600082601f8301126121c2578081fd5b61167083833560208501612174565b6000602082840312156121e2578081fd5b8135611670816128b8565b6000602082840312156121fe578081fd5b8151611670816128b8565b6000806040838503121561221b578081fd5b8235612226816128b8565b91506020830135612236816128b8565b809150509250929050565b600080600060608486031215612255578081fd5b8335612260816128b8565b92506020840135612270816128b8565b929592945050506040919091013590565b60008060008060808587031215612296578081fd5b84356122a1816128b8565b935060208501356122b1816128b8565b925060408501359150606085013567ffffffffffffffff8111156122d3578182fd5b8501601f810187136122e3578182fd5b6122f287823560208401612174565b91505092959194509250565b60008060408385031215612310578182fd5b823561231b816128b8565b91506020830135612236816128cd565b600080600080600060808688031215612342578081fd5b853561234d816128b8565b9450602086013567ffffffffffffffff80821115612369578283fd5b61237589838a016121b2565b9550604088013594506060880135915080821115612391578283fd5b818801915088601f8301126123a4578283fd5b8135818111156123b2578384fd5b8960208285010111156123c3578384fd5b9699959850939650602001949392505050565b600080604083850312156123e8578182fd5b82356123f3816128b8565b946020939093013593505050565b60008060408385031215612413578182fd5b825161241e816128b8565b60208401519092506001600160601b0381168114612236578182fd5b60006020828403121561244b578081fd5b8151611670816128cd565b600060208284031215612467578081fd5b8135611670816128db565b600060208284031215612483578081fd5b8151611670816128db565b60006020828403121561249f578081fd5b813567ffffffffffffffff8111156124b5578182fd5b6113c2848285016121b2565b6000602082840312156124d2578081fd5b815167ffffffffffffffff8111156124e8578182fd5b8201601f810184136124f8578182fd5b8051612506612182826127a6565b81815285602083850101111561251a578384fd5b61252b826020830160208601612825565b95945050505050565b600060208284031215612545578081fd5b5035919050565b60006020828403121561255d578081fd5b5051919050565b60008060408385031215612576578182fd5b50508035926020909101359150565b6000815180845261259d816020860160208601612825565b601f01601f19169290920160200192915050565b60006001600160601b0319808760601b16835285516125d7816014860160208a01612825565b90920160148101949094525060609190911b16603482015260480192915050565b6000825161260a818460208701612825565b9190910192915050565b60008351612626818460208801612825565b83519083019061263a818360208801612825565b01949350505050565b6001600160a01b038581168252841660208201526040810183905260806060820181905260009061267690830184612585565b9695505050505050565b6020815260006116706020830184612585565b6040815260006126a66040830185612585565b60208382038185015282855484600182811c9150808316806126c957607f831692505b8583108114156126e757634e487b7160e01b88526022600452602488fd5b82875260208701965080801561270457600181146127155761273f565b60ff1985168852868801955061273f565b60008b815260209020895b858110156127395781548a820152908401908801612720565b89019650505b50939a9950505050505050505050565b6020808252600c908201526b155b985d5d1a1bdc9a5e995960a21b604082015260600190565b604051601f8201601f1916810167ffffffffffffffff8111828210171561279e5761279e6128a2565b604052919050565b600067ffffffffffffffff8211156127c0576127c06128a2565b50601f01601f191660200190565b600082198211156127e1576127e161288c565b500190565b60008261280157634e487b7160e01b81526012600452602481fd5b500490565b60008160001904831182151516156128205761282061288c565b500290565b60005b83811015612840578181015183820152602001612828565b838111156111b85750506000910152565b600181811c9082168061286557607f821691505b6020821081141561288657634e487b7160e01b600052602260045260246000fd5b50919050565b634e487b7160e01b600052601160045260246000fd5b634e487b7160e01b600052604160045260246000fd5b6001600160a01b0381168114611d5c57600080fd5b8015158114611d5c57600080fd5b6001600160e01b031981168114611d5c57600080fdfea2646970667358221220ffdd1e75ef110fecda5847811684fefa2d3e5fa999b37dfe1ab0c9d94876194964736f6c63430008040033a264697066735822122087d1e7eb41e2e1f8ad1a207995e693e642400155d7882118b7f3991ba658574e64736f6c63430008040033",
  "devdoc": {
    "kind": "dev",
    "methods": {
      "changeFactoryRoyaltyRegistry(address)": {
        "details": "Update the royalty registry address.",
        "params": {
          "_royaltyRegistry": "new royalty registry address."
        }
      },
      "createModelNFT(string,string,address,address,address,uint96,uint256)": {
        "details": "Create new model NFT smart contract with parameters.",
        "params": {
          "_designer": "Address of designer.",
          "_mintLimit": "upper limit of minting.",
          "_modelID": "ID of model.",
          "_modelName": "name of model.",
          "_royaltyRate": "royalty Rate",
          "_royaltyReceiver": "Address of royalty receiver."
        }
      },
      "initialize(address)": {
        "details": "initialization function for proxy.",
        "params": {
          "_royaltyRegistry": "royalty registry address."
        }
      },
      "owner()": {
        "details": "Returns the address of the current owner."
      },
      "renounceOwnership()": {
        "details": "Leaves the contract without owner. It will not be possible to call `onlyOwner` functions anymore. Can only be called by the current owner. NOTE: Renouncing ownership will leave the contract without an owner, thereby removing any functionality that is only available to the owner."
      },
      "transferOwnership(address)": {
        "details": "Transfers ownership of the contract to a new account (`newOwner`). Can only be called by the current owner."
      }
    },
    "stateVariables": {
      "factoryRoyaltyRegistry": {
        "details": "royalty registry address that store the royalty info."
      }
    },
    "version": 1
  },
  "userdoc": {
    "kind": "user",
    "methods": {},
    "version": 1
  },
  "storageLayout": {
    "storage": [
      {
        "astId": 138,
        "contract": "contracts/ModelNFTFactory.sol:ModelNFTFactory",
        "label": "_initialized",
        "offset": 0,
        "slot": "0",
        "type": "t_uint8"
      },
      {
        "astId": 141,
        "contract": "contracts/ModelNFTFactory.sol:ModelNFTFactory",
        "label": "_initializing",
        "offset": 1,
        "slot": "0",
        "type": "t_bool"
      },
      {
        "astId": 566,
        "contract": "contracts/ModelNFTFactory.sol:ModelNFTFactory",
        "label": "__gap",
        "offset": 0,
        "slot": "1",
        "type": "t_array(t_uint256)50_storage"
      },
      {
        "astId": 10,
        "contract": "contracts/ModelNFTFactory.sol:ModelNFTFactory",
        "label": "_owner",
        "offset": 0,
        "slot": "51",
        "type": "t_address"
      },
      {
        "astId": 130,
        "contract": "contracts/ModelNFTFactory.sol:ModelNFTFactory",
        "label": "__gap",
        "offset": 0,
        "slot": "52",
        "type": "t_array(t_uint256)49_storage"
      },
      {
        "astId": 4284,
        "contract": "contracts/ModelNFTFactory.sol:ModelNFTFactory",
        "label": "_modelNFT",
        "offset": 0,
        "slot": "101",
        "type": "t_contract(ModelNFT)4274"
      },
      {
        "astId": 4288,
        "contract": "contracts/ModelNFTFactory.sol:ModelNFTFactory",
        "label": "modelNFTs",
        "offset": 0,
        "slot": "102",
        "type": "t_mapping(t_string_memory_ptr,t_address)"
      },
      {
        "astId": 4292,
        "contract": "contracts/ModelNFTFactory.sol:ModelNFTFactory",
        "label": "factoryRoyaltyRegistry",
        "offset": 0,
        "slot": "103",
        "type": "t_contract(IRoyaltyRegistry)4545"
      }
    ],
    "types": {
      "t_address": {
        "encoding": "inplace",
        "label": "address",
        "numberOfBytes": "20"
      },
      "t_array(t_uint256)49_storage": {
        "base": "t_uint256",
        "encoding": "inplace",
        "label": "uint256[49]",
        "numberOfBytes": "1568"
      },
      "t_array(t_uint256)50_storage": {
        "base": "t_uint256",
        "encoding": "inplace",
        "label": "uint256[50]",
        "numberOfBytes": "1600"
      },
      "t_bool": {
        "encoding": "inplace",
        "label": "bool",
        "numberOfBytes": "1"
      },
      "t_contract(IRoyaltyRegistry)4545": {
        "encoding": "inplace",
        "label": "contract IRoyaltyRegistry",
        "numberOfBytes": "20"
      },
      "t_contract(ModelNFT)4274": {
        "encoding": "inplace",
        "label": "contract ModelNFT",
        "numberOfBytes": "20"
      },
      "t_mapping(t_string_memory_ptr,t_address)": {
        "encoding": "mapping",
        "key": "t_string_memory_ptr",
        "label": "mapping(string => address)",
        "numberOfBytes": "32",
        "value": "t_address"
      },
      "t_string_memory_ptr": {
        "encoding": "bytes",
        "label": "string",
        "numberOfBytes": "32"
      },
      "t_uint256": {
        "encoding": "inplace",
        "label": "uint256",
        "numberOfBytes": "32"
      },
      "t_uint8": {
        "encoding": "inplace",
        "label": "uint8",
        "numberOfBytes": "1"
      }
    }
  }
}