{
  "address": "0xf74334cAb7F776572e59903214F9d93559997CB1",
  "abi": [
    {
      "anonymous": false,
      "inputs": [
        {
          "indexed": false,
          "internalType": "uint96",
          "name": "oldRate",
          "type": "uint96"
        },
        {
          "indexed": false,
          "internalType": "uint96",
          "name": "newRate",
          "type": "uint96"
        }
      ],
      "name": "DefaultRoyaltyRatePercentageUpdated",
      "type": "event"
    },
    {
      "anonymous": false,
      "inputs": [
        {
          "indexed": false,
          "internalType": "uint8",
          "name": "version",
          "type": "uint8"
        }
      ],
      "name": "Initialized",
      "type": "event"
    },
    {
      "anonymous": false,
      "inputs": [
        {
          "indexed": false,
          "internalType": "address",
          "name": "oldFactory",
          "type": "address"
        },
        {
          "indexed": false,
          "internalType": "address",
          "name": "newFactory",
          "type": "address"
        }
      ],
      "name": "ModelFactoryUpdated",
      "type": "event"
    },
    {
      "anonymous": false,
      "inputs": [
        {
          "indexed": true,
          "internalType": "address",
          "name": "previousOwner",
          "type": "address"
        },
        {
          "indexed": true,
          "internalType": "address",
          "name": "newOwner",
          "type": "address"
        }
      ],
      "name": "OwnershipTransferred",
      "type": "event"
    },
    {
      "anonymous": false,
      "inputs": [
        {
          "indexed": false,
          "internalType": "address",
          "name": "oldReceiver",
          "type": "address"
        },
        {
          "indexed": false,
          "internalType": "address",
          "name": "newReceiver",
          "type": "address"
        }
      ],
      "name": "ReceiverUpdated",
      "type": "event"
    },
    {
      "anonymous": false,
      "inputs": [
        {
          "indexed": true,
          "internalType": "address",
          "name": "_token",
          "type": "address"
        },
        {
          "indexed": false,
          "internalType": "uint96",
          "name": "_royaltyRate",
          "type": "uint96"
        }
      ],
      "name": "RoyaltySetForCollection",
      "type": "event"
    },
    {
      "inputs": [],
      "name": "MAX_RATE_ROYALTY",
      "outputs": [
        {
          "internalType": "uint96",
          "name": "",
          "type": "uint96"
        }
      ],
      "stateMutability": "view",
      "type": "function"
    },
    {
      "inputs": [
        {
          "internalType": "uint96",
          "name": "_newDefaultRate",
          "type": "uint96"
        }
      ],
      "name": "changeDefaultRoyaltyRatePercentage",
      "outputs": [],
      "stateMutability": "nonpayable",
      "type": "function"
    },
    {
      "inputs": [
        {
          "internalType": "address",
          "name": "_newModelFactory",
          "type": "address"
        }
      ],
      "name": "changeModelFactory",
      "outputs": [],
      "stateMutability": "nonpayable",
      "type": "function"
    },
    {
      "inputs": [
        {
          "internalType": "address",
          "name": "_newReceiver",
          "type": "address"
        }
      ],
      "name": "changeReceiver",
      "outputs": [],
      "stateMutability": "nonpayable",
      "type": "function"
    },
    {
      "inputs": [],
      "name": "defaultRoyaltyRatePercentage",
      "outputs": [
        {
          "internalType": "uint96",
          "name": "",
          "type": "uint96"
        }
      ],
      "stateMutability": "view",
      "type": "function"
    },
    {
      "inputs": [
        {
          "internalType": "address",
          "name": "_token",
          "type": "address"
        }
      ],
      "name": "getRoyaltyInfo",
      "outputs": [
        {
          "internalType": "address",
          "name": "_receiver",
          "type": "address"
        },
        {
          "internalType": "uint96",
          "name": "_royaltyRatePercentage",
          "type": "uint96"
        }
      ],
      "stateMutability": "view",
      "type": "function"
    },
    {
      "inputs": [
        {
          "internalType": "address",
          "name": "_receiver",
          "type": "address"
        },
        {
          "internalType": "uint96",
          "name": "_defaultRateRoyaltyPercentage",
          "type": "uint96"
        }
      ],
      "name": "initialize",
      "outputs": [],
      "stateMutability": "nonpayable",
      "type": "function"
    },
    {
      "inputs": [],
      "name": "modelFactory",
      "outputs": [
        {
          "internalType": "address",
          "name": "",
          "type": "address"
        }
      ],
      "stateMutability": "view",
      "type": "function"
    },
    {
      "inputs": [],
      "name": "owner",
      "outputs": [
        {
          "internalType": "address",
          "name": "",
          "type": "address"
        }
      ],
      "stateMutability": "view",
      "type": "function"
    },
    {
      "inputs": [],
      "name": "receiver",
      "outputs": [
        {
          "internalType": "address",
          "name": "",
          "type": "address"
        }
      ],
      "stateMutability": "view",
      "type": "function"
    },
    {
      "inputs": [],
      "name": "renounceOwnership",
      "outputs": [],
      "stateMutability": "nonpayable",
      "type": "function"
    },
    {
      "inputs": [
        {
          "internalType": "address",
          "name": "",
          "type": "address"
        }
      ],
      "name": "royaltiesSet",
      "outputs": [
        {
          "internalType": "bool",
          "name": "isSet",
          "type": "bool"
        },
        {
          "internalType": "uint96",
          "name": "royaltyRateForCollection",
          "type": "uint96"
        }
      ],
      "stateMutability": "view",
      "type": "function"
    },
    {
      "inputs": [
        {
          "internalType": "address",
          "name": "_token",
          "type": "address"
        },
        {
          "internalType": "uint96",
          "name": "_royaltyRate",
          "type": "uint96"
        }
      ],
      "name": "setRoyaltyRateForCollection",
      "outputs": [],
      "stateMutability": "nonpayable",
      "type": "function"
    },
    {
      "inputs": [
        {
          "internalType": "address[]",
          "name": "_tokens",
          "type": "address[]"
        },
        {
          "internalType": "uint96[]",
          "name": "_royaltyRates",
          "type": "uint96[]"
        }
      ],
      "name": "setRoyaltyRateForCollections",
      "outputs": [],
      "stateMutability": "nonpayable",
      "type": "function"
    },
    {
      "inputs": [
        {
          "internalType": "address",
          "name": "newOwner",
          "type": "address"
        }
      ],
      "name": "transferOwnership",
      "outputs": [],
      "stateMutability": "nonpayable",
      "type": "function"
    }
  ],
  "transactionHash": "0xba56e6c327398cbb366bde83f101df39e706f5e86e4cef56802892f817aaf2da",
  "args": [],
  "numDeployments": 1,
  "solcInputHash": "afb833a200fb39288aae457b5e9c2f35",
  "bytecode": "0x608060405234801561001057600080fd5b506118cc806100206000396000f3fe608060405234801561001057600080fd5b50600436106100f55760003560e01c80637b2e700811610097578063d7ef940911610066578063d7ef94091461024e578063f2a413741461026a578063f2fde38b14610286578063f7260d3e146102a2576100f5565b80637b2e7008146101da5780638ce6467d146101f85780638da5cb5b14610214578063a99421d414610232576100f5565b80633e6425db116100d35780633e6425db1461017a578063547e3f061461019857806365aebd7b146101b4578063715018a6146101d0576100f5565b80630431c7ef146100fa5780631f08b64814610118578063376a06f414610149575b600080fd5b6101026102c0565b60405161010f9190611368565b60405180910390f35b610132600480360381019061012d91906110ee565b6102e6565b6040516101409291906113d5565b60405180910390f35b610163600480360381019061015e91906110ee565b61032f565b6040516101719291906113ac565b60405180910390f35b610182610435565b60405161018f9190611539565b60405180910390f35b6101b260048036038101906101ad91906110ee565b610453565b005b6101ce60048036038101906101c99190611117565b610592565b005b6101d861066d565b005b6101e2610681565b6040516101ef9190611539565b60405180910390f35b610212600480360381019061020d91906111c8565b610687565b005b61021c610797565b6040516102299190611368565b60405180910390f35b61024c60048036038101906102479190611153565b6107c1565b005b610268600480360381019061026391906110ee565b6108dd565b005b610284600480360381019061027f9190611117565b610a1c565b005b6102a0600480360381019061029b91906110ee565b610bce565b005b6102aa610c52565b6040516102b79190611368565b60405180910390f35b606760009054906101000a900473ffffffffffffffffffffffffffffffffffffffff1681565b60656020528060005260406000206000915090508060000160009054906101000a900460ff16908060000160019054906101000a90046bffffffffffffffffffffffff16905082565b6000806000606560008573ffffffffffffffffffffffffffffffffffffffff1673ffffffffffffffffffffffffffffffffffffffff1681526020019081526020016000206040518060400160405290816000820160009054906101000a900460ff161515151581526020016000820160019054906101000a90046bffffffffffffffffffffffff166bffffffffffffffffffffffff166bffffffffffffffffffffffff168152505090506066600c9054906101000a900473ffffffffffffffffffffffffffffffffffffffff16816000015161042557606660009054906101000a90046bffffffffffffffffffffffff1661042b565b81602001515b9250925050915091565b606660009054906101000a90046bffffffffffffffffffffffff1681565b61045b610c78565b600073ffffffffffffffffffffffffffffffffffffffff168173ffffffffffffffffffffffffffffffffffffffff1614156104cb576040517f08c379a00000000000000000000000000000000000000000000000000000000081526004016104c290611419565b60405180910390fd5b60006066600c9054906101000a900473ffffffffffffffffffffffffffffffffffffffff169050816066600c6101000a81548173ffffffffffffffffffffffffffffffffffffffff021916908373ffffffffffffffffffffffffffffffffffffffff1602179055507fbda2bcccbfa5ae883ab7d9f03480ab68fe68e9200c9b52c0c47abc21d2c90ec9816066600c9054906101000a900473ffffffffffffffffffffffffffffffffffffffff16604051610586929190611383565b60405180910390a15050565b61059a610797565b73ffffffffffffffffffffffffffffffffffffffff163373ffffffffffffffffffffffffffffffffffffffff1614806106205750606760009054906101000a900473ffffffffffffffffffffffffffffffffffffffff1673ffffffffffffffffffffffffffffffffffffffff163373ffffffffffffffffffffffffffffffffffffffff16145b61065f576040517f08c379a000000000000000000000000000000000000000000000000000000000815260040161065690611439565b60405180910390fd5b6106698282610cf6565b5050565b610675610c78565b61067f6000610ede565b565b6103e881565b61068f610c78565b6103e86bffffffffffffffffffffffff16816bffffffffffffffffffffffff1611156106f0576040517f08c379a00000000000000000000000000000000000000000000000000000000081526004016106e7906114b9565b60405180910390fd5b6000606660009054906101000a90046bffffffffffffffffffffffff16905081606660006101000a8154816bffffffffffffffffffffffff02191690836bffffffffffffffffffffffff1602179055507f7392c3db674e96a805158bdfac5363922c74a8241afb1eedc887ec13d02f521381606660009054906101000a90046bffffffffffffffffffffffff1660405161078b929190611554565b60405180910390a15050565b6000603360009054906101000a900473ffffffffffffffffffffffffffffffffffffffff16905090565b6107c9610c78565b818190508484905014610811576040517f08c379a0000000000000000000000000000000000000000000000000000000008152600401610808906114f9565b60405180910390fd5b60005b848490508110156108d6576108c385858381811061085b577f4e487b7100000000000000000000000000000000000000000000000000000000600052603260045260246000fd5b905060200201602081019061087091906110ee565b8484848181106108a9577f4e487b7100000000000000000000000000000000000000000000000000000000600052603260045260246000fd5b90506020020160208101906108be91906111c8565b610cf6565b80806108ce9061160d565b915050610814565b5050505050565b6108e5610c78565b600073ffffffffffffffffffffffffffffffffffffffff168173ffffffffffffffffffffffffffffffffffffffff161415610955576040517f08c379a000000000000000000000000000000000000000000000000000000000815260040161094c90611419565b60405180910390fd5b6000606760009054906101000a900473ffffffffffffffffffffffffffffffffffffffff16905081606760006101000a81548173ffffffffffffffffffffffffffffffffffffffff021916908373ffffffffffffffffffffffffffffffffffffffff1602179055507f51ef4f53c3dd1a65db829ec538a7e8bc41f56ed6e583b5e24e43986223a11ed281606760009054906101000a900473ffffffffffffffffffffffffffffffffffffffff16604051610a10929190611383565b60405180910390a15050565b60008060019054906101000a900460ff16159050808015610a4d5750600160008054906101000a900460ff1660ff16105b80610a7a5750610a5c30610fa4565b158015610a795750600160008054906101000a900460ff1660ff16145b5b610ab9576040517f08c379a0000000000000000000000000000000000000000000000000000000008152600401610ab090611499565b60405180910390fd5b60016000806101000a81548160ff021916908360ff1602179055508015610af6576001600060016101000a81548160ff0219169083151502179055505b826066600c6101000a81548173ffffffffffffffffffffffffffffffffffffffff021916908373ffffffffffffffffffffffffffffffffffffffff16021790555081606660006101000a8154816bffffffffffffffffffffffff02191690836bffffffffffffffffffffffff160217905550610b70610fc7565b8015610bc95760008060016101000a81548160ff0219169083151502179055507f7f26b83ff96e1f2b6a682f133852f6798a09c465da95921460cefb38474024986001604051610bc091906113fe565b60405180910390a15b505050565b610bd6610c78565b600073ffffffffffffffffffffffffffffffffffffffff168173ffffffffffffffffffffffffffffffffffffffff161415610c46576040517f08c379a0000000000000000000000000000000000000000000000000000000008152600401610c3d90611459565b60405180910390fd5b610c4f81610ede565b50565b6066600c9054906101000a900473ffffffffffffffffffffffffffffffffffffffff1681565b610c80611028565b73ffffffffffffffffffffffffffffffffffffffff16610c9e610797565b73ffffffffffffffffffffffffffffffffffffffff1614610cf4576040517f08c379a0000000000000000000000000000000000000000000000000000000008152600401610ceb906114d9565b60405180910390fd5b565b600073ffffffffffffffffffffffffffffffffffffffff168273ffffffffffffffffffffffffffffffffffffffff161415610d66576040517f08c379a0000000000000000000000000000000000000000000000000000000008152600401610d5d90611479565b60405180910390fd5b6103e86bffffffffffffffffffffffff16816bffffffffffffffffffffffff161115610dc7576040517f08c379a0000000000000000000000000000000000000000000000000000000008152600401610dbe906114b9565b60405180910390fd5b60006040518060400160405280600115158152602001836bffffffffffffffffffffffff16815250905080606560008573ffffffffffffffffffffffffffffffffffffffff1673ffffffffffffffffffffffffffffffffffffffff16815260200190815260200160002060008201518160000160006101000a81548160ff02191690831515021790555060208201518160000160016101000a8154816bffffffffffffffffffffffff02191690836bffffffffffffffffffffffff1602179055509050508273ffffffffffffffffffffffffffffffffffffffff167f25b3ff953c8d46ef87728ec49843598f7f7586628c5012d65cbd1c68c156a29883604051610ed19190611539565b60405180910390a2505050565b6000603360009054906101000a900473ffffffffffffffffffffffffffffffffffffffff16905081603360006101000a81548173ffffffffffffffffffffffffffffffffffffffff021916908373ffffffffffffffffffffffffffffffffffffffff1602179055508173ffffffffffffffffffffffffffffffffffffffff168173ffffffffffffffffffffffffffffffffffffffff167f8be0079c531659141344cd1fd0a4f28419497f9722a3daafe3b4186f6b6457e060405160405180910390a35050565b6000808273ffffffffffffffffffffffffffffffffffffffff163b119050919050565b600060019054906101000a900460ff16611016576040517f08c379a000000000000000000000000000000000000000000000000000000000815260040161100d90611519565b60405180910390fd5b611026611021611028565b610ede565b565b600033905090565b60008135905061103f81611868565b92915050565b60008083601f84011261105757600080fd5b8235905067ffffffffffffffff81111561107057600080fd5b60208301915083602082028301111561108857600080fd5b9250929050565b60008083601f8401126110a157600080fd5b8235905067ffffffffffffffff8111156110ba57600080fd5b6020830191508360208202830111156110d257600080fd5b9250929050565b6000813590506110e88161187f565b92915050565b60006020828403121561110057600080fd5b600061110e84828501611030565b91505092915050565b6000806040838503121561112a57600080fd5b600061113885828601611030565b9250506020611149858286016110d9565b9150509250929050565b6000806000806040858703121561116957600080fd5b600085013567ffffffffffffffff81111561118357600080fd5b61118f87828801611045565b9450945050602085013567ffffffffffffffff8111156111ae57600080fd5b6111ba8782880161108f565b925092505092959194509250565b6000602082840312156111da57600080fd5b60006111e8848285016110d9565b91505092915050565b6111fa8161158e565b82525050565b611209816115a0565b82525050565b611218816115fb565b82525050565b600061122b600f8361157d565b915061123682611685565b602082019050919050565b600061124e600c8361157d565b9150611259826116ae565b602082019050919050565b600061127160268361157d565b915061127c826116d7565b604082019050919050565b6000611294600d8361157d565b915061129f82611726565b602082019050919050565b60006112b7602e8361157d565b91506112c28261174f565b604082019050919050565b60006112da600c8361157d565b91506112e58261179e565b602082019050919050565b60006112fd60208361157d565b9150611308826117c7565b602082019050919050565b600061132060198361157d565b915061132b826117f0565b602082019050919050565b6000611343602b8361157d565b915061134e82611819565b604082019050919050565b611362816115e3565b82525050565b600060208201905061137d60008301846111f1565b92915050565b600060408201905061139860008301856111f1565b6113a560208301846111f1565b9392505050565b60006040820190506113c160008301856111f1565b6113ce6020830184611359565b9392505050565b60006040820190506113ea6000830185611200565b6113f76020830184611359565b9392505050565b6000602082019050611413600083018461120f565b92915050565b600060208201905081810360008301526114328161121e565b9050919050565b6000602082019050818103600083015261145281611241565b9050919050565b6000602082019050818103600083015261147281611264565b9050919050565b6000602082019050818103600083015261149281611287565b9050919050565b600060208201905081810360008301526114b2816112aa565b9050919050565b600060208201905081810360008301526114d2816112cd565b9050919050565b600060208201905081810360008301526114f2816112f0565b9050919050565b6000602082019050818103600083015261151281611313565b9050919050565b6000602082019050818103600083015261153281611336565b9050919050565b600060208201905061154e6000830184611359565b92915050565b60006040820190506115696000830185611359565b6115766020830184611359565b9392505050565b600082825260208201905092915050565b6000611599826115ac565b9050919050565b60008115159050919050565b600073ffffffffffffffffffffffffffffffffffffffff82169050919050565b6000819050919050565b600060ff82169050919050565b60006bffffffffffffffffffffffff82169050919050565b6000611606826115d6565b9050919050565b6000611618826115cc565b91507fffffffffffffffffffffffffffffffffffffffffffffffffffffffffffffffff82141561164b5761164a611656565b5b600182019050919050565b7f4e487b7100000000000000000000000000000000000000000000000000000000600052601160045260246000fd5b7f496e76616c696420616464726573730000000000000000000000000000000000600082015250565b7f556e617574686f72697a65640000000000000000000000000000000000000000600082015250565b7f4f776e61626c653a206e6577206f776e657220697320746865207a65726f206160008201527f6464726573730000000000000000000000000000000000000000000000000000602082015250565b7f496e76616c696420746f6b656e00000000000000000000000000000000000000600082015250565b7f496e697469616c697a61626c653a20636f6e747261637420697320616c72656160008201527f647920696e697469616c697a6564000000000000000000000000000000000000602082015250565b7f496e76616c696420526174650000000000000000000000000000000000000000600082015250565b7f4f776e61626c653a2063616c6c6572206973206e6f7420746865206f776e6572600082015250565b7f4d69736d6174636820617267756d656e7473206c656e67746800000000000000600082015250565b7f496e697469616c697a61626c653a20636f6e7472616374206973206e6f74206960008201527f6e697469616c697a696e67000000000000000000000000000000000000000000602082015250565b6118718161158e565b811461187c57600080fd5b50565b611888816115e3565b811461189357600080fd5b5056fea264697066735822122099632649c1c24178762f2cfca21cf5b239864045d0872d79a4e80d4a6fbc3fb064736f6c63430008040033",
  "devdoc": {
    "events": {
      "RoyaltySetForCollection(address,uint96)": {
        "details": "emitted when royalties set for token."
      }
    },
    "kind": "dev",
    "methods": {
      "changeDefaultRoyaltyRatePercentage(uint96)": {
        "details": "setter for defaultRoyaltyRatePercentage",
        "params": {
          "_newDefaultRate": "new default rate for royalty."
        }
      },
      "changeModelFactory(address)": {
        "details": "setter for model factory address.",
        "params": {
          "_newModelFactory": "new Receiver address"
        }
      },
      "changeReceiver(address)": {
        "details": "setter for receiver address.",
        "params": {
          "_newReceiver": "new Receiver address"
        }
      },
      "getRoyaltyInfo(address)": {
        "details": "royalty info for specific token / collection.It will return custom rate for the token, otherwise will return the default one.",
        "params": {
          "_token": "address of token / collection."
        },
        "returns": {
          "_receiver": "receiver address.",
          "_royaltyRatePercentage": "royalty rate percentage."
        }
      },
      "initialize(address,uint96)": {
        "params": {
          "_defaultRateRoyaltyPercentage": "default royalty percentage.",
          "_receiver": "receiver address."
        }
      },
      "owner()": {
        "details": "Returns the address of the current owner."
      },
      "renounceOwnership()": {
        "details": "Leaves the contract without owner. It will not be possible to call `onlyOwner` functions anymore. Can only be called by the current owner. NOTE: Renouncing ownership will leave the contract without an owner, thereby removing any functionality that is only available to the owner."
      },
      "setRoyaltyRateForCollection(address,uint96)": {
        "details": "set royalty rate for specific collection. Support multiple set. The length of array between tokens & rates must exactly the same.",
        "params": {
          "_royaltyRate": "royalty rate.",
          "_token": "token address."
        }
      },
      "setRoyaltyRateForCollections(address[],uint96[])": {
        "details": "set royalty rate for specific collection. Support multiple set. The length of array between tokens & rates must exactly the same.",
        "params": {
          "_royaltyRates": "array of royalty rates.",
          "_tokens": "array of token address."
        }
      },
      "transferOwnership(address)": {
        "details": "Transfers ownership of the contract to a new account (`newOwner`). Can only be called by the current owner."
      }
    },
    "version": 1
  },
  "userdoc": {
    "kind": "user",
    "methods": {
      "changeDefaultRoyaltyRatePercentage(uint96)": {
        "notice": "the deafult royalty rate can be 0."
      },
      "initialize(address,uint96)": {
        "notice": "Initialization for upgradeable contract."
      },
      "setRoyaltyRateForCollection(address,uint96)": {
        "notice": "the rate will be applied to all of token ids inside the collection.Owner or factory can perform this function call."
      },
      "setRoyaltyRateForCollections(address[],uint96[])": {
        "notice": "the rate will be applied to all of token ids inside the collection.only owner can call the multiple set."
      }
    },
    "version": 1
  },
  "storageLayout": {
    "storage": [
      {
        "astId": 138,
        "contract": "contracts/royalty/RoyaltyRegistry.sol:RoyaltyRegistry",
        "label": "_initialized",
        "offset": 0,
        "slot": "0",
        "type": "t_uint8"
      },
      {
        "astId": 141,
        "contract": "contracts/royalty/RoyaltyRegistry.sol:RoyaltyRegistry",
        "label": "_initializing",
        "offset": 1,
        "slot": "0",
        "type": "t_bool"
      },
      {
        "astId": 566,
        "contract": "contracts/royalty/RoyaltyRegistry.sol:RoyaltyRegistry",
        "label": "__gap",
        "offset": 0,
        "slot": "1",
        "type": "t_array(t_uint256)50_storage"
      },
      {
        "astId": 10,
        "contract": "contracts/royalty/RoyaltyRegistry.sol:RoyaltyRegistry",
        "label": "_owner",
        "offset": 0,
        "slot": "51",
        "type": "t_address"
      },
      {
        "astId": 130,
        "contract": "contracts/royalty/RoyaltyRegistry.sol:RoyaltyRegistry",
        "label": "__gap",
        "offset": 0,
        "slot": "52",
        "type": "t_array(t_uint256)49_storage"
      },
      {
        "astId": 2822,
        "contract": "contracts/royalty/RoyaltyRegistry.sol:RoyaltyRegistry",
        "label": "royaltiesSet",
        "offset": 0,
        "slot": "101",
        "type": "t_mapping(t_address,t_struct(RoyaltySet)2816_storage)"
      },
      {
        "astId": 2825,
        "contract": "contracts/royalty/RoyaltyRegistry.sol:RoyaltyRegistry",
        "label": "defaultRoyaltyRatePercentage",
        "offset": 0,
        "slot": "102",
        "type": "t_uint96"
      },
      {
        "astId": 2828,
        "contract": "contracts/royalty/RoyaltyRegistry.sol:RoyaltyRegistry",
        "label": "receiver",
        "offset": 12,
        "slot": "102",
        "type": "t_address"
      },
      {
        "astId": 2831,
        "contract": "contracts/royalty/RoyaltyRegistry.sol:RoyaltyRegistry",
        "label": "modelFactory",
        "offset": 0,
        "slot": "103",
        "type": "t_address"
      }
    ],
    "types": {
      "t_address": {
        "encoding": "inplace",
        "label": "address",
        "numberOfBytes": "20"
      },
      "t_array(t_uint256)49_storage": {
        "base": "t_uint256",
        "encoding": "inplace",
        "label": "uint256[49]",
        "numberOfBytes": "1568"
      },
      "t_array(t_uint256)50_storage": {
        "base": "t_uint256",
        "encoding": "inplace",
        "label": "uint256[50]",
        "numberOfBytes": "1600"
      },
      "t_bool": {
        "encoding": "inplace",
        "label": "bool",
        "numberOfBytes": "1"
      },
      "t_mapping(t_address,t_struct(RoyaltySet)2816_storage)": {
        "encoding": "mapping",
        "key": "t_address",
        "label": "mapping(address => struct RoyaltyStorage.RoyaltySet)",
        "numberOfBytes": "32",
        "value": "t_struct(RoyaltySet)2816_storage"
      },
      "t_struct(RoyaltySet)2816_storage": {
        "encoding": "inplace",
        "label": "struct RoyaltyStorage.RoyaltySet",
        "members": [
          {
            "astId": 2813,
            "contract": "contracts/royalty/RoyaltyRegistry.sol:RoyaltyRegistry",
            "label": "isSet",
            "offset": 0,
            "slot": "0",
            "type": "t_bool"
          },
          {
            "astId": 2815,
            "contract": "contracts/royalty/RoyaltyRegistry.sol:RoyaltyRegistry",
            "label": "royaltyRateForCollection",
            "offset": 1,
            "slot": "0",
            "type": "t_uint96"
          }
        ],
        "numberOfBytes": "32"
      },
      "t_uint256": {
        "encoding": "inplace",
        "label": "uint256",
        "numberOfBytes": "32"
      },
      "t_uint8": {
        "encoding": "inplace",
        "label": "uint8",
        "numberOfBytes": "1"
      },
      "t_uint96": {
        "encoding": "inplace",
        "label": "uint96",
        "numberOfBytes": "12"
      }
    }
  }
}