{
  "address": "0x0C4FE43Fb5A3A82C759b5A53f76Af8fF084953D4",
  "abi": [
    {
      "anonymous": false,
      "inputs": [
        {
          "indexed": false,
          "internalType": "string",
          "name": "oldBaseContractURI",
          "type": "string"
        },
        {
          "indexed": false,
          "internalType": "string",
          "name": "newBaseContractURI",
          "type": "string"
        }
      ],
      "name": "BaseContractURIUpdated",
      "type": "event"
    },
    {
      "anonymous": false,
      "inputs": [
        {
          "indexed": true,
          "internalType": "address",
          "name": "_oldAddress",
          "type": "address"
        },
        {
          "indexed": false,
          "internalType": "address",
          "name": "_newAddress",
          "type": "address"
        }
      ],
      "name": "CollectionAuthorizedSignerAddressUpdated",
      "type": "event"
    },
    {
      "anonymous": false,
      "inputs": [
        {
          "indexed": true,
          "internalType": "address",
          "name": "_oldAddress",
          "type": "address"
        },
        {
          "indexed": false,
          "internalType": "address",
          "name": "_newAddress",
          "type": "address"
        }
      ],
      "name": "CollectionManagerUpdated",
      "type": "event"
    },
    {
      "anonymous": false,
      "inputs": [
        {
          "indexed": true,
          "internalType": "address",
          "name": "_oldAddress",
          "type": "address"
        },
        {
          "indexed": false,
          "internalType": "address",
          "name": "_newAddress",
          "type": "address"
        }
      ],
      "name": "CollectionOwnerUpdated",
      "type": "event"
    },
    {
      "anonymous": false,
      "inputs": [
        {
          "indexed": false,
          "internalType": "uint96",
          "name": "oldRate",
          "type": "uint96"
        },
        {
          "indexed": false,
          "internalType": "uint96",
          "name": "newRate",
          "type": "uint96"
        }
      ],
      "name": "DefaultRoyaltyRatePercentageUpdated",
      "type": "event"
    },
    {
      "anonymous": false,
      "inputs": [
        {
          "indexed": false,
          "internalType": "uint8",
          "name": "version",
          "type": "uint8"
        }
      ],
      "name": "Initialized",
      "type": "event"
    },
    {
      "anonymous": false,
      "inputs": [
        {
          "indexed": false,
          "internalType": "address",
          "name": "oldFactory",
          "type": "address"
        },
        {
          "indexed": false,
          "internalType": "address",
          "name": "newFactory",
          "type": "address"
        }
      ],
      "name": "ModelFactoryUpdated",
      "type": "event"
    },
    {
      "anonymous": false,
      "inputs": [
        {
          "indexed": true,
          "internalType": "address",
          "name": "previousOwner",
          "type": "address"
        },
        {
          "indexed": true,
          "internalType": "address",
          "name": "newOwner",
          "type": "address"
        }
      ],
      "name": "OwnershipTransferred",
      "type": "event"
    },
    {
      "anonymous": false,
      "inputs": [
        {
          "indexed": false,
          "internalType": "address",
          "name": "oldReceiver",
          "type": "address"
        },
        {
          "indexed": false,
          "internalType": "address",
          "name": "newReceiver",
          "type": "address"
        }
      ],
      "name": "ReceiverUpdated",
      "type": "event"
    },
    {
      "anonymous": false,
      "inputs": [
        {
          "indexed": true,
          "internalType": "address",
          "name": "_token",
          "type": "address"
        },
        {
          "indexed": false,
          "internalType": "uint96",
          "name": "_royaltyRate",
          "type": "uint96"
        }
      ],
      "name": "RoyaltySetForCollection",
      "type": "event"
    },
    {
      "inputs": [],
      "name": "MAX_RATE_ROYALTY",
      "outputs": [
        {
          "internalType": "uint96",
          "name": "",
          "type": "uint96"
        }
      ],
      "stateMutability": "view",
      "type": "function"
    },
    {
      "inputs": [],
      "name": "baseContractURI",
      "outputs": [
        {
          "internalType": "string",
          "name": "",
          "type": "string"
        }
      ],
      "stateMutability": "view",
      "type": "function"
    },
    {
      "inputs": [
        {
          "internalType": "address",
          "name": "_collectionSignerAddress",
          "type": "address"
        }
      ],
      "name": "changeCollectionAuthorizedSignerAddress",
      "outputs": [],
      "stateMutability": "nonpayable",
      "type": "function"
    },
    {
      "inputs": [
        {
          "internalType": "address",
          "name": "_collectionManager",
          "type": "address"
        }
      ],
      "name": "changeCollectionManager",
      "outputs": [],
      "stateMutability": "nonpayable",
      "type": "function"
    },
    {
      "inputs": [
        {
          "internalType": "address",
          "name": "_collectionOwner",
          "type": "address"
        }
      ],
      "name": "changeCollectionOwner",
      "outputs": [],
      "stateMutability": "nonpayable",
      "type": "function"
    },
    {
      "inputs": [
        {
          "internalType": "string",
          "name": "_baseContractURI",
          "type": "string"
        }
      ],
      "name": "changeContractURI",
      "outputs": [],
      "stateMutability": "nonpayable",
      "type": "function"
    },
    {
      "inputs": [
        {
          "internalType": "uint96",
          "name": "_newDefaultRate",
          "type": "uint96"
        }
      ],
      "name": "changeDefaultRoyaltyRatePercentage",
      "outputs": [],
      "stateMutability": "nonpayable",
      "type": "function"
    },
    {
      "inputs": [
        {
          "internalType": "address",
          "name": "_newModelFactory",
          "type": "address"
        }
      ],
      "name": "changeModelFactory",
      "outputs": [],
      "stateMutability": "nonpayable",
      "type": "function"
    },
    {
      "inputs": [
        {
          "internalType": "address",
          "name": "_newReceiver",
          "type": "address"
        }
      ],
      "name": "changeReceiver",
      "outputs": [],
      "stateMutability": "nonpayable",
      "type": "function"
    },
    {
      "inputs": [],
      "name": "collectionAuthorizedSignerAddress",
      "outputs": [
        {
          "internalType": "address",
          "name": "",
          "type": "address"
        }
      ],
      "stateMutability": "view",
      "type": "function"
    },
    {
      "inputs": [],
      "name": "collectionManager",
      "outputs": [
        {
          "internalType": "address",
          "name": "",
          "type": "address"
        }
      ],
      "stateMutability": "view",
      "type": "function"
    },
    {
      "inputs": [],
      "name": "collectionOwner",
      "outputs": [
        {
          "internalType": "address",
          "name": "",
          "type": "address"
        }
      ],
      "stateMutability": "view",
      "type": "function"
    },
    {
      "inputs": [],
      "name": "defaultRoyaltyRatePercentage",
      "outputs": [
        {
          "internalType": "uint96",
          "name": "",
          "type": "uint96"
        }
      ],
      "stateMutability": "view",
      "type": "function"
    },
    {
      "inputs": [],
      "name": "getContractURIForToken",
      "outputs": [
        {
          "internalType": "string",
          "name": "",
          "type": "string"
        }
      ],
      "stateMutability": "view",
      "type": "function"
    },
    {
      "inputs": [
        {
          "internalType": "address",
          "name": "_token",
          "type": "address"
        }
      ],
      "name": "getRoyaltyInfo",
      "outputs": [
        {
          "internalType": "address",
          "name": "_receiver",
          "type": "address"
        },
        {
          "internalType": "uint96",
          "name": "_royaltyRatePercentage",
          "type": "uint96"
        }
      ],
      "stateMutability": "view",
      "type": "function"
    },
    {
      "inputs": [
        {
          "internalType": "address",
          "name": "_receiver",
          "type": "address"
        },
        {
          "internalType": "uint96",
          "name": "_defaultRateRoyaltyPercentage",
          "type": "uint96"
        },
        {
          "internalType": "address",
          "name": "_collectionOwner",
          "type": "address"
        },
        {
          "internalType": "address",
          "name": "_collectionManager",
          "type": "address"
        },
        {
          "internalType": "address",
          "name": "_collectionAuthorizedSignerAddress",
          "type": "address"
        }
      ],
      "name": "initialize",
      "outputs": [],
      "stateMutability": "nonpayable",
      "type": "function"
    },
    {
      "inputs": [],
      "name": "modelFactory",
      "outputs": [
        {
          "internalType": "address",
          "name": "",
          "type": "address"
        }
      ],
      "stateMutability": "view",
      "type": "function"
    },
    {
      "inputs": [],
      "name": "owner",
      "outputs": [
        {
          "internalType": "address",
          "name": "",
          "type": "address"
        }
      ],
      "stateMutability": "view",
      "type": "function"
    },
    {
      "inputs": [],
      "name": "receiver",
      "outputs": [
        {
          "internalType": "address",
          "name": "",
          "type": "address"
        }
      ],
      "stateMutability": "view",
      "type": "function"
    },
    {
      "inputs": [],
      "name": "renounceOwnership",
      "outputs": [],
      "stateMutability": "nonpayable",
      "type": "function"
    },
    {
      "inputs": [
        {
          "internalType": "address",
          "name": "",
          "type": "address"
        }
      ],
      "name": "royaltiesSet",
      "outputs": [
        {
          "internalType": "bool",
          "name": "isSet",
          "type": "bool"
        },
        {
          "internalType": "uint96",
          "name": "royaltyRateForCollection",
          "type": "uint96"
        },
        {
          "internalType": "address",
          "name": "royaltyReceiver",
          "type": "address"
        }
      ],
      "stateMutability": "view",
      "type": "function"
    },
    {
      "inputs": [
        {
          "internalType": "address",
          "name": "_token",
          "type": "address"
        },
        {
          "internalType": "uint96",
          "name": "_royaltyRate",
          "type": "uint96"
        },
        {
          "internalType": "address",
          "name": "_royaltyReceiver",
          "type": "address"
        }
      ],
      "name": "setRoyaltyRateForCollection",
      "outputs": [],
      "stateMutability": "nonpayable",
      "type": "function"
    },
    {
      "inputs": [
        {
          "internalType": "address[]",
          "name": "_tokens",
          "type": "address[]"
        },
        {
          "internalType": "uint96[]",
          "name": "_royaltyRates",
          "type": "uint96[]"
        },
        {
          "internalType": "address[]",
          "name": "_royaltyReceivers",
          "type": "address[]"
        }
      ],
      "name": "setRoyaltyRateForCollections",
      "outputs": [],
      "stateMutability": "nonpayable",
      "type": "function"
    },
    {
      "inputs": [
        {
          "internalType": "address",
          "name": "newOwner",
          "type": "address"
        }
      ],
      "name": "transferOwnership",
      "outputs": [],
      "stateMutability": "nonpayable",
      "type": "function"
    }
  ],
  "transactionHash": "0x9640908f32ca658ed4526f5a25b8d8c308397e31e68810ec8f842047109b1f1f",
  "args": [],
  "numDeployments": 1,
  "solcInputHash": "36b4aa17d76332a7963874727be2e74d",
  "bytecode": "0x608060405234801561001057600080fd5b5061194c806100206000396000f3fe608060405234801561001057600080fd5b50600436106101585760003560e01c8063715018a6116100c3578063ad84eaca1161007c578063ad84eaca14610350578063d06ab78814610363578063d7ef940914610376578063df727d3b14610389578063f2fde38b1461039c578063f7260d3e146103af57600080fd5b8063715018a6146103005780637b2e70081461030857806380f2152e146103115780638ce6467d146103195780638da5cb5b1461032c5780639fdf84691461033d57600080fd5b8063547e3f0611610115578063547e3f061461028c5780635699b9041461029f5780635af72f47146102b2578063647a5c85146102c75780636b51fd01146102da5780636c425127146102ed57600080fd5b80630431c7ef1461015d5780631f08b6481461018d578063376a06f4146101ff5780633e6425db146102395780634925536e146102645780634f53e22614610279575b600080fd5b606754610170906001600160a01b031681565b6040516001600160a01b0390911681526020015b60405180910390f35b6101d161019b366004611483565b6065602052600090815260409020805460019091015460ff82169161010090046001600160601b0316906001600160a01b031683565b6040805193151584526001600160601b0390921660208401526001600160a01b031690820152606001610184565b61021261020d366004611483565b6103c9565b604080516001600160a01b0390931683526001600160601b03909116602083015201610184565b60665461024c906001600160601b031681565b6040516001600160601b039091168152602001610184565b610277610272366004611543565b610467565b005b610277610287366004611483565b6105df565b61027761029a366004611483565b610668565b6102776102ad3660046115d9565b610706565b6102ba6107e5565b6040516101849190611749565b6102776102d536600461149d565b610817565b6102776102e8366004611483565b610885565b6102776102fb3660046114df565b610906565b610277610bc6565b61024c6103e881565b6102ba610bda565b610277610327366004611683565b610c68565b6033546001600160a01b0316610170565b606854610170906001600160a01b031681565b606954610170906001600160a01b031681565b610277610371366004611483565b610d19565b610277610384366004611483565b610d9a565b606a54610170906001600160a01b031681565b6102776103aa366004611483565b610e22565b60665461017090600160601b90046001600160a01b031681565b6001600160a01b0381811660009081526065602090815260408083208151606081018352815460ff81161515825261010090046001600160601b03169381019390935260010154909316928101839052909182919061043a57606654600160601b90046001600160a01b0316610440565b80604001515b8151610457576066546001600160601b031661045d565b81602001515b9250925050915091565b61046f610e9b565b8483146104c35760405162461bcd60e51b815260206004820152601c60248201527f4d69736d6174636820726f79616c74795261746573206c656e6774680000000060448201526064015b60405180910390fd5b8481146105125760405162461bcd60e51b815260206004820181905260248201527f4d69736d6174636820726f79616c7479526563656976657273206c656e67746860448201526064016104ba565b60005b858110156105d6576105c487878381811061054057634e487b7160e01b600052603260045260246000fd5b90506020020160208101906105559190611483565b86868481811061057557634e487b7160e01b600052603260045260246000fd5b905060200201602081019061058a9190611683565b8585858181106105aa57634e487b7160e01b600052603260045260246000fd5b90506020020160208101906105bf9190611483565b610ef5565b806105ce816118cf565b915050610515565b50505050505050565b6105e7610e9b565b6001600160a01b03811661060d5760405162461bcd60e51b81526004016104ba906117ed565b606a80546001600160a01b038381166001600160a01b031983168117909355604051928352169081907ff8ee87253d4d0a5a98583aa34e04b7aec86bf4d623d7a050e77c3736f02f6a57906020015b60405180910390a25050565b610670610e9b565b6001600160a01b0381166106965760405162461bcd60e51b81526004016104ba906117ed565b606680546001600160a01b03838116600160601b9081026001600160601b038416179384905560408051938290048316808552919094049091166020830152917fbda2bcccbfa5ae883ab7d9f03480ab68fe68e9200c9b52c0c47abc21d2c90ec991015b60405180910390a15050565b61070e610e9b565b6000606b805461071d90611894565b80601f016020809104026020016040519081016040528092919081815260200182805461074990611894565b80156107965780601f1061076b57610100808354040283529160200191610796565b820191906000526020600020905b81548152906001019060200180831161077957829003601f168201915b505085519394506107b293606b9350602087019250905061136d565b507f0729408ee4b5e546758db0db83ca9d52562eba03029227cfe3e5ab960fa511a681606b6040516106fa92919061175c565b6060606b6107f2336110a6565b6040516020016108039291906116c9565b604051602081830303815290604052905090565b6033546001600160a01b031633148061083a57506067546001600160a01b031633145b6108755760405162461bcd60e51b815260206004820152600c60248201526b155b985d5d1a1bdc9a5e995960a21b60448201526064016104ba565b610880838383610ef5565b505050565b61088d610e9b565b6001600160a01b0381166108b35760405162461bcd60e51b81526004016104ba906117ed565b606880546001600160a01b038381166001600160a01b031983168117909355604051928352169081907f5a3b004e7cb1dd9c21394cee4a9d3cd503918330fc953652a23ca1e5fa6e0d219060200161065c565b600054610100900460ff16158080156109265750600054600160ff909116105b806109405750303b158015610940575060005460ff166001145b6109a35760405162461bcd60e51b815260206004820152602e60248201527f496e697469616c697a61626c653a20636f6e747261637420697320616c72656160448201526d191e481a5b9a5d1a585b1a5e995960921b60648201526084016104ba565b6000805460ff1916600117905580156109c6576000805461ff0019166101001790555b6001600160a01b038616610a175760405162461bcd60e51b8152602060048201526018602482015277496e76616c6964207265636569766572206164647265737360401b60448201526064016104ba565b6001600160a01b038416610a655760405162461bcd60e51b8152602060048201526015602482015274496e76616c6964206f776e6572206164647265737360581b60448201526064016104ba565b6001600160a01b038316610abb5760405162461bcd60e51b815260206004820152601760248201527f496e76616c6964206d616e61676572206164647265737300000000000000000060448201526064016104ba565b6001600160a01b038216610b0a5760405162461bcd60e51b8152602060048201526016602482015275496e76616c6964207369676e6572206164647265737360501b60448201526064016104ba565b6001600160601b0385166001600160a01b03808816600160601b026bffffffffffffffffffffffff191691909117606655606a80548683166001600160a01b031991821617909155606880548684169083161790556069805492851692909116919091179055610b786110c2565b8015610bbe576000805461ff0019169055604051600181527f7f26b83ff96e1f2b6a682f133852f6798a09c465da95921460cefb38474024989060200160405180910390a15b505050505050565b610bce610e9b565b610bd86000611132565b565b606b8054610be790611894565b80601f0160208091040260200160405190810160405280929190818152602001828054610c1390611894565b8015610c605780601f10610c3557610100808354040283529160200191610c60565b820191906000526020600020905b815481529060010190602001808311610c4357829003601f168201915b505050505081565b610c70610e9b565b6103e86001600160601b0382161115610cba5760405162461bcd60e51b815260206004820152600c60248201526b496e76616c6964205261746560a01b60448201526064016104ba565b606680546001600160601b038381166bffffffffffffffffffffffff1983168117909355604080519190921680825260208201939093527f7392c3db674e96a805158bdfac5363922c74a8241afb1eedc887ec13d02f521391016106fa565b610d21610e9b565b6001600160a01b038116610d475760405162461bcd60e51b81526004016104ba906117ed565b606980546001600160a01b038381166001600160a01b031983168117909355604051928352169081907fa26f2fe3350d3c4c094a3f4310c3e89e82dd8e81b73ad253a8abfcae54c03d909060200161065c565b610da2610e9b565b6001600160a01b038116610dc85760405162461bcd60e51b81526004016104ba906117ed565b606780546001600160a01b038381166001600160a01b031983168117909355604080519190921680825260208201939093527f51ef4f53c3dd1a65db829ec538a7e8bc41f56ed6e583b5e24e43986223a11ed291016106fa565b610e2a610e9b565b6001600160a01b038116610e8f5760405162461bcd60e51b815260206004820152602660248201527f4f776e61626c653a206e6577206f776e657220697320746865207a65726f206160448201526564647265737360d01b60648201526084016104ba565b610e9881611132565b50565b6033546001600160a01b03163314610bd85760405162461bcd60e51b815260206004820181905260248201527f4f776e61626c653a2063616c6c6572206973206e6f7420746865206f776e657260448201526064016104ba565b6001600160a01b038316610f3b5760405162461bcd60e51b815260206004820152600d60248201526c24b73b30b634b2103a37b5b2b760991b60448201526064016104ba565b6001600160a01b038116610f8c5760405162461bcd60e51b8152602060048201526018602482015277496e76616c6964207265636569766572206164647265737360401b60448201526064016104ba565b6103e86001600160601b0383161115610fd65760405162461bcd60e51b815260206004820152600c60248201526b496e76616c6964205261746560a01b60448201526064016104ba565b6040805160608101825260018082526001600160601b0385811660208085018281526001600160a01b038881168789019081528b82166000818152606586528a90208951815495516cffffffffffffffffffffffffff199096169015156cffffffffffffffffffffffff001916176101009590981694909402969096178355519190950180546001600160a01b0319169190951617909355935193845291927f25b3ff953c8d46ef87728ec49843598f7f7586628c5012d65cbd1c68c156a298910160405180910390a250505050565b60606110bc6001600160a01b0383166014611184565b92915050565b600054610100900460ff1661112d5760405162461bcd60e51b815260206004820152602b60248201527f496e697469616c697a61626c653a20636f6e7472616374206973206e6f74206960448201526a6e697469616c697a696e6760a81b60648201526084016104ba565b610bd8335b603380546001600160a01b038381166001600160a01b0319831681179093556040519116919082907f8be0079c531659141344cd1fd0a4f28419497f9722a3daafe3b4186f6b6457e090600090a35050565b6060600061119383600261182e565b61119e906002611816565b67ffffffffffffffff8111156111c457634e487b7160e01b600052604160045260246000fd5b6040519080825280601f01601f1916602001820160405280156111ee576020820181803683370190505b509050600360fc1b8160008151811061121757634e487b7160e01b600052603260045260246000fd5b60200101906001600160f81b031916908160001a905350600f60fb1b8160018151811061125457634e487b7160e01b600052603260045260246000fd5b60200101906001600160f81b031916908160001a905350600061127884600261182e565b611283906001611816565b90505b6001811115611317576f181899199a1a9b1b9c1cb0b131b232b360811b85600f16601081106112c557634e487b7160e01b600052603260045260246000fd5b1a60f81b8282815181106112e957634e487b7160e01b600052603260045260246000fd5b60200101906001600160f81b031916908160001a90535060049490941c936113108161187d565b9050611286565b5083156113665760405162461bcd60e51b815260206004820181905260248201527f537472696e67733a20686578206c656e67746820696e73756666696369656e7460448201526064016104ba565b9392505050565b82805461137990611894565b90600052602060002090601f01602090048101928261139b57600085556113e1565b82601f106113b457805160ff19168380011785556113e1565b828001600101855582156113e1579182015b828111156113e15782518255916020019190600101906113c6565b506113ed9291506113f1565b5090565b5b808211156113ed57600081556001016113f2565b80356001600160a01b038116811461141d57600080fd5b919050565b60008083601f840112611433578081fd5b50813567ffffffffffffffff81111561144a578182fd5b6020830191508360208260051b850101111561146557600080fd5b9250929050565b80356001600160601b038116811461141d57600080fd5b600060208284031215611494578081fd5b61136682611406565b6000806000606084860312156114b1578182fd5b6114ba84611406565b92506114c86020850161146c565b91506114d660408501611406565b90509250925092565b600080600080600060a086880312156114f6578081fd5b6114ff86611406565b945061150d6020870161146c565b935061151b60408701611406565b925061152960608701611406565b915061153760808701611406565b90509295509295909350565b6000806000806000806060878903121561155b578081fd5b863567ffffffffffffffff80821115611572578283fd5b61157e8a838b01611422565b90985096506020890135915080821115611596578283fd5b6115a28a838b01611422565b909650945060408901359150808211156115ba578283fd5b506115c789828a01611422565b979a9699509497509295939492505050565b6000602082840312156115ea578081fd5b813567ffffffffffffffff80821115611601578283fd5b818401915084601f830112611614578283fd5b81358181111561162657611626611900565b604051601f8201601f19908116603f0116810190838211818310171561164e5761164e611900565b81604052828152876020848701011115611666578586fd5b826020860160208301379182016020019490945295945050505050565b600060208284031215611694578081fd5b6113668261146c565b600081518084526116b581602086016020860161184d565b601f01601f19169290920160200192915050565b60008084546116d781611894565b600182811680156116ef57600181146117005761172c565b60ff1984168752828701945061172c565b8886526020808720875b858110156117235781548a82015290840190820161170a565b50505082870194505b50505050835161174081836020880161184d565b01949350505050565b602081526000611366602083018461169d565b60408152600061176f604083018561169d565b60208382038185015282855461178481611894565b8085526001828116801561179f57600181146117b3576117de565b60ff198416878701526040870194506117de565b898852858820885b848110156117d65781548982018901529083019087016117bb565b880187019550505b50929998505050505050505050565b6020808252600f908201526e496e76616c6964206164647265737360881b604082015260600190565b60008219821115611829576118296118ea565b500190565b6000816000190483118215151615611848576118486118ea565b500290565b60005b83811015611868578181015183820152602001611850565b83811115611877576000848401525b50505050565b60008161188c5761188c6118ea565b506000190190565b600181811c908216806118a857607f821691505b602082108114156118c957634e487b7160e01b600052602260045260246000fd5b50919050565b60006000198214156118e3576118e36118ea565b5060010190565b634e487b7160e01b600052601160045260246000fd5b634e487b7160e01b600052604160045260246000fdfea26469706673582212200024fb06d39b784783037274f95b8f3cb2bd3d058870b198a4ce21dea553038864736f6c63430008040033",
  "devdoc": {
    "events": {
      "RoyaltySetForCollection(address,uint96)": {
        "details": "emitted when royalties set for token."
      }
    },
    "kind": "dev",
    "methods": {
      "changeCollectionAuthorizedSignerAddress(address)": {
        "details": "Update the authorized signer address.",
        "params": {
          "_collectionSignerAddress": "new authorized signer address."
        }
      },
      "changeCollectionManager(address)": {
        "details": "Can be called only by the current manager.",
        "params": {
          "_collectionManager": "new manager address."
        }
      },
      "changeCollectionOwner(address)": {
        "details": "Update the authorized signer address.",
        "params": {
          "_collectionOwner": "new authorized signer address."
        }
      },
      "changeContractURI(string)": {
        "details": "Update baseContractURI.",
        "params": {
          "_baseContractURI": "new base contract URI."
        }
      },
      "changeDefaultRoyaltyRatePercentage(uint96)": {
        "details": "setter for defaultRoyaltyRatePercentage",
        "params": {
          "_newDefaultRate": "new default rate for royalty."
        }
      },
      "changeModelFactory(address)": {
        "details": "setter for model factory address.",
        "params": {
          "_newModelFactory": "new Receiver address"
        }
      },
      "changeReceiver(address)": {
        "details": "setter for receiver address.",
        "params": {
          "_newReceiver": "new Receiver address"
        }
      },
      "getContractURIForToken()": {
        "details": "full contract URI based on collection contract.",
        "returns": {
          "_0": "string of full contract uri."
        }
      },
      "getRoyaltyInfo(address)": {
        "details": "royalty info for specific token / collection.It will return custom rate for the token, otherwise will return the default one.",
        "params": {
          "_token": "address of token / collection."
        },
        "returns": {
          "_receiver": "receiver address.",
          "_royaltyRatePercentage": "royalty rate percentage."
        }
      },
      "initialize(address,uint96,address,address,address)": {
        "params": {
          "_defaultRateRoyaltyPercentage": "default royalty percentage.",
          "_receiver": "receiver address."
        }
      },
      "owner()": {
        "details": "Returns the address of the current owner."
      },
      "renounceOwnership()": {
        "details": "Leaves the contract without owner. It will not be possible to call `onlyOwner` functions anymore. Can only be called by the current owner. NOTE: Renouncing ownership will leave the contract without an owner, thereby removing any functionality that is only available to the owner."
      },
      "setRoyaltyRateForCollection(address,uint96,address)": {
        "details": "set royalty rate for specific collection. Support multiple set. The length of array between tokens & rates must exactly the same.",
        "params": {
          "_royaltyRate": "royalty rate.",
          "_token": "token address."
        }
      },
      "setRoyaltyRateForCollections(address[],uint96[],address[])": {
        "details": "set royalty rate for specific collection. Support multiple set. The length of array between tokens & rates must exactly the same.",
        "params": {
          "_royaltyRates": "array of royalty rates.",
          "_tokens": "array of token address."
        }
      },
      "transferOwnership(address)": {
        "details": "Transfers ownership of the contract to a new account (`newOwner`). Can only be called by the current owner."
      }
    },
    "version": 1
  },
  "userdoc": {
    "kind": "user",
    "methods": {
      "changeCollectionManager(address)": {
        "notice": "Setter for manager address."
      },
      "changeDefaultRoyaltyRatePercentage(uint96)": {
        "notice": "the deafult royalty rate can be 0."
      },
      "collectionManager()": {
        "notice": "the authorized address who can change some configuration of collections."
      },
      "initialize(address,uint96,address,address,address)": {
        "notice": "Initialization for upgradeable contract."
      },
      "setRoyaltyRateForCollection(address,uint96,address)": {
        "notice": "the rate will be applied to all of token ids inside the collection.Owner or factory can perform this function call."
      },
      "setRoyaltyRateForCollections(address[],uint96[],address[])": {
        "notice": "the rate will be applied to all of token ids inside the collection.only owner can call the multiple set."
      }
    },
    "version": 1
  },
  "storageLayout": {
    "storage": [
      {
        "astId": 138,
        "contract": "contracts/royalty/RoyaltyRegistry.sol:RoyaltyRegistry",
        "label": "_initialized",
        "offset": 0,
        "slot": "0",
        "type": "t_uint8"
      },
      {
        "astId": 141,
        "contract": "contracts/royalty/RoyaltyRegistry.sol:RoyaltyRegistry",
        "label": "_initializing",
        "offset": 1,
        "slot": "0",
        "type": "t_bool"
      },
      {
        "astId": 566,
        "contract": "contracts/royalty/RoyaltyRegistry.sol:RoyaltyRegistry",
        "label": "__gap",
        "offset": 0,
        "slot": "1",
        "type": "t_array(t_uint256)50_storage"
      },
      {
        "astId": 10,
        "contract": "contracts/royalty/RoyaltyRegistry.sol:RoyaltyRegistry",
        "label": "_owner",
        "offset": 0,
        "slot": "51",
        "type": "t_address"
      },
      {
        "astId": 130,
        "contract": "contracts/royalty/RoyaltyRegistry.sol:RoyaltyRegistry",
        "label": "__gap",
        "offset": 0,
        "slot": "52",
        "type": "t_array(t_uint256)49_storage"
      },
      {
        "astId": 5187,
        "contract": "contracts/royalty/RoyaltyRegistry.sol:RoyaltyRegistry",
        "label": "royaltiesSet",
        "offset": 0,
        "slot": "101",
        "type": "t_mapping(t_address,t_struct(RoyaltySet)5181_storage)"
      },
      {
        "astId": 5190,
        "contract": "contracts/royalty/RoyaltyRegistry.sol:RoyaltyRegistry",
        "label": "defaultRoyaltyRatePercentage",
        "offset": 0,
        "slot": "102",
        "type": "t_uint96"
      },
      {
        "astId": 5193,
        "contract": "contracts/royalty/RoyaltyRegistry.sol:RoyaltyRegistry",
        "label": "receiver",
        "offset": 12,
        "slot": "102",
        "type": "t_address"
      },
      {
        "astId": 5196,
        "contract": "contracts/royalty/RoyaltyRegistry.sol:RoyaltyRegistry",
        "label": "modelFactory",
        "offset": 0,
        "slot": "103",
        "type": "t_address"
      },
      {
        "astId": 5202,
        "contract": "contracts/royalty/RoyaltyRegistry.sol:RoyaltyRegistry",
        "label": "collectionManager",
        "offset": 0,
        "slot": "104",
        "type": "t_address"
      },
      {
        "astId": 5205,
        "contract": "contracts/royalty/RoyaltyRegistry.sol:RoyaltyRegistry",
        "label": "collectionAuthorizedSignerAddress",
        "offset": 0,
        "slot": "105",
        "type": "t_address"
      },
      {
        "astId": 5208,
        "contract": "contracts/royalty/RoyaltyRegistry.sol:RoyaltyRegistry",
        "label": "collectionOwner",
        "offset": 0,
        "slot": "106",
        "type": "t_address"
      },
      {
        "astId": 5211,
        "contract": "contracts/royalty/RoyaltyRegistry.sol:RoyaltyRegistry",
        "label": "baseContractURI",
        "offset": 0,
        "slot": "107",
        "type": "t_string_storage"
      }
    ],
    "types": {
      "t_address": {
        "encoding": "inplace",
        "label": "address",
        "numberOfBytes": "20"
      },
      "t_array(t_uint256)49_storage": {
        "base": "t_uint256",
        "encoding": "inplace",
        "label": "uint256[49]",
        "numberOfBytes": "1568"
      },
      "t_array(t_uint256)50_storage": {
        "base": "t_uint256",
        "encoding": "inplace",
        "label": "uint256[50]",
        "numberOfBytes": "1600"
      },
      "t_bool": {
        "encoding": "inplace",
        "label": "bool",
        "numberOfBytes": "1"
      },
      "t_mapping(t_address,t_struct(RoyaltySet)5181_storage)": {
        "encoding": "mapping",
        "key": "t_address",
        "label": "mapping(address => struct RoyaltyStorage.RoyaltySet)",
        "numberOfBytes": "32",
        "value": "t_struct(RoyaltySet)5181_storage"
      },
      "t_string_storage": {
        "encoding": "bytes",
        "label": "string",
        "numberOfBytes": "32"
      },
      "t_struct(RoyaltySet)5181_storage": {
        "encoding": "inplace",
        "label": "struct RoyaltyStorage.RoyaltySet",
        "members": [
          {
            "astId": 5176,
            "contract": "contracts/royalty/RoyaltyRegistry.sol:RoyaltyRegistry",
            "label": "isSet",
            "offset": 0,
            "slot": "0",
            "type": "t_bool"
          },
          {
            "astId": 5178,
            "contract": "contracts/royalty/RoyaltyRegistry.sol:RoyaltyRegistry",
            "label": "royaltyRateForCollection",
            "offset": 1,
            "slot": "0",
            "type": "t_uint96"
          },
          {
            "astId": 5180,
            "contract": "contracts/royalty/RoyaltyRegistry.sol:RoyaltyRegistry",
            "label": "royaltyReceiver",
            "offset": 0,
            "slot": "1",
            "type": "t_address"
          }
        ],
        "numberOfBytes": "64"
      },
      "t_uint256": {
        "encoding": "inplace",
        "label": "uint256",
        "numberOfBytes": "32"
      },
      "t_uint8": {
        "encoding": "inplace",
        "label": "uint8",
        "numberOfBytes": "1"
      },
      "t_uint96": {
        "encoding": "inplace",
        "label": "uint96",
        "numberOfBytes": "12"
      }
    }
  }
}